:020000040800F2
:1000000000000120E5020008412500084325000802
:100010004525000847250008492500080000000084
:100020000000000000000000000000004B25000858
:100030004D250008000000004F250008512500084C
:100040005503000855030008550300085503000830
:100050005503000855030008550300085503000820
:100060005503000855030008550300085503000810
:100070005503000855030008550300085503000800
:10008000592500085B2500085503000855030008A2
:1000900055030008550300085503000855030008E0
:1000A00055030008550300085503000855030008D0
:1000B00055030008550300085503000855030008C0
:1000C00055030008550300085503000855030008B0
:1000D00055030008550300085503000855030008A0
:1000E0005503000855030008550300085503000890
:1000F0005503000855030008550300085503000880
:10010000550300085503000855030008550300086F
:10011000550300085503000855030008550300085F
:10012000550300085503000855030008550300084F
:10013000550300085503000855030008550300083F
:10014000550300085503000855030008550300082F
:10015000550300085503000855030008550300081F
:10016000550300085503000855030008550300080F
:10017000550300085503000855030008000000005F
:1001800055030008550300085503000855030008EF
:1001900055030008550300085503000855030008DF
:1001A00055030008550300085503000855030008CF
:1001B0005503000800B583B001F094FE384B394A6E
:1001C0001360394A1360394906E011681960043335
:1001D00004329842F9D82146354B994205D20A6833
:1001E0004B6801F10C048868F3E72E4B1A68314B19
:1001F0009A4200D0FEE72C4B1A682F4B9A42F9D155
:10020000274B2E4A13602E4A13602E4B05E0002028
:10021000106004329342FAD80B462B4A934204D220
:10022000194651F8082B5B68F4E7244B1B6813B997
:10023000234B1B6803B1FEE701F0E2FE694601A80B
:1002400001F048FE214B224CE41AA4100025AC42D8
:1002500014DC204B204CE41AA4100025AC4213DC23
:100260000099019802F098F805461C4B1C4CE41AC2
:10027000A410002C0EDC284601F009FE134B53F8A5
:10028000253098470135E2E7124B53F8253098475F
:100290000135E3E7013C114B53F824309847E8E778
:1002A000BABADECA000000209400002058030008FB
:1002B0007003000878563412325476989800002063
:1002C0005C01002070030008800300088003000820
:1002D00080030008800300088003000880030008F2
:1002E0008003000808B5FFF765FF00BEFEE71EF0BB
:1002F000040F0CBFEFF30880EFF309807146124A38
:10030000104700BEFEE700BEFEE71EF0040F0CBF64
:10031000EFF30880EFF3098071460C4A104700BEE6
:10032000FEE71EF0040F0CBFEFF30880EFF3098027
:100330007146074A104700BEFEE700BEFEE700BE5A
:10034000FEE700BEFEE77047030300081F03000836
:080350003703000800BEFEE7C0
:100358009C38000800000020980000209C38000805
:10036800000000100000001098000020600100202C
:0803780000000010000000105D
:100380007047000010B50446074B1868074BA3FBE5
:100390000030800900F0A4F8002221464FF0FF3021
:1003A00000F05AF8002010BD0C000020D34D621060
:1003B00008B50B4B1A6842F400721A601A6842F4CE
:1003C00080621A601A6842F480721A60032000F09A
:1003D00025F80020FFF7D6FFFFF7D2FF002008BD69
:1003E000003C0240024A136801331360704700BFAB
:1003F000AC000020014B1868704700BFAC00002023
:1004000010B582B00190FFF7F5FF0446FFF7F2FF49
:10041000001B019B9842F9D302B010BD10B50446F1
:10042000C31E042B0FD80A4AD36823F4E0631B04CD
:100430001B0C240204F4E064234343F0BF6343F441
:100440000033D36010BDA421024801F0C3FFEAE7E6
:1004500000ED00E0F836000870B505460C4616467B
:100460000F2A24D80F2C27D81A4BDB68C3F302239A
:10047000C3F10702042A28BF0422191D062920D926
:10048000033B012101FA02F2013A14409C4001FAB7
:1004900003F3013B33401C43002D14DB2401E4B281
:1004A00005F1604505F5614585F8004370BDBC2147
:1004B000094801F08FFFD5E7BD21074801F08AFF09
:1004C000D2E70023DDE705F00F052401E4B2034B7A
:1004D0005C5570BD00ED00E0F836000814ED00E05A
:1004E0000138B0F1807F0AD2064B5860F021064AED
:1004F00082F823100020986007221A6070470120BC
:10050000704700BF10E000E000ED00E02DE9F0478B
:1005100082B080460F46BE4B98422BD003F58063D5
:10052000984227D003F58063984223D003F5806377
:1005300098421FD003F5806398421BD003F5806377
:10054000984217D003F58063984213D003F5806377
:1005500098420FD003F5806398420BD003F5806377
:10056000984207D003F58063984203D0C521A9487B
:1005700001F030FF3B8853B37B68012B22D9112B4C
:1005800020D0022B1ED0122B1CD0A34A934219D08C
:1005900002F58012934215D002F58012934211D0D9
:1005A000A2F5F81293420DD002F58012934209D0C1
:1005B00002F58012934205D0032B03D0C721954842
:1005C00001F008FFBB68022B06D800257CE0C6219D
:1005D000904801F0FFFECFE7C8218E4801F0FAFEF7
:1005E000F3E73B690BB3092B1FD0012B1DD0022B66
:1005F0001BD0032B19D0042B17D0052B15D0062B9D
:1006000013D0072B11D0082B0FD00A2B0DD00B2B9A
:100610000BD00C2B09D00D2B07D00F2B05D00E2B98
:1006200003D0D9217B4801F0D5FEE908083158F8FC
:10063000213005F0070292000F20904023EA0003CA
:10064000386900FA02F2134348F821304DE0EC21FA
:10065000704801F0BFFE64E0092100E00021A140E4
:100660000A4302336D4941F823206D4B1A686FEA43
:10067000090302EA0301786810F4803F01D049EAD7
:100680000201674A1160526803EA0201786810F4B7
:10069000003F01D049EA0201614A5160926803EAD1
:1006A0000201786810F4801F01D049EA02015C4A17
:1006B0009160D2681340796811F4001F01D049EAB3
:1006C0000203574AD36001350F2D00F29D800124AB
:1006D000AC403B6804EA03094C45F4D17B68022B2B
:1006E0003FF47FAF122B3FF47CAFD8F800304FEAD5
:1006F000450A032606FA0AF6F64333407A6802F002
:10070000030202FA0AF21343C8F800307B685A1E4B
:10071000012A03D9112B01D0122B16D1FB68032B10
:1007200095D8D8F808303340FA6802FA0AF2134331
:10073000C8F80830D8F8043023EA04047B68C3F30F
:100740000013AB401C43C8F80440D8F80C301E40DE
:10075000BB6803FA0AF31E43C8F80C607B6813F009
:10076000805FB0D0002301932E4B5A6C42F480423C
:100770005A645B6C03F480430193019BAB08991CA2
:10078000264A52F8212005F003018C000F21A140D8
:1007900022EA01021E4880453FF460AF22498845A5
:1007A00022D001F58061884520D001F5806188451F
:1007B0001ED001F5806188451CD001F58061884517
:1007C0001AD001F58061884518D001F5806188450F
:1007D00016D001F58061884514D001F58061884507
:1007E0003FF43AAF0A213AE7012138E7022136E720
:1007F000032134E7042132E7052130E706212EE703
:1008000007212CE708212AE702B0BDE8F08700BFE6
:10081000000002402C370008000011100038014091
:10082000003C0140003802400004024070B506461A
:1008300015460C4651B1012D04D94FF4D971074822
:1008400001F0C8FD45B92404B46170BD40F2B11196
:10085000024801F0BFFDEEE7B46170BD2C3700081F
:1008600010B582B000230193234B1A6C42F08052E2
:100870001A641B6C03F080530193019B4FF4803387
:1008800093FAA3F3B3FA83F303F1845303F56033CC
:100890009B0001221A60FFF7ADFD0446174B5B6811
:1008A00013F4803F08D1FFF7A5FD001BB0F57A7F58
:1008B000F4D9032002B010BD4FF4003393FAA3F330
:1008C000B3FA83F303F1845303F560339B000122F1
:1008D0001A60FFF78FFD0446084B5B6813F4003F76
:1008E00007D1FFF787FD001BB0F57A7FF4D903200D
:1008F000E0E70020DEE700BF003802400070004063
:10090000214B9B6803F00C03042B3AD0082B01D039
:100910001E4870471C4B586800F03F005B6813F49A
:10092000800F1ED01A4AB2FBF0F2174B586847F6F8
:10093000C073184093FAA3F3B3FA83F3D84000FBD3
:1009400002F0114B5B6803F440334FF4403292FAEB
:10095000A2F2B2FA82F2D34001335B00B0FBF3F0B3
:1009600070470A4AB2FBF0F2074B586847F6C0736B
:10097000184093FAA3F3B3FA83F3D84000FB02F0D4
:10098000DFE70348704700BF003802400024F4004E
:1009900000127A0070B504460D460368013B0E2B29
:1009A00011D80F2D15D88A4B1B6803F00F039D42F9
:1009B00015D9EBB2864A1370136803F00F039D42FA
:1009C0000DD0012070BD40F23721824801F002FDB8
:1009D000E7E74FF40E717F4801F0FCFCE3E7236882
:1009E00013F0020F1DD0A368A3B1802B12D0902B5F
:1009F00010D0A02B0ED0B02B0CD0C02B0AD0D02BF7
:100A000008D0E02B06D0F02B04D040F24F217148E3
:100A100001F0E0FC704A936823F0F003A1680B43F7
:100A20009360236813F0010F6DD06368032B29D8FE
:100A30006368012B2CD09A1E012A30D9664A1268AD
:100A400012F0020F00F0C28063498A6822F00302AC
:100A500013438B60FFF7CEFC06466368012B25D05D
:100A6000022B32D0032B3FD05B4B9B6813F00C0F53
:100A700049D0FFF7BFFC801B41F288339842F3D97D
:100A8000032070BD40F25621524801F0A3FCCFE78D
:100A9000514A126812F4003FD6D1012070BD4E4A6F
:100AA000126812F0007FCFD1012070BD4A4B9B68C5
:100AB00003F00C03042B26D0FFF79CFC801B41F2B3
:100AC00088339842F2D9032070BD434B9B6803F0F2
:100AD0000C03082B17D0FFF78DFC801B41F28833E5
:100AE0009842F2D9032070BD3B4B9B6803F00C0386
:100AF0000C2B08D0FFF77EFC801B41F28833984214
:100B0000F2D9032070BD324B1B6803F00F039D42E6
:100B100009D2EAB22E4B1A701B6803F00F039D42F4
:100B200001D0012070BD236813F0040F19D0E368D1
:100B300083B1B3F5805F0DD0B3F5A05F0AD0B3F5F4
:100B4000C05F07D0B3F5E05F04D04FF42D712148AA
:100B500001F040FC204A936823F4E053E1680B4322
:100B60009360236813F0080F1AD0236983B1B3F59B
:100B7000805F0DD0B3F5A05F0AD0B3F5C05F07D09A
:100B8000B3F5E05F04D040F2BB21124801F022FC33
:100B9000114A936823F46043216943EAC1039360D7
:100BA000FFF7AEFE0C4B9B6803F0F003F02292FAC5
:100BB000A2F2B2FA82F2D340084AD35CD840084B82
:100BC00018600020FFF7DEFB002070BD012070BD23
:100BD000003C02406C370008003802405C370008D7
:100BE0000C000020014B1868704700BF0C0000206B
:100BF00008B5FFF7F7FF074B9B6803F4E0534FF48A
:100C0000E05292FAA2F2B2FA82F2D340024AD35CE4
:100C1000D84008BD003802405C37000808B5FFF72F
:100C2000E1FF074B9B6803F460434FF4604292FA84
:100C3000A2F2B2FA82F2D340024AD35CD84008BD95
:100C4000003802405C37000830B583B004460368C2
:100C50000F2B2ED8236813F0010F3ED06368012BB1
:100C600006D9052B04D040F61401A04801F0B2FBD0
:100C70009F4B9B6803F00C03042B25D09C4B9B6877
:100C800003F00C03082B1AD022799A4B1A70636870
:100C9000002B51D0FFF7AEFB0546954B1B6813F4B4
:100CA000003F1AD1FFF7A6FB401B6428F5D90320AB
:100CB000ECE140F60F018D4801F08CFBCAE78C4B4C
:100CC0005B6813F4800FDFD0894B1B6813F4003F7F
:100CD00003D06368002B00F0D681236813F0020F65
:100CE0005CD0E368012B04D940F64C017F4801F049
:100CF00071FB23691F2B2ED87D4B9B6813F00C0FC3
:100D000034D07B4B9B6803F00C03082B29D0E3689D
:100D1000002B72D00122784B1A60FFF76BFB05465F
:100D2000734B1B6813F0020F58D1FFF763FB401B96
:100D30000228F5D90320A9E1FFF75CFB05466C4BBF
:100D40001B6813F4003FC8D0FFF754FB401B642816
:100D5000F5D903209AE140F64D01644801F03AFBD1
:100D6000CAE7634B5B6813F4800FD0D1604B1B68FC
:100D700013F0020F04D0E368012B01D0012085E1BC
:100D80005B48036823F0F8032169F82292FAA2F283
:100D9000B2FA82F201FA02F213430360236813F0FD
:100DA000080F4ED06369012B04D940F693014F48D8
:100DB00001F010FB636993B30122504B1A60FFF7F7
:100DC00019FB05464A4B5B6F13F0020F39D1FFF751
:100DD00011FB401B0228F5D9032057E14448036862
:100DE00023F0F8032169F82292FAA2F2B2FA82F211
:100DF00001FA02F213430360D0E700223E4B1A606F
:100E0000FFF7F8FA05463A4B1B6813F0020FC5D0FE
:100E1000FFF7F0FA401B0228F5D9032036E1002243
:100E2000364B1A60FFF7E6FA0546314B5B6F13F05D
:100E3000020F06D0FFF7DEFA401B0228F5D9032087
:100E400024E1236813F0040F5ED0A368012B06D9B8
:100E5000052B04D040F6BD01244801F0BBFA002365
:100E60000193234B1A6C42F080521A641B6C03F0FE
:100E700080530193019B224A136843F480731360EB
:100E8000FFF7B8FA05461E4B1B6813F4807F06D1A6
:100E9000FFF7B0FA401B0228F5D90320F6E0227ACA
:100EA000184B1A70A36883B1FFF7A4FA0546104BDC
:100EB0001B6F13F0020F27D1FFF79CFA401B41F282
:100EC00088339842F3D90320E0E0FFF793FA054610
:100ED000074B1B6F13F0020F16D0FFF78BFA401B66
:100EE00041F288339842F3D90320CFE09C370008C1
:100EF000003802400238024000004742800E47425C
:100F00000070004070380240A369022B1FD8A3690B
:100F1000002B00F0BA805F4A926802F00C02082AA7
:100F200000F0B680022B18D000225B4B1A60FFF74E
:100F300061FA0446574B1B6813F0007F00F0A18054
:100F4000FFF758FA001B0228F4D903209EE040F670
:100F5000F201524801F03EFAD9E7E3693BB1B3F53B
:100F6000800F04D040F6FB014C4801F033FA236AAD
:100F70003F2B2CD8636A323BB3F5BF7F2DD8A36AD1
:100F8000022B0AD0042B08D0062B06D0082B04D045
:100F900040F6FE01414801F01DFAE36A043B0B2BC9
:100FA00021D8236B023B052B23D800223A4B1A6031
:100FB000FFF720FA0546374B1B6813F0007F1ED061
:100FC000FFF718FA401B0228F5D903205EE040F62F
:100FD000FC01324801F0FEF9CCE740F6FD012F4854
:100FE00001F0F8F9CBE740F6FF012C4801F0F2F9E7
:100FF000D7E74FF41061294801F0ECF9D5E7E36930
:10100000226A1343616A47F6C07292FAA2F2B2FAF8
:1010100082F201FA02F21343A26A5208013A4FF433
:10102000403191FAA1F1B1FA81F18A401343E16AAA
:101030004FF0706292FAA2F2B2FA82F201FA02F270
:101040001343216B4FF0E04292FAA2F2B2FA82F21D
:1010500001FA02F213430F4A536001220E4B1A6049
:10106000FFF7C8F904460B4B1B6813F0007F06D14D
:10107000FFF7C0F9001B0228F5D9032006E0002085
:1010800004E0002002E0012000E0002003B030BDB9
:101090000120FBE700380240600047429C3700080F
:1010A000F8B505460F4616461C463BE02CB1FFF747
:1010B000A1F9069BC01A844234D82A68536823F0E9
:1010C000E00353606B68B3F5827F0BD0AB6AB3F576
:1010D000005F14D0012385F85130002385F850308B
:1010E0000320F8BDAB68B3F5004F02D0B3F5806FB5
:1010F000ECD12A68136823F040031360E6E72A68FE
:10110000136823F400531B041B0C13602A68136834
:1011100043F400531360DDE70123B34209D0B4F177
:10112000FF3FC3D12B689B6837EA0303F4D0002349
:10113000F3E70020F8BD10B582B0044600920B46DC
:1011400000228021FFF7ACFF034620B1636D43F01E
:10115000200363650323184602B010BD002800F089
:10116000C48010B504460368614A934218D0A2F5C2
:101170007842934214D002F58062934210D002F577
:10118000784293420CD002F5E052934208D002F527
:101190008062934204D040F20B11564801F01AF9D4
:1011A00063683BB1B3F5827F04D04FF48671514838
:1011B00001F010F9A36853B1B3F5806F07D0B3F510
:1011C000004F04D040F20D114A4801F003F9E368E2
:1011D000B3F5006F01D0002B7BD1A369B3F5007F7D
:1011E00008D03BB1B3F5802F04D040F20F11414835
:1011F00001F0F0F8E36993B1082B10D0102B0ED05A
:10120000182B0CD0202B0AD0282B08D0302B06D03E
:10121000382B04D04FF48871364801F0DBF8236A8C
:1012200033B1802B04D040F21111324801F0D2F8D2
:10123000636A33B1102B04D04FF489712D4801F04B
:10124000C9F8636A83B9236933B1022B04D040F231
:101250001511284801F0BEF86369012B04D94FF439
:101260008B71244801F0B6F80023A36294F8513042
:10127000002B34D0022384F851302268136823F005
:101280004003136022686368A1680B43E1680B4365
:1012900021690B4361690B43A16901F400710B43A0
:1012A000E1690B43216A0B43A16A0B431360226877
:1012B000638B03F00403616A0B4353602268D369B4
:1012C00023F40063D36100206065012384F851306A
:1012D00010BD4FF48771074801F07CF87DE784F872
:1012E0005030204601F078F8C4E70120704700BF75
:1012F00000300140D03700082DE9F04184B00446A9
:101300000E4690461D4683683BB1B3F5004F04D0AE
:101310004FF4E171684801F05DF894F85030012B0A
:1013200004D10223184604B0BDE8F081012384F8FB
:101330005030FFF75FF8074694F85130DBB2012BCD
:1013400007D00223012284F85120002284F8502083
:10135000E8E7002E00F0A480B8F1000F00F0A280B2
:10136000032384F85130002363652663A4F8348096
:10137000A4F83680A363A387E38763642364A36828
:10138000B3F5004F1CD023681A6812F0400F03D148
:101390001A6842F040021A60E368B3F5006F15D096
:1013A00063681BB1E38E9BB2012B44D1236816F80E
:1013B000012B1A73E38E9BB2013B9BB2E3863AE0AA
:1013C0002268136843F480431360DCE763681BB151
:1013D000E38E9BB2012B13D1236836F8022BDA601F
:1013E000E38E9BB2013B9BB2E38609E0002D5BD00C
:1013F000B5F1FF3F04D0FEF7FDFFC01B854255D974
:10140000E38E9BB243B323689A6812F0020FEDD0CB
:1014100036F8022BDA60E38E9BB2013B9BB2E38687
:10142000EEE7002D44D0B5F1FF3F04D0FEF7E2FF18
:10143000C01B85423ED9E38E9BB26BB123689A688C
:1014400012F0020FEDD016F8012B1A73E38E9BB247
:10145000013B9BB2E386EEE700972B460122022177
:101460002046FFF71DFE08B103236BE73A462946E5
:101470002046FFF760FE034618B120236365012371
:1014800060E7A26832B903922268D168039192683A
:101490000392039A626D002A3FF454AF012351E78F
:1014A00001234FE701234DE703234BE7032349E7DC
:1014B000032347E7032345E7D03700082DE9F0432E
:1014C00085B004460F46164698460C9D836843B97E
:1014D00094F85030012B0AD10223184605B0BDE81C
:1014E000F08340F236318A4800F074FFF0E70123C0
:1014F00084F85030FEF77EFF814694F85130DBB21D
:101500006268012B12D0B2F5827F07D0022301223C
:1015100084F85120002284F85020DEE7A268002AD7
:1015200040F0E980042B01D00223F0E7002F00F007
:10153000E480002E00F0E380B8F1000F00F0E180BD
:1015400094F85130DBB2012B2CD000236365A663E5
:10155000A4F83E80A4F83C802763A4F83680A4F861
:1015600034802364636423681A6812F0400F03D147
:101570001A6842F040021A60E368B3F5006F15D0B4
:1015800063681BB1E38E9BB2012B08D1236817F867
:10159000012B1A73E38E9BB2013B9BB2E3864FF0A3
:1015A000010869E0052384F85130CEE763681BB178
:1015B000E38E9BB2012B08D1236837F8022BDA6047
:1015C000E38E9BB2013B9BB2E3864FF001081AE029
:1015D000E38F9BB273B123689A6812F0010F09D0B0
:1015E000DB6826F8023BE38F9BB2013B9BB2E387AB
:1015F0004FF00108B5F1FF3F05D0FEF7FBFEA0EB71
:10160000090085427FD9E38E9BB21BB9E38F9BB261
:10161000002B4ED0B8F1000FDAD0E38E9BB2002B36
:10162000D6D023689A6812F0020FD1D037F8022B77
:10163000DA60E38E9BB2013B9BB2E3864FF0000879
:10164000C6E7E38F9BB273B123689A6812F0010F6B
:1016500009D0DB683370E38F9BB2013B9BB2E38719
:1016600001364FF00108B5F1FF3F05D0FEF7C2FE8D
:10167000A0EB0900854248D9E38E9BB213B9E38FF2
:101680009BB2B3B1B8F1000FDBD0E38E9BB2002B5D
:10169000D7D023689A6812F0020FD2D03A781A7322
:1016A000E38E9BB2013B9BB2E38601374FF000080B
:1016B000C7E7CDF800902B46012202212046FFF714
:1016C000EFFC08B1032322E74A4629462046FFF7EC
:1016D00032FD034618B120236365012317E7A26892
:1016E000002A7FF414AF03922268D16803919268B4
:1016F0000392039A0BE7022309E7012307E701237B
:1017000005E7012303E7032301E70323FFE600BF07
:10171000D03700082DE9F04182B004460D469046CE
:101720001E464368B3F5827F07D094F85030012BF2
:101730000FD1022002B0BDE8F0818368002BF4D104
:10174000042380F85130009613460A46FFF7B6FE90
:10175000F0E7012384F85030FEF74CFE074694F87A
:101760005130DBB2012B07D00220012384F8513025
:10177000002384F85030DDE7002D72D0B8F1000F5F
:1017800071D0042384F8513000236365A563A4F865
:101790003C80A4F83E802363A386E38623646364CD
:1017A000A368B3F5004F0BD023681A6812F0400FFE
:1017B00003D11A6842F040021A60E36883B12AE05C
:1017C0002268136823F480431360EDE7002E4CD0A9
:1017D000B6F1FF3F04D0FEF70DFEC01B864246D98E
:1017E000E38F9BB243B323689A6812F0010FEDD0E8
:1017F0001B7B05F8013BE38F9BB2013B9BB2E38768
:10180000EEE7002E35D0B6F1FF3F04D0FEF7F2FD33
:10181000C01B86422FD9E38F9BB26BB123689A68B5
:1018200012F0010FEDD0DB6825F8023BE38F9BB28D
:10183000013B9BB2E387EEE76368B3F5827F03D099
:10184000636DD3B9002090E7A368B3F5004F02D0D1
:10185000B3F5806FF4D12268136823F0400313605E
:10186000EEE7012081E701207FE703207DE70320E9
:101870007BE7032079E7032077E7012075E7000085
:101880002DE9F04704464268B64B9A4200F2A68022
:10189000E3683BB1B3F5005F04D04FF4EA61B248AE
:1018A00000F098FD236953B1B3F5806F07D0B3F50D
:1018B000C06F04D040F25171AB4800F08BFD6369FA
:1018C0004FF6F372134200D123B940F25271A64889
:1018D00000F080FD2268136923F44053E1680B4354
:1018E00013612168CB6823F4164323F00C03A2682C
:1018F0002069024360690243E06902431343CB60FD
:101900002268536923F44073A1690B435361E3696F
:10191000B3F5004F68D0D4F80080944B984500F0A0
:10192000298103F58063984500F02481FFF760F971
:1019300000EB800000EB80006568AD00B0FBF5F5C2
:101940008B4FA7FB05356D092E01FFF751F900EB11
:10195000800000EB80006568AD00B0FBF5FAFFF792
:1019600047F900EB800000EB80006568AD00B0FB3C
:10197000F5F5A7FB05356D094FF0640909FB15A5C1
:101980002D013235A7FB05356D0905F0F00535440D
:10199000FFF72EF900EB800000EB80006668B600D0
:1019A000B0FBF6F6FFF724F900EB800000EB8000B7
:1019B00063689B00B0FBF3F0A7FB0030400909FB14
:1019C00010694FEA091909F13209A7FB0937C7F372
:1019D00043172F44C8F80870BDE8F08740F24F71F4
:1019E000614800F0F7FC53E7D4F8008003F180432E
:1019F00003F5104398455CD003F58063984558D0B3
:101A0000FFF7F6F800EB800000EB800065686D00E2
:101A1000B0FBF5F5564FA7FB05356D092E01FFF715
:101A2000E7F800EB800000EB800065686D00B0FB1C
:101A3000F5FAFFF7DDF800EB800000EB8000656849
:101A40006D00B0FBF5F5A7FB05356D094FF0640996
:101A500009FB15A5ED003235A7FB05356D096D00B5
:101A600005F4F8753544FFF7C3F800EB800000EB90
:101A7000800066687600B0FBF6F6FFF7B9F800EB79
:101A8000800000EB800063685B00B0FBF3F3A7FB12
:101A900003235B0909FB13694FEAC90909F13209FC
:101AA000A7FB0937C7F342172F44C8F80870BDE8F1
:101AB000F087FFF7B3F800EB800000EB800065686B
:101AC0006D00B0FBF5F52A4FA7FB05356D092E011A
:101AD000FFF7A4F800EB800000EB800065686D0064
:101AE000B0FBF5FAFFF79AF800EB800000EB8000FE
:101AF00065686D00B0FBF5F5A7FB05356D094FF086
:101B0000640909FB15A5ED003235A7FB05356D0904
:101B10006D0005F4F8753544FFF780F800EB8000A0
:101B200000EB800066687600B0FBF6F6FFF776F80B
:101B300000EB800000EB800063685B00B0FBF3F318
:101B4000A7FB03235B0909FB13694FEAC90909F1E4
:101B50003209A7FB0937C7F342172F44C8F80870AA
:101B6000BDE8F087A037A000003800080010014051
:101B70001F85EB51FFF752F800EB800000EB80006F
:101B80006568AD00B0FBF5F5264FA7FB05356D097F
:101B90002E01FFF743F800EB800000EB8000656842
:101BA000AD00B0FBF5FAFFF739F800EB800000EB71
:101BB00080006568AD00B0FBF5F5A7FB05356D0944
:101BC0004FF0640909FB15A52D013235A7FB05353A
:101BD0006D0905F0F0053544FFF720F800EB8000B3
:101BE00000EB80006668B600B0FBF6F6FFF716F86B
:101BF00000EB800000EB800063689B00B0FBF3F318
:101C0000A7FB03235B0909FB13694FEA091909F1D3
:101C10003209A7FB0937C7F343172F44C8F80870E8
:101C2000BDE8F0871F85EB512DE9F04105460F46D1
:101C300016469846069C2B681B6837EA03030CBFC0
:101C400001230023B3421ED1B4F1FF3FF3D02CB1E6
:101C5000FEF7D0FBA0EB08008442ECD22A68D368E0
:101C600023F4D073D3602A68536923F001035361CE
:101C7000202385F8393085F83A30002385F838304C
:101C80000320BDE8F0810020BDE8F081002800F0CD
:101C90008C8010B5044683691BB30368444A9342A1
:101CA0000FD0A2F54C4293420BD002F580629342D2
:101CB00007D002F54C42934203D0FE213D4800F08C
:101CC00089FBA36993B3B3F5807F2FD0B3F5007F71
:101CD0002CD0B3F5407F29D0FF21364800F07AFBA5
:101CE00024E00368324A934220D0A2F54C4293424A
:101CF0001CD002F58062934218D002F580629342B4
:101D000014D002F58062934210D002F5444293420F
:101D10000CD0A2F51C42934208D002F58062934297
:101D200004D040F20311234800F054FBA3683BB1F8
:101D3000B3F5805F04D040F205111E4800F04AFB65
:101D4000E3693BB1B3F5004F04D04FF483711948F8
:101D500000F040FB94F839300BB3242384F8393079
:101D60002268D36823F40053D3602046FFF788FD30
:101D70002268136923F4904313612268536923F0A6
:101D80002A0353612268D36843F40053D3600020D0
:101D9000E063202384F8393084F83A3010BD84F8A9
:101DA0003830204600F08CFBD7E70120704700BF99
:101DB00000100140003800082DE9F04182B01E46B5
:101DC00090F83930DBB2202B04D00223184602B041
:101DD000BDE8F08104460D46174600294FD0002A81
:101DE0004FD090F83830012B01D10223EEE70123C8
:101DF00080F838300023C363212380F83930FEF7A0
:101E0000F9FA8046A784E78410E000964346002252
:101E100080212046FFF708FF002834D122682B8854
:101E2000C3F3080353602369ABB90235E38CA3B154
:101E3000013BE384A368B3F5805FE6D00096434698
:101E4000002280212046FFF7EFFEF0B923682A78B0
:101E50005A600135EAE70135E8E70096434600227B
:101E600040212046FFF7E0FE034608B10323ADE71B
:101E7000202284F83920002284F83820A6E70123A4
:101E8000A4E70123A2E70323A0E703239EE7FEE7DD
:101E900008B503460C4A12685AB10B4A106803335E
:101EA00023F003030344094A934206D8064A136009
:101EB00008BD0749044A1160EFE700F08FFF0C23CB
:101EC00003604FF0FF3008BD9C00002000FC0020A4
:101ED0006001002001230360014B0B60704700BFCD
:101EE0000400002008B500F009F8024B024A9A608D
:101EF00008BD00BF00ED00E0000000080C4B1A68B0
:101F000042F001021A60002199601A6822F084727E
:101F100022F480321A60074A5A601A6822F480223A
:101F20001A60D9604FF00062034B9A60704700BF9F
:101F3000003802401030002400ED00E0224B9B6886
:101F400003F00C03042B14D0082B16D01BB11F4A2E
:101F50001F4B1A6002E01D4A1D4B1A601A4B9B680A
:101F6000C3F303131B4AD15C194A1368CB401360B7
:101F70007047194A164B1A60F0E7134B5A685B68B2
:101F800003F03F0312F4800F13D0134AB2FBF3F2B5
:101F90000D4B5B68C3F3881303FB02F30A4A5268D4
:101FA000C2F3014201325200B3FBF2F3084A13605C
:101FB000D4E7064AB2FBF3F2034B5B68C3F3881322
:101FC00003FB02F3EAE700BF003802400024F400FC
:101FD0000C0000203038000800127A00032800D9D5
:101FE000704708B50022044B33F82010034B53F818
:101FF0002000FEF71BFC08BD100000202000002080
:1020000008B5FEF7D5F900F003F8FFF797FF08BD14
:1020100030B595B0002400941D4B1A6C42F08052EC
:102020001A641B6C03F080530093009B0194194BBE
:102030001A6842F440421A601B6803F4404301935B
:10204000019B012302930393022508954FF480031B
:10205000099308230A934FF4B4730B930C95072349
:102060000D9306230E9302A8FEF7EEFDFEF7F8FB94
:102070000F230F93109511944FF4A05312934FF424
:102080008053139305210FA8FEF784FC15B030BDD3
:10209000003802400070004008B50120FFF79EFFA5
:1020A000FBE7000008B50A480A4B03604FF41653DB
:1020B000436000238360C360036183610C2242613B
:1020C000C361FFF7E3FD00B908BDFFF7E5FF00BFFF
:1020D000140100200048004008B50D480D4B036076
:1020E0001823C3610023836043610361C3600362FB
:1020F000436283620723C3624FF4007383614FF42A
:1021000082734360FFF72AF800B908BDFFF7C4FFE8
:10211000B40000200038004008B5012240210248E8
:10212000FEF784FB08BD00BF001C024008B500227A
:1021300040210248FEF77AFB08BD00BF001C0240A8
:1021400010B5C0B00B460246FF21684600F078FE8D
:10215000044600230DF800304FF0FF3382B2694689
:102160000248FFF729FE204640B010BD14010020B0
:102170000FB400B583B004A951F8040B0191FFF727
:10218000DFFF03B05DF804EB04B0704738B50446D8
:10219000FFF7CCFF104964F07F040C70322301225A
:1021A0000E48FFF7A9F890B9322301220C490B48D9
:1021B000FFF7B0FA68B90A4C2578FFF7ADFF064A79
:1021C00000231370537023706370284638BDFFF7E7
:1021D00063FFFFF761FF00BF10010020B400002083
:1021E0000C01002030B583B005460C46FFF79EFF7A
:1021F0008DF804508DF805403223022201A90748CA
:10220000FFF77AF838B9FFF787FF054B00221A70FD
:102210005A7003B030BDFFF73FFF00BFB40000208D
:102220000C01002008B500212120FFF7DBFF212051
:10223000FFF7ACFF08B1012008BD00212320FFF704
:10224000D1FF2320FFF7A2FF08B1012008BD122112
:102250002420FFF7C7FF2420FFF798FF122801D0A2
:10226000012008BD1F212020FFF7BCFF2020FFF721
:102270008DFF1F2801D0012008BD0F20FFF786FF2A
:10228000D32801D0012008BD002008BD00000000B7
:1022900038B504462720FFF779FF10F0080F54D017
:1022A00010F0800F01D1002038BD2920FFF76EFF0C
:1022B00005462820FFF76AFF40EA052000B200F03B
:1022C0009FFA0022244B00F001FB21A3D3E9002355
:1022D00000F0FCFA00F00CFD00F05AFD20802B20ED
:1022E000FFF754FF05462A20FFF750FF40EA05207C
:1022F00000B200F085FA0022174B00F0E7FA14A3B1
:10230000D3E9002300F0E2FA00F0F2FC00F040FD17
:1023100060802D20FFF73AFF05462C20FFF736FF9F
:1023200040EA052000B200F06BFA00220A4B00F0F0
:10233000CDFA07A3D3E9002300F0C8FA00F0D8FCD7
:1023400000F026FDA080012038BD002038BD00BF70
:10235000FCA9F1D24D62503F0080214010B50446E7
:10236000B0F900100848FFF703FFB4F9021007485E
:10237000FFF7FEFEB4F904100548FFF7F9FE054823
:10238000FFF7F6FE10BD00BF403800084C380008CB
:10239000583800086438000808B5FEF709F8FFF758
:1023A00037FEFFF77FFEFFF797FEFFF73BFF30B1E9
:1023B000FFF772FE03E04FF4FA70FEF721F80448CD
:1023C000FFF766FF0028F6D00148FFF7C7FFF2E7E6
:1023D00054010020FEE700000268354B9A4200D00D
:1023E000704770B58AB00024009403F500331A6B6F
:1023F00042F008021A631A6B02F008020092009A77
:1024000001941A6B42F002021A631A6B02F0020284
:102410000192019A02941A6B42F002021A631A6B3B
:1024200002F002020292029A03941A6B42F08002B6
:102430001A631A6B02F080020392039A04941A6CD6
:1024400042F480421A641B6C03F480430493049B9F
:102450000823059302230693079403230893052575
:10246000099505A91348FEF751F84FF480430593E9
:102470000995114E05A93046FEF748F84FF4004380
:102480000593099505A93046FEF740F840250595C6
:102490000126069607940894084C05A92046FEF7E5
:1024A00035F8324629462046FEF7C0F90AB070BD1D
:1024B00000380040000C024000040240001C0240B2
:1024C00030B589B0002200921B4B196B41F002011C
:1024D0001963196B01F00201009100990192196BC7
:1024E00041F002011963196B01F002010191019998
:1024F00002921A6C42F480221A641B6C03F480234B
:102500000293029B4FF4006303930223049301237D
:1025100005930323069307250795084C03A9204636
:10252000FDF7F4FF4FF480630393079503A920465A
:10253000FDF7ECFF09B030BD003802400004024056
:102540007047FEE7FEE7FEE7FEE77047704770471B
:1025500008B5FDF747FF08BD7047704781F000419F
:1025600002E000BF83F0004330B54FEA41044FEA78
:10257000430594EA050F08BF90EA020F1FBF54EA13
:10258000000C55EA020C7FEA645C7FEA655C00F0AF
:10259000E2804FEA5454D4EB5555B8BF6D420CDD80
:1025A0002C4480EA020281EA030382EA000083EA03
:1025B000010180EA020281EA0303362D88BF30BDA3
:1025C00011F0004F4FEA01314FF4801C4CEA1131F9
:1025D00002D0404261EB410113F0004F4FEA033358
:1025E0004CEA133302D0524263EB430394EA050FE3
:1025F00000F0A780A4F10104D5F1200E0DDB02FA52
:102600000EFC22FA05F2801841F1000103FA0EF2E5
:10261000801843FA05F359410EE0A5F120050EF1AB
:10262000200E012A03FA0EFC28BF4CF0020C43FADC
:1026300005F3C01851EBE37101F0004507D54FF0E9
:10264000000EDCF1000C7EEB00006EEB0101B1F539
:10265000801F1BD3B1F5001F0CD349085FEA30007F
:102660004FEA3C0C04F101044FEA445212F5800F8A
:1026700080F09A80BCF1004F08BF5FEA500C50F127
:10268000000041EB045141EA050130BD5FEA4C0C0A
:10269000404141EB010111F4801FA4F10104E9D193
:1026A00091F0000F04BF01460020B1FA81F308BF8A
:1026B0002033A3F10B03B3F120020CDA0C3208DD56
:1026C00002F1140CC2F10C0201FA0CF021FA02F131
:1026D0000CE002F11402D8BFC2F1200C01FA02F1A1
:1026E00020FA0CFCDCBF41EA0C019040E41AA2BFC6
:1026F00001EB0451294330BD6FEA04041F3C1CDA8E
:102700000C340EDC04F11404C4F1200220FA04F0AD
:1027100001FA02F340EA030021FA04F345EA030157
:1027200030BDC4F10C04C4F1200220FA02F001FA19
:1027300004F340EA0300294630BD21FA04F029469B
:1027400030BD94F0000F83F4801306BF81F4801134
:102750000134013D4EE77FEA645C18BF7FEA655CA7
:1027600029D094EA050F08BF90EA020F05D054EA79
:10277000000C04BF1946104630BD91EA030F1EBF7E
:102780000021002030BD5FEA545C05D14000494182
:1027900028BF41F0004130BD14F580043CBF01F575
:1027A000801130BD01F0004545F0FE4141F470015B
:1027B0004FF0000030BD7FEA645C1ABF1946104636
:1027C0007FEA655C1CBF0B46024650EA013406BF37
:1027D00052EA033591EA030F41F4002130BD00BFF6
:1027E00090F0000F04BF0021704730B54FF48064B3
:1027F00004F132044FF000054FF0000150E700BF34
:1028000090F0000F04BF0021704730B54FF4806492
:1028100004F1320410F0004548BF40424FF000017F
:102820003EE700BF42004FEAE2014FEA31014FEAC2
:1028300002701FBF12F07F4393F07F4F81F0605111
:10284000704792F0000F14BF93F07F4F704730B580
:102850004FF4607401F0004521F0004120E700BF13
:1028600050EA010208BF704730B54FF000050AE09A
:1028700050EA010208BF704730B511F0004502D59B
:10288000404261EB41014FF4806404F132045FEA9D
:10289000915C3FF4DCAE4FF003025FEADC0C18BF42
:1028A00003325FEADC0C18BF033202EBDC02C2F138
:1028B000200300FA03FC20FA02F001FA03FE40EACA
:1028C0000E0021FA02F11444C1E600BF70B54FF0CA
:1028D000FF0C4CF4E06C1CEA11541DBF1CEA1355AC
:1028E00094EA0C0F95EA0C0F00F0DEF82C4481EA14
:1028F000030621EA4C5123EA4C5350EA013518BF34
:1029000052EA033541F4801143F4801338D0A0FB20
:1029100002CE4FF00005E1FB02E506F00042E0FBCD
:1029200003E54FF00006E1FB03569CF0000F18BFD3
:102930004EF0010EA4F1FF04B6F5007F64F540747B
:1029400004D25FEA4E0E6D4146EB060642EAC6210E
:1029500041EA55514FEAC52040EA5E504FEACE2E7B
:10296000B4F1FD0C88BFBCF5E06F1ED8BEF1004F7E
:1029700008BF5FEA500E50F1000041EB045170BDFA
:1029800006F0004646EA010140EA020081EA03013E
:10299000B4EB5C04C2BFD4EB0C0541EA045170BD3A
:1029A00041F480114FF0000E013C00F3AB8014F1B4
:1029B000360FDEBF002001F0004170BDC4F10004FD
:1029C000203C35DA0C341BDC04F11404C4F120057E
:1029D00000FA05F320FA04F001FA05F240EA0200D9
:1029E00001F0004221F0004110EBD37021FA04F60F
:1029F00042EB06015EEA430E08BF20EAD37070BDC9
:102A0000C4F10C04C4F1200500FA04F320FA05F027
:102A100001FA04F240EA020001F0004110EBD37029
:102A200041F100015EEA430E08BF20EAD37070BD99
:102A3000C4F1200500FA05F24EEA020E20FA04F372
:102A400001FA05F243EA020321FA04F001F0004121
:102A500021FA04F220EA020000EBD3705EEA430E92
:102A600008BF20EAD37070BD94F0000F0FD101F0C1
:102A70000046400041EB010111F4801F08BF013CFA
:102A8000F7D041EA060195F0000F18BF704703F038
:102A90000046520043EB030313F4801F08BF013DBF
:102AA000F7D043EA0603704794EA0C0F0CEA13557B
:102AB00018BF95EA0C0F0CD050EA410618BF52EA35
:102AC0004306D1D181EA030101F000414FF000003B
:102AD00070BD50EA410606BF1046194652EA430649
:102AE00019D094EA0C0F02D150EA013613D195EABD
:102AF0000C0F05D152EA03361CBF104619460AD105
:102B000081EA030101F0004141F0FE4141F470010E
:102B10004FF0000070BD41F0FE4141F4780170BDFE
:102B200070B54FF0FF0C4CF4E06C1CEA11541DBF63
:102B30001CEA135594EA0C0F95EA0C0F00F0A7F865
:102B4000A4EB050481EA030E52EA03354FEA013192
:102B500000F088804FEA03334FF0805545EA1313A5
:102B600043EA12634FEA022245EA111545EA10656D
:102B70004FEA00260EF000419D4208BF964244F104
:102B8000FD0404F5407402D25B084FEA3202B61A23
:102B900065EB03055B084FEA32024FF480104FF4F7
:102BA000002CB6EB020E75EB030E22BFB61A75466B
:102BB00040EA0C005B084FEA3202B6EB020E75EBFE
:102BC000030E22BFB61A754640EA5C005B084FEA66
:102BD0003202B6EB020E75EB030E22BFB61A754633
:102BE00040EA9C005B084FEA3202B6EB020E75EB3E
:102BF000030E22BFB61A754640EADC0055EA060EFF
:102C000018D04FEA051545EA16754FEA06164FEA41
:102C1000C30343EA52734FEAC2025FEA1C1CC0D1ED
:102C200011F4801F0BD141EA00014FF000004FF07A
:102C3000004CB6E711F4801F04BF01430020B4F13B
:102C4000FD0C88BFBCF5E06F3FF6AFAEB5EB030CF3
:102C500004BFB6EB020C5FEA500C50F1000041EBF0
:102C6000045170BD0EF0004E4EEA113114EB5C04BD
:102C7000C2BFD4EB0C0541EA045170BD41F4801190
:102C80004FF0000E013C90E645EA060E8DE60CEA98
:102C9000135594EA0C0F08BF95EA0C0F3FF43BAFB5
:102CA00094EA0C0F0AD150EA01347FF434AF95EA6C
:102CB0000C0F7FF425AF104619462CE795EA0C0F50
:102CC00006D152EA03353FF4FDAE1046194622E71D
:102CD00050EA410618BF52EA43067FF4C5AE50EAF7
:102CE00041047FF40DAF52EA43057FF4EBAE12E7E7
:102CF0004FEA4102B2F1E04324BFB3F5001CDCF11E
:102D0000FE5C0DD901F0004C4FEAC0024CEA507055
:102D1000B2F1004F40EB830008BF20F00100704784
:102D200011F0804F21D113F13872BCBF01F0004087
:102D3000704741F480114FEA5252C2F11802C2F1B9
:102D4000200C10FA0CF320FA02F018BF40F001003A
:102D50004FEAC1234FEAD32303FA0CFC40EA0C00EC
:102D600023FA02F34FEA4303CCE77FEA625307D129
:102D700050EA01331EBF4FF0FE4040F44000704760
:102D800001F0004040F0FE4040F40000704700BFFA
:102D90004FEA4002B2F1FE4F0FD34FF09E03B3EB68
:102DA00012620DD94FEA002343F0004310F0004FA8
:102DB00023FA02F018BF404270474FF000007047FE
:102DC00012F1610F01D1420205D110F0004008BF9D
:102DD0006FF0004070474FF000007047014B1868DB
:102DE000704700BF3000002030B5141E05469BB070
:102DF000184605DA8B232B604FF0FF301BB030BD37
:102E00004FF40273ADF80C3014BF04F1FF332346C6
:102E1000029305934FF6FF7300910491ADF80E30C5
:102E200002461E9B6946284600F074F8431CBCBF4E
:102E30008B232B60002CE1D0009B00221A70DDE771
:102E400007B5009313460A46014603480068FFF79A
:102E5000CBFF03B05DF804FB300000202DE9F04704
:102E60008E689E4282460C469146984635D88A899D
:102E700012F4906F31D0256809696F1A65690223D1
:102E800005EB450595FBF3F508F101033B449D4235
:102E900038BF1D46530531D5294600F08DFB064647
:102EA00050B90C23CAF80030A38943F04003A38132
:102EB0004FF0FF30BDE8F0873A46216900F008FB8B
:102EC000A38923F4906343F08003A38126616561A5
:102ED0003E44ED1B2660A5604646464528BF464653
:102EE00032464946206800F0FEFAA3689B1BA360A7
:102EF00023681E4426600020BDE8F0872A4600F0C3
:102F0000B9FB06460028E1D12169504600F006FBD6
:102F1000C7E700002DE9F04F9DB0804603938B89F1
:102F20001C060D4616460FD50B696BB9402100F003
:102F300043FB2860286128B90C23C8F800304FF003
:102F4000FF30C5E040236B610023099320238DF8F7
:102F5000293030238DF82A304FF0010B37463C469C
:102F600014F8013B002B3CD1B7EB060A0BD05346BB
:102F7000324629464046FFF771FF013000F0A3803A
:102F8000099B534409933B78002B00F09C8000235D
:102F90004FF0FF3204930793059206938DF8533058
:102FA0001A9305222178504800F042FA671C049BCE
:102FB000D8B9D90644BF20228DF853201A0744BF40
:102FC0002B228DF8532022782A2A16D0079A002126
:102FD0000A20274601343B78303B092B51D9C9B12F
:102FE00011E0252BC0D02746B9E73F4A801A0BFADB
:102FF00000F0184304903C46D3E7039A111D126871
:103000000391002A01DB079204E0524243F00203DD
:10301000079204933B782E2B0ED17B782A2B07F155
:10302000010132D1039B1A1D1B680392002BB8BF0C
:103030004FF0FF33023705932C4C3978032220469A
:1030400000F0F6F938B14023001B03FA00F0049BAE
:10305000034304930137397825488DF82810062258
:103060007E1C00F0E5F9002835D0224BFBB9039B0C
:10307000073323F0070308330393099B4B44099359
:103080006CE700FB02320121A3E7002305931846F9
:103090000A240F4601313A78303A092A03D9002B25
:1030A000CAD00590C8E704FB00200123F1E703AB79
:1030B00000932A46104B04A94046AFF30080B0F1BC
:1030C000FF3F8146D9D1AB895B063FF538AF099800
:1030D0001DB0BDE8F08F03AB00932A46064B04A950
:1030E000404600F081F8EAE7683800086E380008CA
:1030F00072380008000000005D2E00082DE9F0473E
:1031000091461F468A680B69DDF820809342B8BF5C
:103110001346C9F8003091F8432006460C4612B118
:103120000133C9F800302368990642BFD9F800304E
:103130000233C9F80030256815F0060507D104F1FF
:10314000190AE368D9F800209B1A9D4229DB94F8FC
:1031500043302268003318BF012392062ED404F1B5
:10316000430239463046C047013021D02368E56824
:10317000D9F8002003F00603042B08BFAD1AA3689A
:1031800022690CBF25EAE57500259342C4BF9B1A4E
:10319000ED184FF000091A344D451BD10020BDE851
:1031A000F0870123524639463046C047013003D1EB
:1031B0004FF0FF30BDE8F0870135C2E7E1185A1C37
:1031C000302081F84300224494F8451082F84310DF
:1031D0000233C4E70123224639463046C047013056
:1031E000E6D009F10109D7E72DE9F04317460A7E39
:1031F00085B06E2A984606460C460C9B01F1430E9C
:1032000000F0BC801AD8632A2ED00AD8002A00F019
:10321000C880582A00F08A8004F1420584F84220D0
:103220002AE0642A01D0692AF6D121681A6811F0CF
:10323000800F23D0111D1960136827E0732A00F056
:10324000B48008D86F2A2AD0702AE5D10A6842F0E3
:1032500020020A6003E0752A21D0782ADCD1782286
:1032600084F845206E4964E01A6801F14205111D99
:103270001960136884F842300123A3E011F0400F75
:1032800002F104011960D7D0B2F90030002B03DA43
:103290002D225B4284F8432062490A2217E020680D
:1032A000196810F0800F03D0081D18600B6806E045
:1032B00010F0400F01F104001860F7D00B88594955
:1032C0006F2A14BF0A220822002084F84300656890
:1032D000A560002DC0F29C80206820F004002060D2
:1032E000002B3FD1002D40F095807546082A0BD168
:1032F0002368DA0708D5236962689A42DEBF302363
:1033000005F8013C05F1FF35AEEB05032361CDF86F
:1033100000803B4603AA21463046FFF7EFFE01300E
:1033200055D14FF0FF3005B0BDE8F08381F845205E
:103330003C492268186812F0800F00F104051D60F6
:1033400001D0036802E05506FBD50388D00744BFCF
:1033500042F0200222601BB9226822F02002226083
:103360001022B1E77546B3FBF2F002FB1033CB5CE1
:1033700005F8013D03460028F5D1B7E708681A684B
:10338000496910F0800F04D0101D1860136819608F
:1033900007E010F0400F02F1040018601368F6D047
:1033A0001980002323617546B1E71A68111D196061
:1033B000156862680021284600F03AF808B1401B01
:1033C000606063682361002384F843309FE72369CA
:1033D0002A4639463046C0470130A2D023689B07B1
:1033E00007D5002504F11909E368039A9B1A9D4249
:1033F00005DBE068039B9842B8BF184693E70123BA
:103400004A4639463046C04701308AD00135EBE79D
:10341000002BA7D10B7884F8423004F1420565E710
:103420008A38000879380008000000000000000019
:1034300001F0FF01102A2BDB10F0070F08D010F865
:10344000013B013A8B422DD010F0070F42B3F6D169
:10345000F0B441EA012141EA014122F007047FF082
:1034600000070023F0E80256083C85EA010586EAD9
:10347000010685FA47F5A3FA87F586FA47F6A5FA15
:1034800087F68EB9EED1F0BC01F0FF0102F0070221
:1034900032B110F8013B013A83EA010313B1F8D1CC
:1034A0000020704701387047002D06BF35460338AD
:1034B000073815F0010F07D1013015F4807F02BFE6
:1034C000013015F4C03F0130F0BC0138704700BF37
:1034D00010B5431E0A44914200D110BD11F8014BB2
:1034E00003F8014FF7E7884210B501EB020303D858
:1034F000421E99420CD110BD9842F9D28118D21ABD
:10350000D34200D110BD13F8014D01F8014DF7E78A
:1035100011F8014B02F8014FEBE7000038B5054602
:10352000002945D051F8043C0C1F002BB8BFE4180B
:1035300000F0D6F81F4A1368104633B96360146070
:103540002846BDE8384000F0CCB8A3420CD9216829
:103550006218934204BF1A685B68636004BF521824
:1035600022600460ECE713465A680AB1A242FAD915
:1035700019685818A0420BD120680144581882429B
:103580001960DDD1106852685A6001441960D7E7AC
:1035900002D90C232B60D3E7206821188A4204BF8C
:1035A00011685268626004BF091821605C60C7E757
:1035B00038BD00BFA400002070B5CD1C25F0030568
:1035C00008350C2D38BF0C25002D064601DBA9421D
:1035D00003D90C233360002070BD00F081F8234A2A
:1035E0001468214691B9224C23681BB9304600F07B
:1035F00067F820602946304600F062F8431C26D167
:103600000C233360304600F06CF8E4E70B685B1B7A
:103610001AD40B2B0FD90B60CD50CC18304600F0CC
:1036200060F804F10B00231D20F00700C31A1BD023
:103630005A42E25070BD8C420DBF63684B686360B4
:10364000136018BF0C46E9E70C464968CAE7C41C7A
:1036500024F00304A04205D0211A304600F030F8CF
:103660000130CDD02560D9E770BD00BFA400002097
:10367000A8000020F8B5074614460E4621B91146A9
:10368000BDE8F840FFF798BF22B9FFF747FF25468E
:103690002846F8BD00F026F884420FD92146384666
:1036A000FFF78AFF05460028F2D031462246FFF791
:1036B0000FFF31463846FFF731FFE9E73546E7E7C8
:1036C00038B5064C0023054608462360FEF7E0FBAC
:1036D000431C02D1236803B12B6038BDB000002029
:1036E0007047704751F8040C0028A0F10400BCBFDB
:1036F0000B58C018704700002E2E2F737973746515
:103700006D2F5372632F73746D333266342D68617D
:103710006C2F73746D3332663478785F68616C5FD8
:10372000636F727465782E63000000002E2E2F7375
:10373000797374656D2F5372632F73746D333266B2
:10374000342D68616C2F73746D3332663478785F12
:1037500068616C5F6770696F2E6300000000000095
:103760000102030401020304060708092E2E2F7329
:10377000797374656D2F5372632F73746D33326672
:10378000342D68616C2F73746D3332663478785FD2
:1037900068616C5F7263632E630000002E2E2F73CE
:1037A000797374656D2F5372632F73746D33326642
:1037B000342D68616C2F73746D3332663478785FA2
:1037C00068616C5F7263635F65782E630000000060
:1037D0002E2E2F73797374656D2F5372632F73744C
:1037E0006D333266342D68616C2F73746D333266BD
:1037F0003478785F68616C5F7370692E63000000D5
:103800002E2E2F73797374656D2F5372632F73741B
:103810006D333266342D68616C2F73746D3332668C
:103820003478785F68616C5F756172742E63000034
:103830000000000000000000010203040607080960
:10384000582049733A2025686420000059204973A4
:103850003A202568642000005A2049733A202568E0
:10386000642000000A000000232D302B2000686C2B
:103870004C00656667454647003031323334353693
:1038800037383941424344454600303132333435CC
:0B3890003637383961626364656600FA
:10389C0078563412A0000020000000000024F40030
:1038AC004000000010000000200000000800000094
:1038BC0000180240000C0240000C0240002802409C
:1038CC003400002000000000000000000000000098
:1038DC0000000000000000000000000000000000DC
:1038EC0000000000000000000000000000000000CC
:1038FC0000000000000000000000000000000000BC
:10390C0000000000000000000000000000000000AB
:10391C00000000000000000000000000000000009B
:08392C000000000032547698FF
:04000005080001B539
:00000001FF
