:020000040800F2
:1000000000000120E5020008712A0008732A000898
:10001000752A0008772A0008792A000800000000E5
:100020000000000000000000000000007B2A000823
:100030007D2A0008000000007F2A0008812A0008AD
:100040005503000855030008550300085503000830
:100050005503000855030008550300085503000820
:100060005503000855030008550300085503000810
:100070005503000855030008892A0008992A00083A
:1000800055030008550300085503000855030008F0
:1000900055030008550300085503000855030008E0
:1000A00055030008550300085503000855030008D0
:1000B00055030008550300085503000855030008C0
:1000C00055030008550300085503000855030008B0
:1000D000A92A000855030008550300085503000825
:1000E0005503000855030008550300085503000890
:1000F0005503000855030008550300085503000880
:10010000550300085503000855030008550300086F
:10011000550300085503000855030008550300085F
:10012000550300085503000855030008550300084F
:10013000550300085503000855030008550300083F
:10014000550300085503000855030008550300082F
:10015000550300085503000855030008550300081F
:10016000550300085503000855030008550300080F
:10017000550300085503000855030008000000005F
:1001800055030008550300085503000855030008EF
:1001900055030008550300085503000855030008DF
:1001A00055030008550300085503000855030008CF
:1001B0005503000800B583B002F0EEF8384B394A19
:1001C0001360394A1360394906E011681960043335
:1001D00004329842F9D82146354B994205D20A6833
:1001E0004B6801F10C048868F3E72E4B1A68314B19
:1001F0009A4200D0FEE72C4B1A682F4B9A42F9D155
:10020000274B2E4A13602E4A13602E4B05E0002028
:10021000106004329342FAD80B462B4A934204D220
:10022000194651F8082B5B68F4E7244B1B6813B997
:10023000234B1B6803B1FEE702F0ECF9694601A805
:1002400002F0A2F8214B224CE41AA4100025AC4283
:1002500014DC204B204CE41AA4100025AC4213DC23
:100260000099019802F09AFA05461C4B1C4CE41ABE
:10027000A410002C0EDC284602F063F8134B53F850
:10028000253098470135E2E7124B53F8253098475F
:100290000135E3E7013C114B53F824309847E8E778
:1002A000BABADECA000000209800002058030008F7
:1002B0007003000878563412325476989C0000205F
:1002C0001C0200207003000880030008800300085F
:1002D00080030008800300088003000880030008F2
:1002E0008003000808B5FFF765FF00BEFEE71EF0BB
:1002F000040F0CBFEFF30880EFF309807146124A38
:10030000104700BEFEE700BEFEE71EF0040F0CBF64
:10031000EFF30880EFF3098071460C4A104700BEE6
:10032000FEE71EF0040F0CBFEFF30880EFF3098027
:100330007146074A104700BEFEE700BEFEE700BE5A
:10034000FEE700BEFEE77047030300081F03000836
:080350003703000800BEFEE7C0
:10035800A8350008000000209C000020A8350008EF
:1003680000000010000000109C0000202002002067
:0803780000000010000000105D
:100380007047000010B50446074B1868074BA3FBE5
:100390000030800900F0ACF8002221464FF0FF3019
:1003A00000F04CF8002010BD0C000020D34D62106E
:1003B00008B50B4B1A6842F400721A601A6842F4CE
:1003C00080621A601A6842F480721A60032000F09A
:1003D00017F80020FFF7D6FFFFF7D2FF002008BD77
:1003E000003C0240024A136801331360704700BFAB
:1003F00074010020014B1868704700BF7401002091
:1004000010B50446C31E042B0FD80A4AD36823F440
:10041000E0631B041B0C240204F4E064234343F058
:10042000BF6343F40033D36010BDA421024802F03F
:100430001BFAEAE700ED00E0D833000870B5054686
:100440000C4616460F2A24D80F2C27D81A4BDB68E7
:10045000C3F30223C3F10702042A28BF0422191D93
:10046000062920D9033B012101FA02F2013A144086
:100470009C4001FA03F3013B33401C43002D14DB85
:100480002401E4B205F1604505F5614585F80043B6
:1004900070BDBC21094802F0E7F9D5E7BD21074846
:1004A00002F0E2F9D2E70023DDE705F00F052401B1
:1004B000E4B2034B5C5570BD00ED00E0D83300089A
:1004C00014ED00E010B5041E09DB620904F01F04FE
:1004D000012303FA04F4044B43F8224010BDD02159
:1004E000024802F0C1F9F0E700E100E0D83300086B
:1004F0000138B0F1807F0AD2064B5860F021064ADD
:1005000082F823100020986007221A6070470120AB
:10051000704700BF10E000E000ED00E030B4056877
:100520002C6824F480242C60046863608368402B6A
:1005300005D0036899600368DA6030BC70470368CF
:100540009A600368D960F8E70268D3B2103B0B49A0
:10055000A1FB03131B090A49C95CC165032B06D81B
:1005600022F47F7222F003028265806D704722F4CC
:100570007F7222F0030204328265F6E7ABAAAAAAD0
:100580003C340008836A8269C2B9012B0AD01BB1CE
:10059000022B0DD000207047C36A13F0807F32D148
:1005A00000207047C36AB3F1C07F2ED0002070478F
:1005B000C36A13F0807F2AD100207047B2F5005F34
:1005C00005D0022B2BD9032B15D000207047032B0D
:1005D00003D8DFE803F01E041E0A00207047C36A38
:1005E00013F0807F17D100207047C36AB3F1C07F3A
:1005F00013D000207047C36A13F0807F01D0012020
:10060000704700207047012070470120704701208B
:10061000704701207047012070470120704701207A
:100620007047000070B50446FFF7E4FE002C00F0B0
:100630002E8105462368974A934231D0183293425F
:100640002ED0183293422BD01832934228D0183231
:10065000934225D01832934222D0183293421FD0B1
:10066000183293421CD002F55672934218D01832B9
:10067000934215D01832934212D0183293420FD0C1
:10068000183293420CD01832934209D01832934258
:1006900006D01832934203D0C9217F4802F0E4F813
:1006A0006368C3B1B3F1007F15D0B3F1806F12D08E
:1006B000B3F1C06F0FD0B3F1006F0CD0B3F1206F66
:1006C00009D0B3F1406F06D0B3F1606F03D0CA21F7
:1006D000714802F0C9F8A3683BB1402B05D0802BCC
:1006E00003D0CB216C4802F0BFF8E368B3F5007F7C
:1006F00001D0002B7DD12369B3F5806F01D0002B91
:100700007CD163694BB1B3F5006F06D0B3F5805F60
:1007100003D0CE21604802F0A7F8A3694BB1B3F52E
:10072000005F06D0B3F5804F03D0CF215A4802F0C6
:100730009BF8E36943B1B3F5807F05D0202B03D04C
:10074000D021554802F090F8236A63B1B3F5803F99
:1007500009D0B3F5003F06D0B3F5403F03D0D12117
:100760004D4802F081F8636A2BB1042B03D0D221EB
:10077000494802F079F8636A03B3A36A032B42D8AD
:10078000E36A63B1B3F5000F09D0B3F1807F06D0FF
:10079000B3F1C07F03D0D8213F4802F065F8236B46
:1007A00063B1B3F5001F09D0B3F5800F06D0B3F5E0
:1007B000C00F03D0D921384802F056F8002384F83E
:1007C0003430022384F835302268136823F00103A3
:1007D000136023681A6812F0010F19D0FFF70AFEA0
:1007E000401B0528F5D920236365032084F83500D4
:1007F00070BDCC21284802F037F87CE7CD2126488F
:1008000002F032F87DE7D721234802F02DF8B7E750
:100810001A68224911406268A0680243E0680243F6
:100820002069024360690243A0690243E069024310
:10083000206A02430A43616A042916D01A602668B6
:10084000756925F00705636A1D43042B12D0756195
:100850002046FFF779FEE26D3F239340836000203E
:100860006065012384F8353070BDE16A206B014377
:100870000A43E3E7A36A1D432046FFF783FE0028EF
:10088000E5D040236365012084F8350070BD012068
:1008900070BD00BF106002400C3400083F8010F0B3
:1008A0002DE9F04104460F4690461D46866D5A1EBE
:1008B0004FF6FE739A4211D894F83430012B3BD096
:1008C000012384F8343094F83530DBB2012B0BD09F
:1008D000002384F834300220BDE8F08140F2CD11CD
:1008E000174801F0C1FFE7E7022384F83530002301
:1008F00063652B46424639462046FFF70FFEE26D00
:100900003F239340B3602268136843F016031360DB
:100910002268536943F080035361236C23B122683A
:10092000136843F0080313602268136843F001035F
:1009300013600020BDE8F0810220BDE8F08100BF17
:100940000C34000890F83530DBB2022B03D0802342
:10095000436501207047052380F83530026813682D
:1009600023F001031360002070470000F0B583B04E
:10097000044600230193724B1D68724BA3FB05359F
:10098000AD0A876D3E68C26D082393401E4210D0A9
:1009900003681A6812F0040F0BD01A6822F00402E0
:1009A0001A60C26D08239340BB60436D43F001039E
:1009B0004365E26D644B93401E4209D02268526940
:1009C00012F0800F04D0BB60636D43F002036365D7
:1009D000E26D5E4B93401E4209D02268126812F00D
:1009E000020F04D0BB60636D43F004036365E26DE6
:1009F000102393401E4224D02268126812F0080F80
:100A00001FD0BB6023681A6812F4802F0DD01B68BA
:100A100013F4002F04D1236C9BB12046984710E0BB
:100A2000A36C73B1204698470BE01A6812F4807FDC
:100A300003D11A6822F008021A60236C0BB1204619
:100A40009847E26D202393401E4255D022681268D9
:100A500012F0100F50D0BB6094F83530DBB2052B8C
:100A60000ED023681A6812F4802F33D01B6813F459
:100A7000002F2AD1636C002B3ED0204698473BE0E4
:100A80002268136823F0160313602268536923F069
:100A900080035361236CA3B12268136823F0080319
:100AA0001360E26D3F239340BB60002384F8343031
:100AB000012384F83530236D002B3FD02046984722
:100AC0003CE0A36C002BE7D1EBE7E36BA3B120463E
:100AD000984711E01A6812F4807F09D11A6822F051
:100AE00010021A60002384F83430012384F8353072
:100AF000E36B0BB120469847636DFBB1636D13F058
:100B0000010F17D0052384F835302268136823F0CD
:100B100001031360019B013301939D4204D32368B9
:100B20001B6813F0010FF5D1002384F83430012342
:100B300084F83530E36C0BB12046984703B0F0BD24
:100B40000C000020B5814E1B0100800004008000D5
:100B50002DE9F04782B080460F46BE4B98422BD01D
:100B600003F58063984227D003F58063984223D031
:100B700003F5806398421FD003F5806398421BD031
:100B800003F58063984217D003F58063984213D031
:100B900003F5806398420FD003F5806398420BD031
:100BA00003F58063984207D003F58063984203D031
:100BB000C521A94801F058FE3B8853B37B68012B3F
:100BC00022D9112B20D0022B1ED0122B1CD0A34ACD
:100BD000934219D002F58012934215D002F580128B
:100BE000934211D0A2F5F81293420DD002F5801273
:100BF000934209D002F58012934205D0032B03D013
:100C0000C721954801F030FEBB68022B06D80025AD
:100C10007CE0C621904801F027FECFE7C8218E482E
:100C200001F022FEF3E73B690BB3092B1FD0012B28
:100C30001DD0022B1BD0032B19D0042B17D0052B52
:100C400015D0062B13D0072B11D0082B0FD00A2B51
:100C50000DD00B2B0BD00C2B09D00D2B07D00F2B4D
:100C600005D00E2B03D0D9217B4801F0FDFDE9080A
:100C7000083158F8213005F0070292000F2090400B
:100C800023EA0003386900FA02F2134348F82130DE
:100C90004DE0EC21704801F0E7FD64E0092100E03F
:100CA0000021A1400A4302336D4941F823206D4BD6
:100CB0001A686FEA090302EA0301786810F4803FBA
:100CC00001D049EA0201674A1160526803EA020151
:100CD000786810F4003F01D049EA0201614A51608E
:100CE000926803EA0201786810F4801F01D049EA93
:100CF00002015C4A9160D2681340796811F4001FC8
:100D000001D049EA0203574AD36001350F2D00F2A2
:100D10009D800124AC403B6804EA03094C45F4D1B2
:100D20007B68022B3FF47FAF122B3FF47CAFD8F8E7
:100D300000304FEA450A032606FA0AF6F643334026
:100D40007A6802F0030202FA0AF21343C8F800308C
:100D50007B685A1E012A03D9112B01D0122B16D100
:100D6000FB68032B95D8D8F808303340FA6802FAAC
:100D70000AF21343C8F80830D8F8043023EA040410
:100D80007B68C3F30013AB401C43C8F80440D8F899
:100D90000C301E40BB6803FA0AF31E43C8F80C600F
:100DA0007B6813F0805FB0D0002301932E4B5A6C08
:100DB00042F480425A645B6C03F480430193019BCC
:100DC000AB08991C264A52F8212005F003018C003B
:100DD0000F21A14022EA01021E4880453FF460AF86
:100DE0002249884522D001F58061884520D001F54F
:100DF000806188451ED001F5806188451CD001F5D1
:100E0000806188451AD001F58061884518D001F5C8
:100E10008061884516D001F58061884514D001F5C0
:100E2000806188453FF43AAF0A213AE7012138E76B
:100E3000022136E7032134E7042132E7052130E7B8
:100E400006212EE707212CE708212AE702B0BDE89A
:100E5000F08700BF00000240443400080000111079
:100E600000380140003C01400038024000040240CC
:100E700070B5064615460C4651B1012D04D94FF404
:100E8000D971074801F0F0FC45B92404B46170BD84
:100E900040F2B111024801F0E7FCEEE7B46170BD29
:100EA0004434000810B582B000230193234B1A6C20
:100EB00042F080521A641B6C03F080530193019B33
:100EC0004FF4803393FAA3F3B3FA83F303F184531B
:100ED00003F560339B0001221A60FFF78BFA04468A
:100EE000174B5B6813F4803F08D1FFF783FA001BB0
:100EF000B0F57A7FF4D9032002B010BD4FF400336F
:100F000093FAA3F3B3FA83F303F1845303F5603345
:100F10009B0001221A60FFF76DFA0446084B5B68DC
:100F200013F4003F07D1FFF765FA001BB0F57A7F95
:100F3000F4D90320E0E70020DEE700BF00380240DC
:100F40000070004030B583B0044603680F2B2DD8E5
:100F5000236813F0010F3CD06368012B05D9052BE2
:100F600003D0FA219F4801F07FFC9F4B9B6803F060
:100F70000C03042B24D09C4B9B6803F00C03082B20
:100F800019D02279994B1A706368002B50D0FFF763
:100F900031FA0546944B1B6813F4003F19D1FFF753
:100FA00029FA401B6428F5D90320D7E1F5218D48A3
:100FB00001F05AFCCCE78C4B5B6813F4800FE0D057
:100FC000894B1B6813F4003F03D06368002B00F0CB
:100FD000C281236813F0020F5CD0E368012B04D9AF
:100FE0004FF496717F4801F03FFC23691F2B2ED8E8
:100FF0007D4B9B6813F00C0F34D07B4B9B6803F048
:101000000C03082B29D0E368002B72D00122784B07
:101010001A60FFF7EFF90546734B1B6813F0020FD8
:1010200058D1FFF7E7F9401B0228F5D9032095E1D5
:10103000FFF7E0F905466C4B1B6813F4003FC8D07E
:10104000FFF7D8F9401B6428F5D9032086E140F268
:101050002D11644801F008FCCAE7634B5B6813F488
:10106000800FD0D1604B1B6813F0020F04D0E368EF
:10107000012B01D0012071E15B48036823F0F803E4
:101080002169F82292FAA2F2B2FA82F201FA02F28D
:1010900013430360236813F0080F4ED06369012BDC
:1010A00004D940F26D114F4801F0DEFB636993B340
:1010B0000122504B1A60FFF79DF905464A4B5B6FC2
:1010C00013F0020F39D1FFF795F9401B0228F5D92B
:1010D000032043E14448036823F0F8032169F82220
:1010E00092FAA2F2B2FA82F201FA02F21343036018
:1010F000D0E700223E4B1A60FFF77CF905463A4BD9
:101100001B6813F0020FC5D0FFF774F9401B0228CB
:10111000F5D9032022E10022364B1A60FFF76AF965
:101120000546314B5B6F13F0020F06D0FFF762F9F3
:10113000401B0228F5D9032010E1236813F0040FA7
:101140005ED0A368012B06D9052B04D040F297117D
:10115000244801F089FB00230193234B1A6C42F0D1
:1011600080521A641B6C03F080530193019B224A46
:10117000136843F480731360FFF73CF905461E4B78
:101180001B6813F4807F06D1FFF734F9401B022857
:10119000F5D90320E2E0227A184B1A70A36883B1D4
:1011A000FFF728F90546104B1B6F13F0020F27D1EC
:1011B000FFF720F9401B41F288339842F3D903200E
:1011C000CCE0FFF717F90546074B1B6F13F0020F32
:1011D00016D0FFF70FF9401B41F288339842F3D93C
:1011E0000320BBE08434000800380240023802408B
:1011F00000004742800E47420070004070380240B5
:10120000A369022B1FD8A369002B00F0A680554AC2
:10121000926802F00C02082A00F0A280022B18D07B
:101220000022514B1A60FFF7E5F804464D4B1B684E
:1012300013F0007F00F08D80FFF7DCF8001B022820
:10124000F4D903208AE04FF4E671484801F00CFB22
:10125000D9E7E3693BB1B3F5800F04D040F2D51173
:10126000424801F001FB236A3F2B28D8636A323BD6
:10127000B3F5BF7F29D8A36A022B0AD0042B08D06C
:10128000062B06D0082B04D04FF4EC71374801F040
:10129000EBFAE36A043B0B2B1DD80022324B1A6099
:1012A000FFF7A8F805462F4B1B6813F0007F18D0F6
:1012B000FFF7A0F8401B0228F5D903204EE04FF4B9
:1012C000EB712A4801F0D0FAD0E740F2D711274855
:1012D00001F0CAFACFE740F2D911244801F0C4FA6C
:1012E000DBE7E369226A1343616A47F6C07292FA48
:1012F000A2F2B2FA82F201FA02F21343A26A52088F
:10130000013A4FF4403191FAA1F1B1FA81F18A40EA
:101310001343E16A4FF0706292FAA2F2B2FA82F2DB
:1013200001FA02F213430F4A536001220E4B1A6076
:10133000FFF760F804460B4B1B6813F0007F06D1E3
:10134000FFF758F8001B0228F5D9032006E000201B
:1013500004E0002002E0012000E0002003B030BDE6
:101360000120FBE700380240600047428434000857
:10137000214B9B6803F00C03042B3AD0082B01D0BF
:101380001E4870471C4B586800F03F005B6813F420
:10139000800F1ED01A4AB2FBF0F2174B586847F67E
:1013A000C073184093FAA3F3B3FA83F3D84000FB59
:1013B00002F0114B5B6803F440334FF4403292FA71
:1013C000A2F2B2FA82F2D34001335B00B0FBF3F039
:1013D00070470A4AB2FBF0F2074B586847F6C073F1
:1013E000184093FAA3F3B3FA83F3D84000FB02F05A
:1013F000DFE70348704700BF003802400024F400D4
:1014000000127A0070B504460D460368013B0E2BAE
:1014100011D80F2D15D88A4B1B6803F00F039D427E
:1014200015D9EBB2864A1370136803F00F039D427F
:101430000DD0012070BD40F23721824801F014FA2E
:10144000E7E74FF40E717F4801F00EFAE3E72368F7
:1014500013F0020F1DD0A368A3B1802B12D0902BE4
:1014600010D0A02B0ED0B02B0CD0C02B0AD0D02B7C
:1014700008D0E02B06D0F02B04D040F24F21714869
:1014800001F0F2F9704A936823F0F003A1680B436E
:101490009360236813F0010F6DD06368032B29D884
:1014A0006368012B2CD09A1E012A30D9664A126833
:1014B00012F0020F00F0C28063498A6822F0030232
:1014C00013438B60FEF796FF06466368012B25D019
:1014D000022B32D0032B3FD05B4B9B6813F00C0FD9
:1014E00049D0FEF787FF801B41F288339842F3D939
:1014F000032070BD40F25621524801F0B5F9CFE704
:10150000514A126812F4003FD6D1012070BD4E4AF4
:10151000126812F0007FCFD1012070BD4A4B9B684A
:1015200003F00C03042B26D0FEF764FF801B41F26E
:1015300088339842F2D9032070BD434B9B6803F077
:101540000C03082B17D0FEF755FF801B41F28833A0
:101550009842F2D9032070BD3B4B9B6803F00C030B
:101560000C2B08D0FEF746FF801B41F288339842CF
:10157000F2D9032070BD324B1B6803F00F039D426C
:1015800009D2EAB22E4B1A701B6803F00F039D427A
:1015900001D0012070BD236813F0040F19D0E36857
:1015A00083B1B3F5805F0DD0B3F5A05F0AD0B3F57A
:1015B000C05F07D0B3F5E05F04D04FF42D71214830
:1015C00001F052F9204A936823F4E053E1680B4399
:1015D0009360236813F0080F1AD0236983B1B3F521
:1015E000805F0DD0B3F5A05F0AD0B3F5C05F07D020
:1015F000B3F5E05F04D040F2BB21124801F034F9AA
:10160000114A936823F46043216943EAC10393605C
:10161000FFF7AEFE0C4B9B6803F0F003F02292FA4A
:10162000A2F2B2FA82F2D340084AD35CD840084B07
:1016300018600020FEF7A6FE002070BD012070BDDE
:10164000003C024084340008003802407434000832
:101650000C000020014B1868704700BF0C000020F0
:1016600008B5FFF7F7FF074B9B6803F4E0534FF40F
:10167000E05292FAA2F2B2FA82F2D340024AD35C6A
:10168000D84008BD003802407434000808B5FFF7A0
:10169000E1FF074B9B6803F460434FF4604292FA0A
:1016A000A2F2B2FA82F2D340024AD35CD84008BD1B
:1016B0000038024074340008F8B505460F46164657
:1016C0001C463BE02CB1FEF795FE069BC01A8442F7
:1016D00034D82A68536823F0E00353606B68B3F58D
:1016E000827F0BD0AB6AB3F5005F14D0012385F87D
:1016F0005130002385F850300320F8BDAB68B3F5B6
:10170000004F02D0B3F5806FECD12A68136823F044
:1017100040031360E6E72A68136823F400531B04B0
:101720001B0C13602A68136843F400531360DDE751
:101730000123B34209D0B4F1FF3FC3D12B689B68AA
:1017400037EA0303F4D00023F3E70020F8BD10B517
:1017500082B0044600920B4600228021FFF7ACFFC6
:10176000034620B1636D43F02003636503231846ED
:1017700002B010BD002800F0C48010B50446036814
:10178000614A934218D0A2F57842934214D002F5F0
:101790008062934210D002F5784293420CD002F559
:1017A000E052934208D002F58062934204D040F2A6
:1017B0000B11564801F058F863683BB1B3F5827FCE
:1017C00004D04FF48671514801F04EF8A36853B12C
:1017D000B3F5806F07D0B3F5004F04D040F20D1180
:1017E0004A4801F041F8E368B3F5006F01D0002BDF
:1017F0007BD1A369B3F5007F08D03BB1B3F5802F4F
:1018000004D040F20F11414801F02EF8E36993B182
:10181000082B10D0102B0ED0182B0CD0202B0AD058
:10182000282B08D0302B06D0382B04D04FF48871E9
:10183000364801F019F8236A33B1802B04D040F206
:101840001111324801F010F8636A33B1102B04D043
:101850004FF489712D4801F007F8636A83B9236951
:1018600033B1022B04D040F21511284800F0FCFFE0
:101870006369012B04D94FF48B71244800F0F4FF05
:101880000023A36294F85130002B34D0022384F853
:1018900051302268136823F04003136022686368A4
:1018A000A1680B43E1680B4321690B4361690B435A
:1018B000A16901F400710B43E1690B43216A0B43F9
:1018C000A16A0B4313602268638B03F00403616A0F
:1018D0000B4353602268D36923F40063D361002073
:1018E0006065012384F8513010BD4FF487710748BB
:1018F00000F0BAFF7DE784F85030204600F0B6FFD4
:10190000C4E70120704700BF00300140B434000834
:10191000F8B504460E4617461D468368ABB994F8E1
:101920005030012B00F08980012384F8503094F866
:101930005130DBB26268012B14D0B2F5827F0AD03D
:101940000220002384F85030F8BD40F2D9513C48C1
:1019500000F08AFFE3E7A268002A66D1042B01D0D9
:101960000220EEE7002E62D0002F62D0002D62D060
:1019700094F85130DBB2012B4CD000236365266311
:10198000A586E586A763A587E5872364636494F845
:101990005130DBB2042B41D0E36C2A4A1A64E36C69
:1019A000294ADA63E36C294ADA64E36C00251D6591
:1019B0002168E38F9BB2A26B0C31E06CFEF770FFE5
:1019C0002268536843F001035360A36C1D64A36C49
:1019D000DD63A36CDD64A36C1D652268E38E9BB29E
:1019E0000C32216BA06CFEF75BFF23681A6812F0C3
:1019F000400F03D11A6842F040021A60226853680F
:101A000043F0200353602268536843F0020353609D
:101A1000002096E7052384F85130AEE7E36C0C4ACA
:101A20001A64E36C0B4ADA63BCE7022089E7012001
:101A300087E7012085E7012083E70220F8BD00BF8A
:101A4000B4340008491B0008CD1B0008531B0008D4
:101A50003D1B0008751B000838B5044685681DB994
:101A60004368B3F5827F10D094F8500001285AD013
:101A7000012384F8503094F85100C0B298420CD041
:101A80000220002384F8503038BD042380F8513000
:101A900013460A46FFF73CFF38BD00293FD0002A15
:101AA0003FD0042384F8513000236365A163A287EB
:101AB000E28723646364A386E386B5F5004F28D0EC
:101AC000E36C1A4A1A64E36C194ADA63E36C194A44
:101AD000DA64E36C00221A652168E38F9BB2A26B83
:101AE0000C31E06CFEF7DCFE23681A6812F0400F40
:101AF00003D11A6842F040021A602268536843F02A
:101B0000200353602268536843F0010353600020B0
:101B1000B7E72268136823F480431360D0E70120FD
:101B2000AFE70120ADE7022038BD00BF3D1B000834
:101B3000751B0008531B00087047704708B5806B81
:101B4000FFF7FBFF08BD704708B5806BFFF7FBFF91
:101B500008BD08B5806B0268536823F00303536027
:101B6000436D43F010034365012380F8513000F0CA
:101B700075FE08BD08B5836B0268126812F4807F99
:101B80000FD119684A6822F003024A605A68B2F518
:101B9000827F0AD00022DA87012283F851205A6D11
:101BA00082B9184600F050FE08BD9A68B2F5004FA1
:101BB00002D0B2F5806FEDD119680A6822F04002B8
:101BC0000A60E7E7184600F049FE08BD38B505464B
:101BD000846BFEF70FFC2B681B6813F4807F16D113
:101BE000024664212046FFF7B2FD18B1636D43F051
:101BF000200363652268536823F0030353600023C6
:101C0000E386E387012384F85130636D1BB92046D6
:101C1000FFF792FF38BD204600F020FE38BD0000DF
:101C200010B584B0044602685168936803F041001F
:101C300001285CD013F0020F02D011F0800F5DD1AB
:101C400013F4B07F5DD011F0200F5AD013F0400F85
:101C50000FD094F85100C0B2032854D0606D40F00A
:101C60000400606500200090D068009090680090AB
:101C7000009813F0200F0CD0606D40F001006065FB
:101C80000020029090680290106820F040001060E0
:101C9000029A13F4807F09D0636D43F008036365F3
:101CA0000023039323689B680393039B636D43B3F3
:101CB0002268536823F0E0035360012384F8513015
:101CC00011F0030F27D02268536823F003035360F9
:101CD000E36C23B1124A1A65E06CFEF733FEA36C85
:101CE0007BB10F4A1A65A06CFEF72CFE09E011F0DB
:101CF000400F9FD0236C2046984702E0636C20463B
:101D0000984704B010BD00230193D36801939368F2
:101D10000193019BF5E7204600F0A0FDF1E700BF2D
:101D2000251D000808B5806B0023C387C38600F01B
:101D300095FD08BD2DE9F04704464268B64B9A422E
:101D400000F2A680E3683BB1B3F5005F04D04FF426
:101D5000EA61B24800F088FD236953B1B3F5806FA2
:101D600007D0B3F5C06F04D040F25171AB4800F01A
:101D70007BFD63694FF6F372134200D123B940F241
:101D80005271A64800F070FD2268136923F4405395
:101D9000E1680B4313612168CB6823F4164323F0F9
:101DA0000C03A2682069024360690243E0690243B0
:101DB0001343CB602268536923F44073A1690B433A
:101DC0005361E369B3F5004F68D0D4F80080944BB9
:101DD000984500F0298103F58063984500F024813F
:101DE000FFF73EFC00EB800000EB80006568AD0073
:101DF000B0FBF5F58B4FA7FB05356D092E01FFF7FD
:101E00002FFC00EB800000EB80006568AD00B0FBAC
:101E1000F5FAFFF725FC00EB800000EB8000656819
:101E2000AD00B0FBF5F5A7FB05356D094FF0640972
:101E300009FB15A52D013235A7FB05356D0905F008
:101E4000F0053544FFF70CFC00EB800000EB800050
:101E50006668B600B0FBF6F6FFF702FC00EB800008
:101E600000EB800063689B00B0FBF3F0A7FB003041
:101E7000400909FB10694FEA091909F13209A7FB6A
:101E80000937C7F343172F44C8F80870BDE8F08737
:101E900040F24F71614800F0E7FC53E7D4F800804E
:101EA00003F1804303F5104398455CD003F580634C
:101EB000984558D0FFF7D4FB00EB800000EB800082
:101EC00065686D00B0FBF5F5564FA7FB05356D094C
:101ED0002E01FFF7C5FB00EB800000EB800065687A
:101EE0006D00B0FBF5FAFFF7BBFB00EB800000EBE9
:101EF000800065686D00B0FBF5F5A7FB05356D0941
:101F00004FF0640909FB15A5ED003235A7FB053537
:101F10006D096D0005F4F8753544FFF7A1FB00EB82
:101F2000800000EB800066687600B0FBF6F6FFF7F5
:101F300097FB00EB800000EB800063685B00B0FB68
:101F4000F3F3A7FB03235B0909FB13694FEAC909F4
:101F500009F13209A7FB0937C7F342172F44C8F824
:101F60000870BDE8F087FFF791FB00EB800000EB05
:101F7000800065686D00B0FBF5F52A4FA7FB0535BD
:101F80006D092E01FFF782FB00EB800000EB800063
:101F900065686D00B0FBF5FAFFF778FB00EB800099
:101FA00000EB800065686D00B0FBF5F5A7FB05351B
:101FB0006D094FF0640909FB15A5ED003235A7FB4B
:101FC00005356D096D0005F4F8753544FFF75EFBC6
:101FD00000EB800000EB800066687600B0FBF6F650
:101FE000FFF754FB00EB800000EB800063685B00B0
:101FF000B0FBF3F3A7FB03235B0909FB13694FEA6B
:10200000C90909F13209A7FB0937C7F342172F4461
:10201000C8F80870BDE8F087A037A000E4340008D5
:10202000001001401F85EB51FFF730FB00EB8000F3
:1020300000EB80006568AD00B0FBF5F5264FA7FB0F
:1020400005356D092E01FFF721FB00EB800000EB49
:1020500080006568AD00B0FBF5FAFFF717FB00EBF9
:10206000800000EB80006568AD00B0FBF5F5A7FBD4
:1020700005356D094FF0640909FB15A52D013235B1
:10208000A7FB05356D0905F0F0053544FFF7FEFAAD
:1020900000EB800000EB80006668B600B0FBF6F64F
:1020A000FFF7F4FA00EB800000EB800063689B0010
:1020B000B0FBF3F3A7FB03235B0909FB13694FEAAA
:1020C000091909F13209A7FB0937C7F343172F4450
:1020D000C8F80870BDE8F0871F85EB512DE9F04185
:1020E00005460F4616469846069C2B681B6837EA3D
:1020F00003030CBF01230023B3421ED1B4F1FF3F01
:10210000F3D02CB1FEF776F9A0EB08008442ECD2B4
:102110002A68D36823F4D073D3602A68536923F004
:1021200001035361202385F8393085F83A300023C4
:1021300085F838300320BDE8F0810020BDE8F0814B
:10214000002800F08C8010B5044683691BB3036837
:10215000444A93420FD0A2F54C4293420BD002F571
:102160008062934207D002F54C42934203D0FE2195
:102170003D4800F079FBA36993B3B3F5807F2FD07E
:10218000B3F5007F2CD0B3F5407F29D0FF2136482E
:1021900000F06AFB24E00368324A934220D0A2F5A3
:1021A0004C4293421CD002F58062934218D002F553
:1021B0008062934214D002F58062934210D002F5FF
:1021C000444293420CD0A2F51C42934208D002F53F
:1021D0008062934204D040F20311234800F044FB94
:1021E000A3683BB1B3F5805F04D040F205111E48EF
:1021F00000F03AFBE3693BB1B3F5004F04D04FF474
:102200008371194800F030FB94F839300BB3242364
:1022100084F839302268D36823F40053D360204611
:10222000FFF788FD2268136923F490431361226845
:10223000536923F02A0353612268D36843F400539F
:10224000D3600020E063202384F8393084F83A30EA
:1022500010BD84F83830204600F0CAFBD7E70120D3
:10226000704700BF00100140E43400082DE9F04140
:1022700082B01E4690F83930DBB2202B04D0022306
:10228000184602B0BDE8F08104460D461746002905
:102290004FD0002A4FD090F83830012B01D10223C3
:1022A000EEE7012380F838300023C363212380F850
:1022B0003930FEF79FF88046A784E78410E0009647
:1022C0004346002280212046FFF708FF002834D132
:1022D00022682B88C3F3080353602369ABB9023526
:1022E000E38CA3B1013BE384A368B3F5805FE6D040
:1022F00000964346002280212046FFF7EFFEF0B90A
:1023000023682A785A600135EAE70135E8E7009644
:102310004346002240212046FFF7E0FE034608B175
:102320000323ADE7202284F83920002284F83820E6
:10233000A6E70123A4E70123A2E70323A0E70323E1
:102340009EE7FEE708B503460C4A12685AB10B4AED
:102350001068033323F003030344094A934206D869
:10236000064A136008BD0749044A1160EFE700F010
:10237000A3FB0C2303604FF0FF3008BDA00000203A
:1023800000FC00202002002001230360014B0B60B1
:10239000704700BF0400002008B500F009F8024BA8
:1023A000024A9A6008BD00BF00ED00E0000000088E
:1023B0000C4B1A6842F001021A60002199601A68F9
:1023C00022F0847222F480321A60074A5A601A6836
:1023D00022F480221A60D9604FF00062034B9A60A9
:1023E000704700BF003802401030002400ED00E0CC
:1023F000224B9B6803F00C03042B14D0082B16D03F
:102400001BB11F4A1F4B1A6002E01D4A1D4B1A6088
:102410001A4B9B68C3F303131B4AD15C194A136818
:10242000CB4013607047194A164B1A60F0E7134B04
:102430005A685B6803F03F0312F4800F13D0134A0D
:10244000B2FBF3F20D4B5B68C3F3881303FB02F39B
:102450000A4A5268C2F3014201325200B3FBF2F35E
:10246000084A1360D4E7064AB2FBF3F2034B5B68F9
:10247000C3F3881303FB02F3EAE700BF003802400E
:102480000024F4000C0000201435000800127A002B
:10249000032854D830B58BB0294B53F8203005931E
:1024A0000123069307930323089303280FD8DFE83B
:1024B00000F0021F2C3900230193224B1A6B42F0CB
:1024C00040021A631B6B03F040030193019B044617
:1024D0001D4D05A955F82000FEF73AFB0122184BC7
:1024E00033F8241055F82400FEF7C2FC0BB030BDC1
:1024F00000230293134B1A6B42F008021A631B6B02
:1025000003F008030293029BE1E7002303930D4BC2
:102510001A6B42F008021A631B6B03F00803039363
:10252000039BD4E700230493064B1A6B42F48062AA
:102530001A631B6B03F480630493049BC7E7704723
:10254000140000200038024024000020032800D995
:10255000704708B50022044B33F82010034B53F8A2
:102560002000FEF785FC08BD140000202400002098
:10257000032800D9704708B50122044B33F8201016
:10258000034B53F82000FEF773FC08BD1400002035
:102590002400002030B587B00546002300931A4B75
:1025A0001A6B42F001021A631B6B03F001030093E4
:1025B000009B0C4619B1012C0FD007B030BD012390
:1025C00001930023029303930223049301A90F4B69
:1025D00053F82000FEF7BCFAEDE701230193002435
:1025E0000394022304930A4B029301A9074B53F867
:1025F0002500FEF7ADFA22460F210620FDF71EFF4B
:102600000620FDF75FFFD8E70038024010000020E9
:102610000000111008B5FDF7CBFE00F003F8FFF73E
:10262000E7FE08BD30B595B0002400941D4B1A6C30
:1026300042F080521A641B6C03F080530093009B9D
:102640000194194B1A6842F440421A601B6803F463
:1026500040430193019B01230293039302250895B4
:102660004FF48003099308230A934FF4B4730B9338
:102670000C9507230D9306230E9302A8FEF762FC28
:10268000FEF710FC0F230F93109511944FF4A053F5
:1026900012934FF48053139305210FA8FEF7B2FE57
:1026A00015B030BD003802400070004008B5012070
:1026B000FFF75EFF0220FFF749FFFEE708B50A4873
:1026C0000A4B03604FF41653436000238360C360DA
:1026D000036183610C224261C361FFF731FD00B9E0
:1026E00008BDFFF7E3FF00BFD40100200048004011
:1026F00008B50C480C4B03602023C36100238360A2
:1027000043610361C3600362436283620722C26262
:102710004FF4007282614360FFF72CF800B908BDE6
:10272000FFF7C4FF7C0100200038004010B5C0B0A6
:102730000B460246FF21684600F0F0F904460023EC
:102740000DF800304FF0FF3382B269460248FFF7C0
:102750008DFD204640B010BDD40100200FB400B55F
:1027600083B004A951F8040B0191FFF7DFFF03B018
:102770005DF804EB04B0704708B50020FFF788FE51
:102780000120FFF785FE0220FFF782FE0320FFF7FE
:102790007FFE00210846FFF7FDFE08BD10B5FDF7DE
:1027A00007FEFFF73FFFFFF789FFFFF7A1FFFFF7E6
:1027B000E3FF10E01C48FFF7D1FFFFF777FF1DE0B4
:1027C0001A4B195D1A48FFF7C9FF0134042CF7DDD5
:1027D0001848FFF7C3FF0020FFF7CAFE0120FFF7EC
:1027E000C7FE0220FFF7C4FE0320FFF7C1FE05224B
:1027F0000E491148FFF730F90028DBD10F4B1B6859
:10280000002BFBD00D4B1B68012B06D10C48FFF7AA
:10281000A5FF0024094B1C60D8E70A48FFF79EFF7C
:10282000FFF744FFD7E700BF24350008140200205B
:1028300050350008543500087C010020A800002015
:10284000383500085835000808B50320FFF77EFE2C
:102850000122014B1A6008BDA80000200222014B92
:102860001A607047A8000020FEE700000268594B7C
:102870009A4200D070472DE9F04F8BB005460024F6
:10288000009403F500331A6B42F008021A631A6BC6
:1028900002F008020092009A01941A6B42F00202C0
:1028A0001A631A6B02F002020192019A02941A6BE7
:1028B00042F002021A631A6B02F002020292029ABA
:1028C00003941A6C42F480421A641A6C02F4804237
:1028D0000392039A04941A6B42F400121A631B6B5E
:1028E00003F400130493049B08230593022706971F
:1028F00007974FF00308CDF820800526099605A913
:102900003548FEF725F94FF4804305930996DFF823
:10291000DC9005A94846FEF71BF94FF400430593E8
:10292000099605A94846FEF713F92C4E2C4B336047
:1029300074607462C6F828804FF4000BC6F82CB09F
:102940004FF4001AC6F830A04023B360F4604FF48F
:102950008069C6F810907461B461F46134623046E5
:10296000FDF760FEAE64B5631E4E1F4B33607460AE
:102970007462C6F82880C6F82CB0C6F830A0B460DF
:10298000F460C6F810907461B461F4614FF40033E0
:1029900033623046FDF746FEEE64B5630122114610
:1029A0000F20FDF74BFD0F20FDF78CFD2246012186
:1029B0000E20FDF743FD0E20FDF784FD3A46012170
:1029C0002420FDF73BFD2420FDF77CFD0BB0BDE886
:1029D000F08F00BF00380040000C02400C010020C6
:1029E00070600240AC0000205860024000040240C9
:1029F00030B589B0002200921B4B196B41F00201E7
:102A00001963196B01F00201009100990192196B91
:102A100041F002011963196B01F002010191019962
:102A200002921A6C42F480221A641B6C03F4802315
:102A30000293029B4FF40063039302230493012348
:102A400005930323069307250795084C03A9204601
:102A5000FEF77EF84FF480630393079503A92046A1
:102A6000FEF776F809B030BD00380240000402409D
:102A70007047FEE7FEE7FEE7FEE7704770477047E6
:102A800008B5FDF7AFFC08BD08B5024BD86CFDF7E3
:102A90006DFF08BD7C01002008B5024B986CFDF766
:102AA00065FF08BD7C01002008B50248FFF7B8F8B3
:102AB00008BD00BF7C010020014B1868704700BFB3
:102AC0003400002030B5141E05469BB0184605DAC8
:102AD0008B232B604FF0FF301BB030BD4FF40273DF
:102AE000ADF80C3014BF04F1FF3323460293059375
:102AF0004FF6FF7300910491ADF80E3002461E9B15
:102B00006946284600F074F8431CBCBF8B232B6039
:102B1000002CE1D0009B00221A70DDE707B500937E
:102B200013460A46014603480068FFF7CBFF03B08F
:102B30005DF804FB340000202DE9F0478E689E42CA
:102B400082460C469146984635D88A8912F4906F91
:102B500031D0256809696F1A6569022305EB4505BF
:102B600095FBF3F508F101033B449D4238BF1D4638
:102B7000530531D5294600F08FFB064650B90C238A
:102B8000CAF80030A38943F04003A3814FF0FF301F
:102B9000BDE8F0873A46216900F00AFBA38923F4D7
:102BA000906343F08003A381266165613E44ED1B81
:102BB0002660A5604646464528BF464632464946F9
:102BC000206800F000FBA3689B1BA36023681E44E1
:102BD00026600020BDE8F0872A4600F0BBFB0646D1
:102BE0000028E1D12169504600F008FBC7E700004A
:102BF0002DE9F04F9DB0804603938B891C060D464E
:102C000016460FD50B696BB9402100F045FB2860D3
:102C1000286128B90C23C8F800304FF0FF30C5E018
:102C200040236B610023099320238DF82930302342
:102C30008DF82A304FF0010B37463C4614F8013B23
:102C4000002B3CD1B7EB060A0BD05346324629463F
:102C50004046FFF771FF013000F0A380099B534409
:102C600009933B78002B00F09C8000234FF0FF324B
:102C700004930793059206938DF853301A93052217
:102C80002178504800F044FA671C049BD8B9D90653
:102C900044BF20228DF853201A0744BF2B228DF801
:102CA000532022782A2A16D0079A00210A20274684
:102CB00001343B78303B092B51D9C9B111E0252BA8
:102CC000C0D02746B9E73F4A801A0BFA00F01843F4
:102CD00004903C46D3E7039A111D12680391002A21
:102CE00001DB079204E0524243F00203079204938F
:102CF0003B782E2B0ED17B782A2B07F1010132D1A4
:102D0000039B1A1D1B680392002BB8BF4FF0FF33C3
:102D1000023705932C4C39780322204600F0F8F94D
:102D200038B14023001B03FA00F0049B03430493D3
:102D30000137397825488DF8281006227E1C00F0CE
:102D4000E7F9002835D0224BFBB9039B073323F06A
:102D5000070308330393099B4B4409936CE700FB7B
:102D600002320121A3E70023059318460A240F46E7
:102D700001313A78303A092A03D9002BCAD005909C
:102D8000C8E704FB00200123F1E703AB00932A46C8
:102D9000104B04A94046AFF30080B0F1FF3F8146DD
:102DA000D9D1AB895B063FF538AF09981DB0BDE8B6
:102DB000F08F03AB00932A46064B04A9404600F06F
:102DC00081F8EAE7743500087A3500087E35000896
:102DD00000000000392B00082DE9F04791461F46FE
:102DE0008A680B69DDF820809342B8BF1346C9F8A2
:102DF000003091F8432006460C4612B10133C9F861
:102E000000302368990642BFD9F800300233C9F870
:102E10000030256815F0060507D104F1190AE368AA
:102E2000D9F800209B1A9D4229DB94F84330226890
:102E3000003318BF012392062ED404F14302394611
:102E40003046C047013021D02368E568D9F800201A
:102E500003F00603042B08BFAD1AA36822690CBF58
:102E600025EAE57500259342C4BF9B1AED184FF083
:102E700000091A344D451BD10020BDE8F08701231D
:102E8000524639463046C047013003D14FF0FF303B
:102E9000BDE8F0870135C2E7E1185A1C302081F8FF
:102EA0004300224494F8451082F843100233C4E7EB
:102EB0000123224639463046C0470130E6D009F1A9
:102EC0000109D7E72DE9F04317460A7E85B06E2A3F
:102ED000984606460C460C9B01F1430E00F0BC8060
:102EE0001AD8632A2ED00AD8002A00F0C880582A9F
:102EF00000F08A8004F1420584F842202AE0642A26
:102F000001D0692AF6D121681A6811F0800F23D008
:102F1000111D1960136827E0732A00F0B48008D8E7
:102F20006F2A2AD0702AE5D10A6842F020020A608E
:102F300003E0752A21D0782ADCD1782284F8452054
:102F40006E4964E01A6801F14205111D19601368A9
:102F500084F842300123A3E011F0400F02F1040194
:102F60001960D7D0B2F90030002B03DA2D225B4272
:102F700084F8432062490A2217E02068196810F09B
:102F8000800F03D0081D18600B6806E010F0400F9A
:102F900001F104001860F7D00B8859496F2A14BF5B
:102FA0000A220822002084F843006568A560002DED
:102FB000C0F29C80206820F004002060002B3FD1EC
:102FC000002D40F095807546082A0BD12368DA075A
:102FD00008D5236962689A42DEBF302305F8013CB8
:102FE00005F1FF35AEEB05032361CDF800803B46CC
:102FF00003AA21463046FFF7EFFE013055D14FF0CE
:10300000FF3005B0BDE8F08381F845203C492268D7
:10301000186812F0800F00F104051D6001D00368EC
:1030200002E05506FBD50388D00744BF42F02002DA
:1030300022601BB9226822F0200222601022B1E730
:103040007546B3FBF2F002FB1033CB5C05F8013D93
:1030500003460028F5D1B7E708681A68496910F0F7
:10306000800F04D0101D18601368196007E010F07D
:10307000400F02F1040018601368F6D01980002395
:1030800023617546B1E71A68111D196015686268F9
:103090000021284600F03CF808B1401B60606368DE
:1030A0002361002384F843309FE723692A46394689
:1030B0003046C0470130A2D023689B0707D50025C2
:1030C00004F11909E368039A9B1A9D4205DBE06845
:1030D000039B9842B8BF184693E701234A463946F6
:1030E0003046C04701308AD00135EBE7002BA7D12D
:1030F0000B7884F8423004F1420565E79635000804
:1031000085350008000000000000000000000000FD
:1031100001F0FF01102A2BDB10F0070F08D010F888
:10312000013B013A8B422DD010F0070F42B3F6D18C
:10313000F0B441EA012141EA014122F007047FF0A5
:1031400000070023F0E80256083C85EA010586EAFC
:10315000010685FA47F5A3FA87F586FA47F6A5FA38
:1031600087F68EB9EED1F0BC01F0FF0102F0070244
:1031700032B110F8013B013A83EA010313B1F8D1EF
:103180000020704701387047002D06BF35460338D0
:10319000073815F0010F07D1013015F4807F02BF09
:1031A000013015F4C03F0130F0BC0138704700BF5A
:1031B00010B5431E0A44914200D110BD11F8014BD5
:1031C00003F8014FF7E7884210B501EB020303D87B
:1031D000421E99420CD110BD9842F9D28118D21AE0
:1031E000D34200D110BD13F8014D01F8014DF7E7AE
:1031F00011F8014B02F8014FEBE7000038B5054626
:10320000002945D051F8043C0C1F002BB8BFE4182E
:1032100000F0D6F81F4A1368104633B96360146093
:103220002846BDE8384000F0CCB8A3420CD921684C
:103230006218934204BF1A685B68636004BF521847
:1032400022600460ECE713465A680AB1A242FAD938
:1032500019685818A0420BD12068014458188242BE
:103260001960DDD1106852685A6001441960D7E7CF
:1032700002D90C232B60D3E7206821188A4204BFAF
:1032800011685268626004BF091821605C60C7E77A
:1032900038BD00BF6C01002070B5CD1C25F00305C2
:1032A00008350C2D38BF0C25002D064601DBA94240
:1032B00003D90C233360002070BD00F081F8234A4D
:1032C0001468214691B9224C23681BB9304600F09E
:1032D00067F820602946304600F062F8431C26D18A
:1032E0000C233360304600F06CF8E4E70B685B1B9E
:1032F0001AD40B2B0FD90B60CD50CC18304600F0F0
:1033000060F804F10B00231D20F00700C31A1BD046
:103310005A42E25070BD8C420DBF63684B686360D7
:10332000136018BF0C46E9E70C464968CAE7C41C9D
:1033300024F00304A04205D0211A304600F030F8F2
:103340000130CDD02560D9E770BD00BF6C010020F1
:1033500070010020F8B5074614460E4621B9114603
:10336000BDE8F840FFF798BF22B9FFF747FF2546B1
:103370002846F8BD00F026F884420FD92146384689
:10338000FFF78AFF05460028F2D031462246FFF7B4
:103390000FFF31463846FFF731FFE9E73546E7E7EB
:1033A00038B5064C0023054608462360FEF7CAFFE1
:1033B000431C02D1236803B12B6038BD7801002083
:1033C0007047704751F8040C0028A0F10400BCBFFE
:1033D0000B58C018704700002E2E2F737973746538
:1033E0006D2F5372632F73746D333266342D6861A1
:1033F0006C2F73746D3332663478785F68616C5FFC
:10340000636F727465782E63000000002E2E2F7398
:10341000797374656D2F5372632F73746D333266D5
:10342000342D68616C2F73746D3332663478785F35
:1034300068616C5F646D612E630000000006101609
:10344000000610162E2E2F73797374656D2F53722C
:10345000632F73746D333266342D68616C2F73740F
:103460006D3332663478785F68616C5F6770696F5E
:103470002E630000000000000102030401020304A7
:10348000060708092E2E2F73797374656D2F5372FA
:10349000632F73746D333266342D68616C2F7374CF
:1034A0006D3332663478785F68616C5F7263632E67
:1034B000630000002E2E2F73797374656D2F537285
:1034C000632F73746D333266342D68616C2F73749F
:1034D0006D3332663478785F68616C5F7370692E23
:1034E000630000002E2E2F73797374656D2F537255
:1034F000632F73746D333266342D68616C2F73746F
:103500006D3332663478785F68616C5F75617274B0
:103510002E63000000000000000000000102030410
:10352000060708094572726F7220496E2052656362
:1035300065697665200A00005278205472616E73C6
:1035400066657220636F6D706C6574653A2000006B
:10355000256420000A0000005278205472616E73C6
:10356000666572206E6F7420636F6D706C65746534
:10357000200A0000232D302B2000686C4C0065666B
:1035800067454647003031323334353637383941B4
:1035900042434445460030313233343536373839CA
:0735A00061626364656600CF
:1035A80078563412A4000020000000000024F40023
:1035B8000000024040000000100000002000000051
:1035C8000800000000180240000C0240000C0240F5
:1035D8000028024038000020000000000000000021
:1035E80000000000000000000000000000000000D3
:1035F80000000000000000000000000000000000C3
:1036080000000000000000000000000000000000B2
:1036180000000000000000000000000000000000A2
:103628000000000000000000000000000000000092
:0C363800000000000000000032547698F2
:04000005080001B539
:00000001FF
