:020000040800F2
:10000000000001207903000881030008890300082B
:10001000AD030008B5030008D90300080000000084
:10002000000000000000000000000000FD030008C8
:1000300005040008000000000D0400081504000875
:100040002D0400082D0400082D0400082D040008CC
:100050002D0400082D0400082D0400082D040008BC
:100060002D0400082D0400082D0400082D040008AC
:100070002D0400082D0400082D0400082D0400089C
:100080002D0400082D0400082D0400082D0400088C
:100090002D0400082D0400082D0400082D0400087C
:1000A0002D0400082D0400082D0400082D0400086C
:1000B0002D0400082D0400082D0400082D0400085C
:1000C0002D0400082D0400082D0400082D0400084C
:1000D0002D0400082D0400082D0400082D0400083C
:1000E0002D0400082D0400082D0400082D0400082C
:1000F0002D0400082D0400082D0400082D0400081C
:100100002D0400082D0400082D0400082D0400080B
:100110002D0400082D0400082D0400082D040008FB
:100120002D0400082D0400082D0400082D040008EB
:100130002D0400082D0400082D0400082D040008DB
:100140002D0400082D0400082D0400082D040008CB
:100150002D0400082D0400082D0400082D040008BB
:100160002D0400082D0400082D0400082D040008AB
:100170002D0400082D0400082D04000800000000D4
:100180002D0400082D0400082D0400082D0400088B
:100190002D0400082D0400082D0400082D0400087B
:1001A0002D0400082D0400082D0400082D0400086B
:1001B0002D04000880B596B000AF00F067F95D4BE4
:1001C0005D4A1A605D4B5C4A1A605D4B7B6523E0BB
:1001D0007B6D1A1D7A651B68FB647B6D1A1D7A6541
:1001E0001B68BB647B6D1A1D7A651B687B64FB6CA6
:1001F0007B63BB6C3B637B6CFB623B6BBB6207E06E
:10020000BB6A1A1DBA627A6B111D796312681A6093
:10021000FA6ABB6A9A42F3D87B6D4A4A9342D7D3B3
:10022000444B1B68484A934204D1444B1B68474ADD
:10023000934200D0FEE7464B3F4A1A60454B3E4A88
:100240001A60454B3B6519E03B6D1A1D3A651B680A
:100250003B643B6D1A1D3A651B68FB633B6C7B621C
:10026000FB6B3B627B6AFB6104E0FB691A1DFA6170
:1002700000221A603A6AFB699A42F6D83B6D374A07
:100280009342E1D3324B1B68002B03D1314B1B68E7
:10029000002B00D0FEE700F007F93A1D07F1080334
:1002A0001146184600F0E0F82D4A2E4BD31A9B1049
:1002B0003B610023FB6007E02A4AFB6852F82330C9
:1002C0009847FB680133FB603A69FB689A42F3DCAC
:1002D000254A264BD31A9B103B610023FB6007E0A5
:1002E000224AFB6852F823309847FB680133FB60D1
:1002F0003A69FB689A42F3DCBB687A681146184693
:1003000000F078FAB8631A4A1A4BD31A9B10BB61F3
:10031000BB697B6108E07B69013B164A52F82330D8
:1003200098477B69013B7B617B69002BF3DCB86BF1
:1003300000F094F800000020BABADECA10000020D5
:10034000340400084C04000878563412325476986D
:1003500014000020200000204C0400085C04000869
:100360005C0400085C0400085C0400085C040008ED
:100370005C0400085C04000880B500AFFFF71AFFBA
:1003800080B400AF00BEFEE71EF0040F0CBFEFF319
:100390000880EFF309807146214A104700BF80B4FE
:1003A00083B000AF7860396000BEFEE780B400AF74
:1003B00000BEFEE71EF0040F0CBFEFF30880EFF362
:1003C00009807146174A104700BF80B483B000AF60
:1003D0007860396000BEFEE71EF0040F0CBFEFF33B
:1003E0000880EFF3098071460F4A104700BF80B4C0
:1003F00083B000AF7860396000BEFEE780B400AF24
:1004000000BEFEE780B400AF00BEFEE780B400AFE0
:1004100000BEFEE780B400AF00BFBD4680BC7047A1
:100420009F030008CB030008EF03000880B400AF6F
:0404300000BEFEE725
:10043400E40800080000002014000020E40800087C
:100444000000001000000010140000202400002010
:08045400000000100000001080
:10045C0080B483B000AF7860FEE7000080B483B056
:10046C0000AF786039607B6801221A603B68034AF0
:10047C001A6000BF0C37BD4680BC704704000020DA
:10048C0080B500AF00F010F8024B034A9A6000BF31
:10049C0080BD00BF00ED00E00000000880B500AF9B
:1004AC0000F030F800BF80BD80B400AF124A124B90
:1004BC001B6843F0010313600F4B00229A600E4A35
:1004CC000D4B1B6823F0847323F4803313600A4BA9
:1004DC000A4A5A60084A084B1B6823F480231360AD
:1004EC00054B0022DA60064B4FF000629A6000BFA9
:1004FC00BD4680BC704700BF00380240103000245D
:10050C0000ED00E080B487B000AF00233B61002316
:10051C007B610223FB600023BB6002237B60314BB9
:10052C009B6803F00C033B613B69042B07D0082B41
:10053C0009D0002B3DD12C4B2C4A1A603DE02A4BA4
:10054C002B4A1A6039E0274B5B689B0D03F00103C3
:10055C00BB60244B5B6803F03F037B60BB68002BE4
:10056C000CD0234A7B68B2FBF3F31E4A5268920903
:10057C00C2F3080202FB03F37B610BE01B4A7B68AE
:10058C00B2FBF3F3174A52689209C2F3080202FB5A
:10059C0003F37B61134B5B681B0C03F00303013308
:1005AC005B00FB607A69FB68B2FBF3F30E4A1360E5
:1005BC0003E00D4B0D4A1A6000BF0A4B9B681B09E8
:1005CC0003F00F030B4AD35C3B61074B1A683B6982
:1005DC0022FA03F3044A136000BF1C37BD4680BCEB
:1005EC00704700BF003802400C0000200024F400CB
:1005FC0000127A00D408000880B483B000AF786091
:10060C007B6803F13F4303F57E039B0A9BB21846BC
:10061C000C37BD4680BC704780B582B000AF7860A7
:10062C007868FFF7E9FF03461A46012303FA02F143
:10063C00044A044B1B6B0B43136300BF0837BD46C6
:10064C0080BD00BF0038024080B487B000AF786036
:10065C00084611461A4603467B800B467B701346B0
:10066C003B7000233B610023FB600023BB60002335
:10067C007B6179E001227B6902FA03F33B617A88A2
:10068C003B691340FB60FA683B699A4269D17B680D
:10069C001B68BB607B695B00032202FA03F3DB433C
:1006AC001A46BB681340BB607A787B695B0002FA20
:1006BC0003F31A46BB681343BB607B68BA681A60C5
:1006CC007B78012B02D07B78022B30D17B685B6866
:1006DC00BB6001227B6902FA03F3DB431A46BB6859
:1006EC001340BB603A787B6902FA03F31A46BB6885
:1006FC001343BB607B68BA685A607B689B68BB60BD
:10070C007B695B00032202FA03F3DB431A46BB68E6
:10071C001340BB6097F820207B695B0002FA03F35F
:10072C001A46BB681343BB607B68BA689A607B68E7
:10073C00DB68BB607B695B00032202FA03F3DB43DB
:10074C001A46BB681340BB6097F824207B695B009A
:10075C0002FA03F31A46BB681343BB607B68BA68A2
:10076C00DA607B6901337B617B690F2B82D900BF17
:10077C001C37BD4680BC704780B584B002AF786032
:10078C00084611461A4603467B800B467B7013467F
:10079C003B707868FFF740FF38787A7879883B7D32
:1007AC0001933B7C009303467868FFF74DFF00BF35
:1007BC000837BD4680BD80B483B000AF78600B466F
:1007CC007B8013467B707B78002B03D07A887B6808
:1007DC009A6104E07B881B041A467B689A6100BF0F
:1007EC000C37BD4680BC704780B582B002AF012388
:1007FC000193022300930023012240212D48FFF78F
:10080C00BBFF012301930223009300230122082143
:10081C002948FFF7B1FF0123019302230093002322
:10082C00012230212548FFF7A7FF01224021214852
:10083C00FFF7C1FF012208211F48FFF7BCFF01226F
:10084C0030211E48FFF7B7FF04E01D4B1B68013336
:10085C001B4A13601A4B1B681A4A9342F5D9184B62
:10086C001B68184A934202D9154B00221A600022C9
:10087C0040211048FFF79FFF002208210E48FFF788
:10088C009AFF002230210D48FFF795FF04E00C4B36
:10089C001B6801330A4A1360094B1B68094A9342CF
:1008AC00F5D9074B1B68074A9342BED9044B00226B
:1008BC001A60BAE70018024000280240000C0240FF
:1008CC001C0000203F0D0300000000000000000091
:0808DC000102030406070809EC
:1008E4007856341218000020000000000024F400A0
:0408F400325476986C
:04000005080001B539
:00000001FF
