:020000040800F2
:1000000000000120E502000811280008132800085C
:10001000152800081728000819280008000000000B
:100020000000000000000000000000001B28000885
:100030001D280008000000001F28000821280008D3
:100040005503000855030008550300085503000830
:100050005503000855030008550300085503000820
:100060005503000855030008550300085503000810
:100070005503000855030008550300085503000800
:10008000292800082B2800085503000855030008FC
:1000900055030008550300085503000855030008E0
:1000A00055030008550300085503000855030008D0
:1000B00055030008550300085503000855030008C0
:1000C00055030008550300085503000855030008B0
:1000D00055030008550300085503000855030008A0
:1000E0005503000855030008550300085503000890
:1000F0005503000855030008550300085503000880
:10010000550300085503000855030008550300086F
:10011000550300085503000855030008550300085F
:10012000550300085503000855030008550300084F
:10013000550300085503000855030008550300083F
:10014000550300085503000855030008550300082F
:10015000550300085503000855030008550300081F
:10016000550300085503000855030008550300080F
:10017000550300085503000855030008000000005F
:1001800055030008550300085503000855030008EF
:1001900055030008550300085503000855030008DF
:1001A00055030008550300085503000855030008CF
:1001B0005503000800B583B001F08CFF384B394A75
:1001C0001360394A1360394906E011681960043335
:1001D00004329842F9D82146354B994205D20A6833
:1001E0004B6801F10C048868F3E72E4B1A68314B19
:1001F0009A4200D0FEE72C4B1A682F4B9A42F9D155
:10020000274B2E4A13602E4A13602E4B05E0002028
:10021000106004329342FAD80B462B4A934204D220
:10022000194651F8082B5B68F4E7244B1B6813B997
:10023000234B1B6803B1FEE702F038F8694601A8BA
:1002400001F03CFF214B224CE41AA4100025AC42E3
:1002500014DC204B204CE41AA4100025AC4213DC23
:100260000099019802F034FA05461C4B1C4CE41A24
:10027000A410002C0EDC284601F0F9FE134B53F8B5
:10028000253098470135E2E7124B53F8253098475F
:100290000135E3E7013C114B53F824309847E8E778
:1002A000BABADECA0000002000020020580300088D
:1002B00070030008785634123254769808020020F1
:1002C0000803002070030008800300088003000872
:1002D00080030008800300088003000880030008F2
:1002E0008003000808B5FFF765FF00BEFEE71EF0BB
:1002F000040F0CBFEFF30880EFF309807146124A38
:10030000104700BEFEE700BEFEE71EF0040F0CBF64
:10031000EFF30880EFF3098071460C4A104700BEE6
:10032000FEE71EF0040F0CBFEFF30880EFF3098027
:100330007146074A104700BEFEE700BEFEE700BE5A
:10034000FEE700BEFEE77047030300081F03000836
:080350003703000800BEFEE7C0
:1003580078570008000000200402002078570008A1
:100368000000001000000010080200200C0300200C
:0803780000000010000000105D
:100380007047000010B50446074B1868074BA3FBE5
:100390000030800900F0A4F8002221464FF0FF3021
:1003A00000F05AF8002010BD0C000020D34D621060
:1003B00008B50B4B1A6842F400721A601A6842F4CE
:1003C00080621A601A6842F480721A60032000F09A
:1003D00025F80F20FFF7D6FFFFF7D2FF002008BD5A
:1003E000003C0240024A136801331360704700BFAB
:1003F0001C020020014B1868704700BF1C0200203F
:1004000010B582B00190FFF7F5FF0446FFF7F2FF49
:10041000001B019B9842F9D302B010BD10B50446F1
:10042000C31E042B0FD80A4AD36823F4E0631B04CD
:100430001B0C240204F4E064234343F0BF6343F441
:100440000033D36010BDA421024801F03FFEEAE76B
:1004500000ED00E0E053000870B505460C46164676
:100460000F2A24D80F2C27D81A4BDB68C3F302239A
:10047000C3F10702042A28BF0422191D062920D926
:10048000033B012101FA02F2013A14409C4001FAB7
:1004900003F3013B33401C43002D14DB2401E4B281
:1004A00005F1604505F5614585F8004370BDBC2147
:1004B000094801F00BFED5E7BD21074801F006FE13
:1004C000D2E70023DDE705F00F052401E4B2034B7A
:1004D0005C5570BD00ED00E0E053000814ED00E055
:1004E0000138B0F1807F0AD2064B5860F021064AED
:1004F00082F823100020986007221A6070470120BC
:10050000704700BF10E000E000ED00E02DE9F0478B
:1005100082B080460F46BE4B98422BD003F58063D5
:10052000984227D003F58063984223D003F5806377
:1005300098421FD003F5806398421BD003F5806377
:10054000984217D003F58063984213D003F5806377
:1005500098420FD003F5806398420BD003F5806377
:10056000984207D003F58063984203D0C521A9487B
:1005700001F0ACFD3B8853B37B68012B22D9112BD2
:1005800020D0022B1ED0122B1CD0A34A934219D08C
:1005900002F58012934215D002F58012934211D0D9
:1005A000A2F5F81293420DD002F58012934209D0C1
:1005B00002F58012934205D0032B03D0C721954842
:1005C00001F084FDBB68022B06D800257CE0C62123
:1005D000904801F07BFDCFE7C8218E4801F076FD01
:1005E000F3E73B690BB3092B1FD0012B1DD0022B66
:1005F0001BD0032B19D0042B17D0052B15D0062B9D
:1006000013D0072B11D0082B0FD00A2B0DD00B2B9A
:100610000BD00C2B09D00D2B07D00F2B05D00E2B98
:1006200003D0D9217B4801F051FDE908083158F881
:10063000213005F0070292000F20904023EA0003CA
:10064000386900FA02F2134348F821304DE0EC21FA
:10065000704801F03BFD64E0092100E00021A14069
:100660000A4302336D4941F823206D4B1A686FEA43
:10067000090302EA0301786810F4803F01D049EAD7
:100680000201674A1160526803EA0201786810F4B7
:10069000003F01D049EA0201614A5160926803EAD1
:1006A0000201786810F4801F01D049EA02015C4A17
:1006B0009160D2681340796811F4001F01D049EAB3
:1006C0000203574AD36001350F2D00F29D800124AB
:1006D000AC403B6804EA03094C45F4D17B68022B2B
:1006E0003FF47FAF122B3FF47CAFD8F800304FEAD5
:1006F000450A032606FA0AF6F64333407A6802F002
:10070000030202FA0AF21343C8F800307B685A1E4B
:10071000012A03D9112B01D0122B16D1FB68032B10
:1007200095D8D8F808303340FA6802FA0AF2134331
:10073000C8F80830D8F8043023EA04047B68C3F30F
:100740000013AB401C43C8F80440D8F80C301E40DE
:10075000BB6803FA0AF31E43C8F80C607B6813F009
:10076000805FB0D0002301932E4B5A6C42F480423C
:100770005A645B6C03F480430193019BAB08991CA2
:10078000264A52F8212005F003018C000F21A140D8
:1007900022EA01021E4880453FF460AF22498845A5
:1007A00022D001F58061884520D001F5806188451F
:1007B0001ED001F5806188451CD001F58061884517
:1007C0001AD001F58061884518D001F5806188450F
:1007D00016D001F58061884514D001F58061884507
:1007E0003FF43AAF0A213AE7012138E7022136E720
:1007F000032134E7042132E7052130E706212EE703
:1008000007212CE708212AE702B0BDE8F08700BFE6
:10081000000002401454000800001110003801408C
:10082000003C0140003802400004024070B506461A
:1008300015460C4651B1012D04D94FF4D971074822
:1008400001F044FC45B92404B46170BD40F2B1111B
:10085000024801F03BFCEEE7B46170BD145400089F
:1008600003685A6912F4806F0DD06FF480625A6188
:100870000423036400230363202280F83D2080F8D2
:100880003C300120704700207047F8B506460C4602
:1008900017461D461CE02DB1FFF7ACFD069BC01AA4
:1008A000854215D200233363202286F83D2086F846
:1008B0003C300320F8BD33685B6924EA03039BB234
:1008C000B3FA83F35B09BB420FD1B5F1FF3FE2D12D
:1008D000C4F30743012BEED033689B6924EA03037A
:1008E0009BB2B3FA83F35B09EDE70020F8BDF8B5DE
:1008F00004460D4616461F4632E01A6842F400725E
:100900001A6023686FF480625A6104232364002311
:100910002363202284F83D2084F83C300120F8BD78
:1009200026B1FFF767FDC01B864219D2002323635F
:10093000202284F83D2084F83C300320F8BD236851
:100940005B6925EA03039BB2003318BF0123A3B1FF
:1009500023685A6912F4806FCFD1B6F1FF3FDFD11F
:10096000C5F30743012BEAD023689B6925EA0303FB
:100970009BB2003318BF0123E9E70020F8BD70B532
:1009800004460D46164623685B6913F0800F19D1A3
:100990002046FFF765FFB8B9B5F1FF3FF3D025B1A9
:1009A000FFF728FD801B8542EDD2236C43F0200326
:1009B000236400232363202284F83D2084F83C3004
:1009C000032070BD002070BD012070BD2DE9F041F5
:1009D00084B00546884616461F460B9C026813687D
:1009E00043F48073136000940A9B00224FF00111BE
:1009F000FFF74BFF20B10323184604B0BDE8F08198
:100A00002A6808F0FE03136123460A9A2349284600
:100A1000FFF76DFF30B12B6C042B01D00323EBE704
:100A20000123E9E7002303932B685A6903929B692A
:100A30000393039B22460A992846FFF7A0FF03462B
:100A400058B12B6C042B01D00323D5E72A68136817
:100A500043F4007313600123CEE7012F0ED02B68FF
:100A6000320A1A6122460A992846FFF788FF034690
:100A700078B12B6C042B05D00323BDE72A68F6B2AE
:100A80001661B9E72A68136843F400731360012301
:100A9000B2E72A68F6B21661AEE700BF02000100B5
:100AA0002DE9F04184B005460E46174698460B9C4A
:100AB0000268136843F4806313600268136843F4A8
:100AC0008073136000940A9B00224FF00111FFF71E
:100AD000DCFE20B10323184604B0BDE8F0812B688A
:100AE000F6B206F0FE021A6123460A9A3D492846EC
:100AF000FFF7FDFE30B12B6C042B01D00323EAE796
:100B00000123E8E7002303932B685A6903929B694A
:100B10000393039B22460A992846FFF730FF58B1FA
:100B20002B6C042B01D00323D5E72A68136843F408
:100B3000007313600123CEE7B8F1010F0DD02B68CD
:100B40003A0A1A6122460A992846FFF718FFC8B1E7
:100B50002B6C042B0FD00323BDE72B68FFB21F6162
:100B600022460A992846FFF70AFFB0B12B6C042BE6
:100B70000CD00323AFE72A68136843F400731360B3
:100B80000123A8E72B68FFB21F61E9E72A68136811
:100B900043F40073136001239DE72A68136843F44C
:100BA0008073136000940A9B00224FF001112846C5
:100BB000FFF76BFE08B103238DE72B6846F00106B3
:100BC0001E6123460A9A07492846FFF790FE03460E
:100BD000002880D02B6C042B01D003237BE701235A
:100BE00079E700BF0200010070B504460D461646C5
:100BF00023685B6913F0040F19D12046FFF730FE1C
:100C0000B8B9B5F1FF3FF3D025B1FFF7F3FB801B77
:100C10008542EDD2236C43F0200323640023236339
:100C2000202284F83D2084F83C30032070BD002051
:100C300070BD012070BD70B505460C4616462B6888
:100C40005A6912F0400F22D15A6912F0100F11D1D7
:100C500024B1FFF7CFFB801B8442F0D22B6C43F012
:100C600020032B64202385F83D30002385F83C3099
:100C7000032070BD6FF010025A6100232B642B63B8
:100C8000202285F83D2085F83C30012070BD0020F1
:100C900070BD0000002800F0E78038B50446036806
:100CA000724A93420CD002F58062934208D002F55A
:100CB0008062934204D040F265116D4801F006FA5B
:100CC0006368013B6B4A934200F28180A3683BB1A9
:100CD000B3F5804F04D040F26711654801F0F6F992
:100CE000E36823F47F7323F00303002B75D123699A
:100CF000B3F5804F07D0B3F5404F04D040F26911EF
:100D00005B4801F0E3F96369012B04D94FF4B57135
:100D1000574801F0DBF9A36933F0FE0363D1E369BF
:100D200033B1402B04D04FF4B671514801F0CEF9E5
:100D3000236A33B1802B04D040F26D114C4801F08E
:100D4000C5F994F83D30002B53D0242384F83D306E
:100D50002268136823F00103136000F055FE464B30
:100D6000A3FB00239B0C2268536021686568434AFB
:100D7000954244D801330B62216863683F4A93422D
:100D800047D85B00B0FBF3F0C0F30B03032B00D894
:100D90000420C8612268E369216A0B43136022685A
:100DA0002369E1680B43936022686369A1690B437F
:100DB000D3602268136843F00103136000202064AD
:100DC000202384F83D30206384F83E0038BD4FF482
:100DD000B371274801F07AF978E74FF4B4712448E9
:100DE00001F074F983E740F26B11214801F06EF9CC
:100DF00095E784F83C30204601F0CAFCA5E74FF4A3
:100E0000967202FB03F31E4AA2FB03239B090133E4
:100E1000B1E7A5688DB903EB4302B0FBF2F2C2F370
:100E20000B02B2FA82F25209E2B995B903EB43031D
:100E3000B0FBF3F040F40040ABE703EB830202EBBE
:100E40008202B0FBF2F2C2F30B02B2FA82F2520952
:100E5000EAE703EB830303EB8303B0FBF3F040F417
:100E6000404096E7012094E701207047005400407D
:100E7000445400087F1A060083DE1B43A08601004D
:100E8000D34D62102DE9F04383B005468846914664
:100E90001C46BDF82C60FFF7ADFA0746012C06D0C2
:100EA000102C04D040F65511494801F00FF995F87F
:100EB0003D30DBB2202B04D00223184603B0BDE83E
:100EC000F08300971923012242492846FFF7DDFCF1
:100ED00008B10223F1E795F83C30012B01D1022340
:100EE000EBE7012385F83C302A68136823F400639C
:100EF0001360212385F83D30402385F83E300023E0
:100F00002B64A3F58033EB6201970C9B009323467F
:100F10004A4641462846FFF759FDD0B12B6C042BB9
:100F200004D0002385F83C300323C6E7002385F86E
:100F30003C300123C1E72B6C042B01D00323BCE719
:100F40002A68136843F4007313600123B5E71E4653
:100F50000A92E6B13A460C992846FFF710FD0028A0
:100F6000E9D12B680A9A01320A9909781961731E2E
:100F70009BB22968486910F0040FE8D0002BE6D036
:100F800013780B61B31E9BB20A9A0232DFE73A462E
:100F90000C992846FFF728FE034658B12B6C042B0A
:100FA00001D0032389E72A68136843F400731360B0
:100FB000012382E729680A6842F400720A6020224D
:100FC00085F83D20002285F83E2085F83C2074E716
:100FD00044540008020010002DE9F04387B0054694
:100FE000884691461C46BDF83C60FFF703FA074669
:100FF000012C06D0102C04D040F6CC11904801F002
:1010000065F895F83D30DBB2202B04D00224204651
:1010100007B0BDE8F08300971923012289492846CB
:10102000FFF733FC08B10224F1E795F83C30012BBF
:1010300001D10224EBE7012385F83C302A681368CC
:1010400023F400631360222385F83D30402385F8A4
:101050003E3000232B64A3F58033EB620197109B95
:10106000009323464A4641462846FFF719FD0446A9
:1010700060B12B6C042B04D0002385F83C30032492
:10108000C5E7002385F83C300124C0E766B900239A
:1010900002932B685A6902929A690292029A1A681C
:1010A00042F400721A6060E0012E0AD0022E1AD0BB
:1010B000002305932B685A6905929B690593059B4C
:1010C00053E02A68136823F48063136000230393BA
:1010D0002B685A6903929A690392039A1A6842F438
:1010E00000721A6041E02A68136823F48063136079
:1010F0002A68136843F400631360002304932B6889
:101100005A6904929B690493049B2EE03A46109915
:101110002846FFF790FD48B92B681B690E9A13709B
:10112000013EB6B2134601330E931EE02B6C202B0A
:101130007ED103246BE70097109B0022424928468A
:10114000FFF7A3FB002875D12A68136843F40073E6
:1011500013602B681A690E9B03F8022B2A68126928
:101160000E994A70023EB6B20E93002E57D0032E4F
:1011700030D8012ECAD0022EDDD00097109B00225D
:1011800031492846FFF781FB002855D12A681368AA
:1011900023F4806313602B681B690E9A1370009709
:1011A000109B002228492846FFF76FFB002845D1F5
:1011B0002A68136843F4007313602B681B690E9A46
:1011C00053702B681B699370033EB6B2134603330A
:1011D0000E93CAE73A4610992846FFF72CFDA0B9AE
:1011E0000E9B581C2B681B690E9A1370731E9BB2C2
:1011F0002A68516911F0040F0ED00E9B02330E9332
:1012000013690370023EB6B2AFE72B6C202B01D0FE
:101210000124FCE60324FAE61E460E90A5E72023EF
:1012200085F83D30002385F83E3085F83C30EEE609
:101230000124ECE60324EAE60324E8E60324E6E6D8
:1012400044540008020010000400010010B582B0F0
:1012500000230193234B1A6C42F080521A641B6CDA
:1012600003F080530193019B4FF4803393FAA3F36F
:10127000B3FA83F303F1845303F560339B00012237
:101280001A60FFF7B7F80446174B5B6813F4803F0A
:1012900008D1FFF7AFF8001BB0F57A7FF4D903202F
:1012A00002B010BD4FF4003393FAA3F3B3FA83F303
:1012B00003F1845303F560339B0001221A60FFF7AA
:1012C00099F80446084B5B6813F4003F07D1FFF719
:1012D00091F8001BB0F57A7FF4D90320E0E70020F5
:1012E000DEE700BF003802400070004030B583B038
:1012F000044603680F2B2DD8236813F0010F3CD050
:101300006368012B05D9052B03D0FA219F4800F013
:10131000DDFE9F4B9B6803F00C03042B24D09C4BF9
:101320009B6803F00C03082B19D02279994B1A7093
:101330006368002B50D0FFF75DF80546944B1B689F
:1013400013F4003F19D1FFF755F8401B6428F5D975
:101350000320D7E1F5218D4800F0B8FECCE78C4B97
:101360005B6813F4800FE0D0894B1B6813F4003FD7
:1013700003D06368002B00F0C281236813F0020FD2
:101380005CD0E368012B04D94FF496717F4800F0DC
:101390009DFE23691F2B2ED87D4B9B6813F00C0FED
:1013A00034D07B4B9B6803F00C03082B29D0E368F7
:1013B000002B72D00122784B1A60FFF71BF805460C
:1013C000734B1B6813F0020F58D1FFF713F8401B43
:1013D0000228F5D9032095E1FFF70CF805466C4B80
:1013E0001B6813F4003FC8D0FFF704F8401B6428C3
:1013F000F5D9032086E140F22D11644800F066FE25
:10140000CAE7634B5B6813F4800FD0D1604B1B6855
:1014100013F0020F04D0E368012B01D0012071E129
:101420005B48036823F0F8032169F82292FAA2F2DC
:10143000B2FA82F201FA02F213430360236813F056
:10144000080F4ED06369012B04D940F26D114F484B
:1014500000F03CFE636993B30122504B1A60FEF723
:10146000C9FF05464A4B5B6F13F0020F39D1FEF7F7
:10147000C1FF401B0228F5D9032043E1444803681B
:1014800023F0F8032169F82292FAA2F2B2FA82F26A
:1014900001FA02F213430360D0E700223E4B1A60C8
:1014A000FEF7A8FF05463A4B1B6813F0020FC5D0A4
:1014B000FEF7A0FF401B0228F5D9032022E10022FD
:1014C000364B1A60FEF796FF0546314B5B6F13F003
:1014D000020F06D0FEF78EFF401B0228F5D903202D
:1014E00010E1236813F0040F5ED0A368012B06D926
:1014F000052B04D040F29711244800F0E7FD0023AB
:101500000193234B1A6C42F080521A641B6C03F057
:1015100080530193019B224A136843F48073136044
:10152000FEF768FF05461E4B1B6813F4807F06D14B
:10153000FEF760FF401B0228F5D90320E2E0227A83
:10154000184B1A70A36883B1FEF754FF0546104B81
:101550001B6F13F0020F27D1FEF74CFF401B41F227
:1015600088339842F3D90320CCE0FEF743FF0546C9
:10157000074B1B6F13F0020F16D0FEF73BFF401B0B
:1015800041F288339842F3D90320BBE08454000829
:10159000003802400238024000004742800E4742B5
:1015A0000070004070380240A369022B1FD8A36965
:1015B000002B00F0A680554A926802F00C02082A1F
:1015C00000F0A280022B18D00022514B1A60FEF7C7
:1015D00011FF04464D4B1B6813F0007F00F08D8017
:1015E000FEF708FF001B0228F4D903208AE04FF41D
:1015F000E671484800F06AFDD9E7E3693BB1B3F50D
:10160000800F04D040F2D511424800F05FFD236AFC
:101610003F2B28D8636A323BB3F5BF7F29D8A36A32
:10162000022B0AD0042B08D0062B06D0082B04D09E
:101630004FF4EC71374800F049FDE36A043B0B2B93
:101640001DD80022324B1A60FEF7D4FE05462F4B00
:101650001B6813F0007F18D0FEF7CCFE401B022859
:10166000F5D903204EE04FF4EB712A4800F02EFD2F
:10167000D0E740F2D711274800F028FDCFE740F22D
:10168000D911244800F022FDDBE7E369226A134305
:10169000616A47F6C07292FAA2F2B2FA82F201FAD5
:1016A00002F21343A26A5208013A4FF4403191FA10
:1016B000A1F1B1FA81F18A401343E16A4FF07062FF
:1016C00092FAA2F2B2FA82F201FA02F213430F4A3C
:1016D000536001220E4B1A60FEF78CFE04460B4B42
:1016E0001B6813F0007F06D1FEF784FE001B022862
:1016F000F5D9032006E0002004E0002002E00120EC
:1017000000E0002003B030BD0120FBE700380240BC
:101710006000474284540008214B9B6803F00C038F
:10172000042B3AD0082B01D01E4870471C4B586838
:1017300000F03F005B6813F4800F1ED01A4AB2FB22
:10174000F0F2174B586847F6C073184093FAA3F3AA
:10175000B3FA83F3D84000FB02F0114B5B6803F44B
:1017600040334FF4403292FAA2F2B2FA82F2D340FE
:1017700001335B00B0FBF3F070470A4AB2FBF0F2B2
:10178000074B586847F6C073184093FAA3F3B3FAAF
:1017900083F3D84000FB02F0DFE70348704700BF47
:1017A000003802400024F40000127A0070B50446AC
:1017B0000D460368013B0E2B11D80F2D15D88A4B0F
:1017C0001B6803F00F039D4215D9EBB2864A1370D4
:1017D000136803F00F039D420DD0012070BD40F24D
:1017E0003721824800F072FCE7E74FF40E717F4822
:1017F00000F06CFCE3E7236813F0020F1DD0A36830
:10180000A3B1802B12D0902B10D0A02B0ED0B02BD8
:101810000CD0C02B0AD0D02B08D0E02B06D0F02B58
:1018200004D040F24F21714800F050FC704A936898
:1018300023F0F003A1680B439360236813F0010FBA
:101840006DD06368032B29D86368012B2CD09A1EB6
:10185000012A30D9664A126812F0020F00F0C280E5
:1018600063498A6822F0030213438B60FEF7C2FDCE
:1018700006466368012B25D0022B32D0032B3FD0C4
:101880005B4B9B6813F00C0F49D0FEF7B3FD801B38
:1018900041F288339842F3D9032070BD40F25621BB
:1018A000524800F013FCCFE7514A126812F4003F8F
:1018B000D6D1012070BD4E4A126812F0007FCFD100
:1018C000012070BD4A4B9B6803F00C03042B26D00B
:1018D000FEF790FD801B41F288339842F2D9032035
:1018E00070BD434B9B6803F00C03082B17D0FEF729
:1018F00081FD801B41F288339842F2D9032070BDEC
:101900003B4B9B6803F00C030C2B08D0FEF772FDD9
:10191000801B41F288339842F2D9032070BD324BCC
:101920001B6803F00F039D4209D2EAB22E4B1A70D6
:101930001B6803F00F039D4201D0012070BD236896
:1019400013F0040F19D0E36883B1B3F5805F0DD0B5
:10195000B3F5A05F0AD0B3F5C05F07D0B3F5E05F81
:1019600004D04FF42D71214800F0B0FB204A936859
:1019700023F4E053E1680B439360236813F0080FEE
:101980001AD0236983B1B3F5805F0DD0B3F5A05FA2
:101990000AD0B3F5C05F07D0B3F5E05F04D040F2E2
:1019A000BB21124800F092FB114A936823F4604374
:1019B000216943EAC1039360FFF7AEFE0C4B9B68BD
:1019C00003F0F003F02292FAA2F2B2FA82F2D340CC
:1019D000084AD35CD840084B18600F20FEF7D2FCB1
:1019E000002070BD012070BD003C024084540008FE
:1019F00000380240745400080C000020014B1868A5
:101A0000704700BF0C00002008B5FFF7F7FF074B39
:101A10009B6803F4E0534FF4E05292FAA2F2B2FA58
:101A200082F2D340024AD35CD84008BD003802405D
:101A30007454000808B5FFF7E1FF074B9B6803F4F7
:101A400060434FF4604292FAA2F2B2FA82F2D340BB
:101A5000024AD35CD84008BD0038024074540008E4
:101A60002DE9F04704464268B64B9A4200F2A68040
:101A7000E3683BB1B3F5005F04D04FF4EA61B248CC
:101A800000F024FB236953B1B3F5806F07D0B3F5A1
:101A9000C06F04D040F25171AB4800F017FB63698E
:101AA0004FF6F372134200D123B940F25271A648A7
:101AB00000F00CFB2268136923F44053E1680B43E8
:101AC00013612168CB6823F4164323F00C03A2684A
:101AD0002069024360690243E06902431343CB601B
:101AE0002268536923F44073A1690B435361E3698E
:101AF000B3F5004F68D0D4F80080944B984500F0BF
:101B0000298103F58063984500F02481FFF77CFF6D
:101B100000EB800000EB80006568AD00B0FBF5F5E0
:101B20008B4FA7FB05356D092E01FFF76DFF00EB0D
:101B3000800000EB80006568AD00B0FBF5FAFFF7B0
:101B400063FF00EB800000EB80006568AD00B0FB38
:101B5000F5F5A7FB05356D094FF0640909FB15A5DF
:101B60002D013235A7FB05356D0905F0F00535442B
:101B7000FFF74AFF00EB800000EB80006668B600CC
:101B8000B0FBF6F6FFF740FF00EB800000EB8000B3
:101B900063689B00B0FBF3F0A7FB0030400909FB32
:101BA00010694FEA091909F13209A7FB0937C7F390
:101BB00043172F44C8F80870BDE8F08740F24F7112
:101BC000614800F083FA53E7D4F8008003F18043C2
:101BD00003F5104398455CD003F58063984558D0D1
:101BE000FFF712FF00EB800000EB800065686D00DE
:101BF000B0FBF5F5564FA7FB05356D092E01FFF734
:101C000003FF00EB800000EB800065686D00B0FB17
:101C1000F5FAFFF7F9FE00EB800000EB8000656845
:101C20006D00B0FBF5F5A7FB05356D094FF06409B4
:101C300009FB15A5ED003235A7FB05356D096D00D3
:101C400005F4F8753544FFF7DFFE00EB800000EB8C
:101C5000800066687600B0FBF6F6FFF7D5FE00EB75
:101C6000800000EB800063685B00B0FBF3F3A7FB30
:101C700003235B0909FB13694FEAC90909F132091A
:101C8000A7FB0937C7F342172F44C8F80870BDE80F
:101C9000F087FFF7CFFE00EB800000EB8000656867
:101CA0006D00B0FBF5F52A4FA7FB05356D092E0138
:101CB000FFF7C0FE00EB800000EB800065686D0060
:101CC000B0FBF5FAFFF7B6FE00EB800000EB8000FA
:101CD00065686D00B0FBF5F5A7FB05356D094FF0A4
:101CE000640909FB15A5ED003235A7FB05356D0923
:101CF0006D0005F4F8753544FFF79CFE00EB80009D
:101D000000EB800066687600B0FBF6F6FFF792FE07
:101D100000EB800000EB800063685B00B0FBF3F336
:101D2000A7FB03235B0909FB13694FEAC90909F102
:101D30003209A7FB0937C7F342172F44C8F80870C8
:101D4000BDE8F087A037A000B4540008001001409F
:101D50001F85EB51FFF76EFE00EB800000EB80006B
:101D60006568AD00B0FBF5F5264FA7FB05356D099D
:101D70002E01FFF75FFE00EB800000EB800065683E
:101D8000AD00B0FBF5FAFFF755FE00EB800000EB6D
:101D900080006568AD00B0FBF5F5A7FB05356D0962
:101DA0004FF0640909FB15A52D013235A7FB053558
:101DB0006D0905F0F0053544FFF73CFE00EB8000AF
:101DC00000EB80006668B600B0FBF6F6FFF732FE67
:101DD00000EB800000EB800063689B00B0FBF3F336
:101DE000A7FB03235B0909FB13694FEA091909F1F2
:101DF0003209A7FB0937C7F343172F44C8F8087007
:101E0000BDE8F0871F85EB512DE9F04105460F46EF
:101E100016469846069C2B681B6837EA03030CBFDE
:101E200001230023B3421ED1B4F1FF3FF3D02CB104
:101E3000FEF7E0FAA0EB08008442ECD22A68D368EF
:101E400023F4D073D3602A68536923F001035361EC
:101E5000202385F8393085F83A30002385F838306A
:101E60000320BDE8F0810020BDE8F081002800F0EB
:101E70008C8010B5044683691BB30368444A9342BF
:101E80000FD0A2F54C4293420BD002F580629342F0
:101E900007D002F54C42934203D0FE213D4800F0AA
:101EA00015F9A36993B3B3F5807F2FD0B3F5007F05
:101EB0002CD0B3F5407F29D0FF21364800F006F939
:101EC00024E00368324A934220D0A2F54C42934268
:101ED0001CD002F58062934218D002F580629342D2
:101EE00014D002F58062934210D002F5444293422E
:101EF0000CD0A2F51C42934208D002F580629342B6
:101F000004D040F20311234800F0E0F8A3683BB18D
:101F1000B3F5805F04D040F205111E4800F0D6F8FA
:101F2000E3693BB1B3F5004F04D04FF48371194816
:101F300000F0CCF894F839300BB3242384F839300E
:101F40002268D36823F40053D3602046FFF788FD4E
:101F50002268136923F4904313612268536923F0C4
:101F60002A0353612268D36843F40053D3600020EE
:101F7000E063202384F8393084F83A3010BD84F8C7
:101F80003830204600F0C4FBD7E70120704700BF7F
:101F900000100140B45400082DE9F04182B01E4603
:101FA00090F83930DBB2202B04D00223184602B05F
:101FB000BDE8F08104460D46174600294FD0002A9F
:101FC0004FD090F83830012B01D10223EEE70123E6
:101FD00080F838300023C363212380F83930FEF7BE
:101FE00009FA8046A784E78410E000964346002261
:101FF00080212046FFF708FF002834D122682B8873
:10200000C3F3080353602369ABB90235E38CA3B172
:10201000013BE384A368B3F5805FE6D000964346B6
:10202000002280212046FFF7EFFEF0B923682A78CE
:102030005A600135EAE70135E8E700964346002299
:1020400040212046FFF7E0FE034608B10323ADE739
:10205000202284F83920002284F83820A6E70123C2
:10206000A4E70123A2E70323A0E703239EE7FEE7FB
:1020700008B50120FFF7FBFF08B503460C4A1268BC
:102080005AB10B4A1068033323F003030344094A8F
:10209000934206D8064A136008BD0749044A1160F6
:1020A000EFE701F0A1F80C2303604FF0FF3008BD0B
:1020B0000C02002000FC00200C0300200123036020
:1020C000014B0B60704700BF0400002008B5FFF70C
:1020D000CFFF000008B500F009F8024B024A9A60F1
:1020E00008BD00BF00ED00E0000000080C4B1A68BE
:1020F00042F001021A60002199601A6822F084728D
:1021000022F480321A60074A5A601A6822F4802248
:102110001A60D9604FF00062034B9A60704700BFAD
:10212000003802401030002400ED00E0224B9B6894
:1021300003F00C03042B14D0082B16D01BB11F4A3C
:102140001F4B1A6002E01D4A1D4B1A601A4B9B6818
:10215000C3F303131B4AD15C194A1368CB401360C5
:102160007047194A164B1A60F0E7134B5A685B68C0
:1021700003F03F0312F4800F13D0134AB2FBF3F2C3
:102180000D4B5B68C3F3881303FB02F30A4A5268E2
:10219000C2F3014201325200B3FBF2F3084A13606A
:1021A000D4E7064AB2FBF3F2034B5B68C3F3881330
:1021B00003FB02F3EAE700BF003802400024F4000A
:1021C0000C000020E454000800127A00032854D8C0
:1021D00030B58BB0294B53F820300593012306937B
:1021E00007930323089303280FD8DFE800F0021FAA
:1021F0002C3900230193224B1A6B42F040021A63E0
:102200001B6B03F040030193019B04461D4D05A980
:1022100055F82000FEF77AF90122184B33F8241004
:1022200055F82400FEF702FB0BB030BD00230293EB
:10223000134B1A6B42F008021A631B6B03F008037E
:102240000293029BE1E7002303930D4B1A6B42F0CC
:1022500008021A631B6B03F008030393039BD4E784
:1022600000230493064B1A6B42F480621A631B6BC3
:1022700003F480630493049BC7E7704710000020B9
:102280000038024020000020032800D9704708B51C
:102290000022044B33F82010034B53F82000FEF7C4
:1022A000C5FA08BD100000202000002008B5FEF788
:1022B0007FF800F003F8FFF739FF08BD30B595B09F
:1022C000002400941D4B1A6C42F080521A641B6C5F
:1022D00003F080530093009B0194194B1A6842F459
:1022E00040421A601B6803F440430193019B0123A1
:1022F00002930393022508954FF480030993082362
:102300000A934FF4B4730B930C9507230D93062394
:102310000E9302A8FEF7EAFFFEF798FF0F230F9334
:10232000109511944FF4A05312934FF480531393CC
:1023300005210FA8FFF73AFA15B030BD003802406A
:102340000070004008B50120FFF79EFFFBE708B5CD
:102350000020FFF73BFF0120FFF738FF0220FFF7C7
:1023600035FF0320FFF732FF08BD000008B50A481B
:102370000A4B03604FF41653436000238360C3602D
:10238000036183610C224261C361FFF76FFD00B9F5
:1023900008BDFFF7D7FF00BFB00200200048004093
:1023A00010B5C0B00B460246FF21684601F0B6FBEF
:1023B000044600230DF800304FF0FF3382B2694627
:1023C0000248FFF7E9FD204640B010BDB0020020F2
:1023D0000FB400B583B004A951F8040B0191FFF7C5
:1023E000DFFF03B05DF804EB04B0704708B50B489D
:1023F0000B4B036042F21073436000238360C360A1
:102400004FF48042026143618361C3610362FEF75E
:1024100041FC00B908BDFFF795FF00BF5C0200203A
:102420000054004010B584B032240294019300920D
:1024300001230A4601460448FEF724FD10B9002096
:1024400004B010BD0120FBE75C02002010B584B091
:10245000322402940193009201230A460146044863
:10246000FEF7BAFD10B9002004B010BD0120FBE753
:102470005C02002000B583B002AA002302F8043DEC
:1024800001232121D220FFF7CDFF01236A4621211C
:10249000D320FFF7DBFF9DF800301BB1012003B014
:1024A0005DF804FB02AA02F8043D01232321D22097
:1024B000FFF7B8FF01236A462321D320FFF7C6FFA9
:1024C0009DF800300BB10120E9E702AA122302F8BF
:1024D000043D01232421D220FFF7A4FF01236A46F3
:1024E0002421D320FFF7B2FF9DF80030122B01D03A
:1024F0000120D4E702AA1F2302F8043D0123202172
:10250000D220FFF78FFF01236A462021D320FFF757
:102510009DFF9DF800301F2B01D00120BFE7012354
:102520006A460F21D320FFF791FF9DF80030D32B8F
:1025300001D00120B3E70020B1E700000000000057
:1025400010B582B0044601230DF107022721D320E4
:10255000FFF77CFF58B99DF8073013F0080F00F023
:102560008F8013F0800F04D1002002B010BDFFF760
:10257000E9FE01230DF106022921D320FFF766FFB2
:10258000002871D101230DF105022821D320FFF786
:102590005DFF00286AD19DF806309DF8050040EAED
:1025A000032000B200F094FA0022394B00F0F6FA52
:1025B00035A3D3E9002300F0F1FA00F09FFD00F00D
:1025C000EDFD208001230DF106022B21D320FFF722
:1025D0003DFF00284CD101230DF105022A21D32013
:1025E000FFF734FF002845D19DF806309DF805001F
:1025F00040EA032000B200F06BFA0022244B00F006
:10260000CDFA21A3D3E9002300F0C8FA00F076FD4B
:1026100000F0C4FD608001230DF106022D21D320BE
:10262000FFF714FF40BB01230DF105022C21D3203D
:10263000FFF70CFF10BB9DF806309DF8050040EA3F
:10264000032000B200F044FA0022114B00F0A6FA79
:102650000DA3D3E9002300F0A1FA00F04FFD00F034
:102660009DFDA080012080E7FFF76CFEFFF76AFE6A
:10267000FFF768FEFFF766FEFFF764FEFFF762FEF6
:10268000002072E7AFF30080FCA9F1D24D62503F09
:102690000080214010B50446B0F900100848FFF74B
:1026A00097FEB4F902100748FFF792FEB4F9041040
:1026B0000548FFF78DFE0548FFF78AFE10BD00BFF5
:1026C000F4540008005500080C550008185500087F
:1026D00008B5FDF76DFEFFF7F1FDFFF738FEFFF7D8
:1026E00045FEFFF783FEFFF7C5FE30B1FFF72AFE78
:1026F00003E04FF4FA70FDF783FE0448FFF720FF74
:102700000028F6D00148FFF7C5FFF2E700030020DC
:1027100030B589B0002200921B4B196B41F00201C9
:102720001963196B01F00201009100990192196B74
:1027300041F002011963196B01F002010191019945
:1027400002921A6C42F480221A641B6C03F48023F8
:102750000293029B4FF4006303931223049301231B
:1027600005930323069307250795084C03A92046E4
:10277000FDF7CCFE4FF480630393079503A9204631
:10278000FDF7C4FE09B030BD00380240000402402D
:1027900030B589B0002200921B4B196B41F0020149
:1027A0001963196B01F00201009100990192196BF4
:1027B00041F002011963196B01F0020101910199C5
:1027C0000292196C41F4001119641B6C03F400139C
:1027D0000293029B4FF48073039312230493059298
:1027E0000223069304250795084C03A92046FDF70C
:1027F0008DFE4FF400730393079503A92046FDF760
:1028000085FE09B030BD00BF003802400004024020
:102810007047FEE7FEE7FEE7FEE770477047704748
:1028200008B5FDF7DFFD08BD7047704781F0004136
:1028300002E000BF83F0004330B54FEA41044FEAA5
:10284000430594EA050F08BF90EA020F1FBF54EA40
:10285000000C55EA020C7FEA645C7FEA655C00F0DC
:10286000E2804FEA5454D4EB5555B8BF6D420CDDAD
:102870002C4480EA020281EA030382EA000083EA30
:10288000010180EA020281EA0303362D88BF30BDD0
:1028900011F0004F4FEA01314FF4801C4CEA113126
:1028A00002D0404261EB410113F0004F4FEA033385
:1028B0004CEA133302D0524263EB430394EA050F10
:1028C00000F0A780A4F10104D5F1200E0DDB02FA7F
:1028D0000EFC22FA05F2801841F1000103FA0EF213
:1028E000801843FA05F359410EE0A5F120050EF1D9
:1028F000200E012A03FA0EFC28BF4CF0020C43FA0A
:1029000005F3C01851EBE37101F0004507D54FF016
:10291000000EDCF1000C7EEB00006EEB0101B1F566
:10292000801F1BD3B1F5001F0CD349085FEA3000AC
:102930004FEA3C0C04F101044FEA445212F5800FB7
:1029400080F09A80BCF1004F08BF5FEA500C50F154
:10295000000041EB045141EA050130BD5FEA4C0C37
:10296000404141EB010111F4801FA4F10104E9D1C0
:1029700091F0000F04BF01460020B1FA81F308BFB7
:102980002033A3F10B03B3F120020CDA0C3208DD83
:1029900002F1140CC2F10C0201FA0CF021FA02F15E
:1029A0000CE002F11402D8BFC2F1200C01FA02F1CE
:1029B00020FA0CFCDCBF41EA0C019040E41AA2BFF3
:1029C00001EB0451294330BD6FEA04041F3C1CDABB
:1029D0000C340EDC04F11404C4F1200220FA04F0DB
:1029E00001FA02F340EA030021FA04F345EA030185
:1029F00030BDC4F10C04C4F1200220FA02F001FA47
:102A000004F340EA0300294630BD21FA04F02946C8
:102A100030BD94F0000F83F4801306BF81F4801161
:102A20000134013D4EE77FEA645C18BF7FEA655CD4
:102A300029D094EA050F08BF90EA020F05D054EAA6
:102A4000000C04BF1946104630BD91EA030F1EBFAB
:102A50000021002030BD5FEA545C05D140004941AF
:102A600028BF41F0004130BD14F580043CBF01F5A2
:102A7000801130BD01F0004545F0FE4141F4700188
:102A80004FF0000030BD7FEA645C1ABF1946104663
:102A90007FEA655C1CBF0B46024650EA013406BF64
:102AA00052EA033591EA030F41F4002130BD00BF23
:102AB00090F0000F04BF0021704730B54FF48064E0
:102AC00004F132044FF000054FF0000150E700BF61
:102AD00090F0000F04BF0021704730B54FF48064C0
:102AE00004F1320410F0004548BF40424FF00001AD
:102AF0003EE700BF42004FEAE2014FEA31014FEAF0
:102B000002701FBF12F07F4393F07F4F81F060513E
:102B1000704792F0000F14BF93F07F4F704730B5AD
:102B20004FF4607401F0004521F0004120E700BF40
:102B300050EA010208BF704730B54FF000050AE0C7
:102B400050EA010208BF704730B511F0004502D5C8
:102B5000404261EB41014FF4806404F132045FEACA
:102B6000915C3FF4DCAE4FF003025FEADC0C18BF6F
:102B700003325FEADC0C18BF033202EBDC02C2F165
:102B8000200300FA03FC20FA02F001FA03FE40EAF7
:102B90000E0021FA02F11444C1E600BF70B54FF0F7
:102BA000FF0C4CF4E06C1CEA11541DBF1CEA1355D9
:102BB00094EA0C0F95EA0C0F00F0DEF82C4481EA41
:102BC000030621EA4C5123EA4C5350EA013518BF61
:102BD00052EA033541F4801143F4801338D0A0FB4E
:102BE00002CE4FF00005E1FB02E506F00042E0FBFB
:102BF00003E54FF00006E1FB03569CF0000F18BF01
:102C00004EF0010EA4F1FF04B6F5007F64F54074A8
:102C100004D25FEA4E0E6D4146EB060642EAC6213B
:102C200041EA55514FEAC52040EA5E504FEACE2EA8
:102C3000B4F1FD0C88BFBCF5E06F1ED8BEF1004FAB
:102C400008BF5FEA500E50F1000041EB045170BD27
:102C500006F0004646EA010140EA020081EA03016B
:102C6000B4EB5C04C2BFD4EB0C0541EA045170BD67
:102C700041F480114FF0000E013C00F3AB8014F1E1
:102C8000360FDEBF002001F0004170BDC4F100042A
:102C9000203C35DA0C341BDC04F11404C4F12005AB
:102CA00000FA05F320FA04F001FA05F240EA020006
:102CB00001F0004221F0004110EBD37021FA04F63C
:102CC00042EB06015EEA430E08BF20EAD37070BDF6
:102CD000C4F10C04C4F1200500FA04F320FA05F055
:102CE00001FA04F240EA020001F0004110EBD37057
:102CF00041F100015EEA430E08BF20EAD37070BDC7
:102D0000C4F1200500FA05F24EEA020E20FA04F39F
:102D100001FA05F243EA020321FA04F001F000414E
:102D200021FA04F220EA020000EBD3705EEA430EBF
:102D300008BF20EAD37070BD94F0000F0FD101F0EE
:102D40000046400041EB010111F4801F08BF013C27
:102D5000F7D041EA060195F0000F18BF704703F065
:102D60000046520043EB030313F4801F08BF013DEC
:102D7000F7D043EA0603704794EA0C0F0CEA1355A8
:102D800018BF95EA0C0F0CD050EA410618BF52EA62
:102D90004306D1D181EA030101F000414FF0000068
:102DA00070BD50EA410606BF1046194652EA430676
:102DB00019D094EA0C0F02D150EA013613D195EAEA
:102DC0000C0F05D152EA03361CBF104619460AD132
:102DD00081EA030101F0004141F0FE4141F470013C
:102DE0004FF0000070BD41F0FE4141F4780170BD2C
:102DF00070B54FF0FF0C4CF4E06C1CEA11541DBF91
:102E00001CEA135594EA0C0F95EA0C0F00F0A7F892
:102E1000A4EB050481EA030E52EA03354FEA0131BF
:102E200000F088804FEA03334FF0805545EA1313D2
:102E300043EA12634FEA022245EA111545EA10659A
:102E40004FEA00260EF000419D4208BF964244F131
:102E5000FD0404F5407402D25B084FEA3202B61A50
:102E600065EB03055B084FEA32024FF480104FF424
:102E7000002CB6EB020E75EB030E22BFB61A754698
:102E800040EA0C005B084FEA3202B6EB020E75EB2B
:102E9000030E22BFB61A754640EA5C005B084FEA93
:102EA0003202B6EB020E75EB030E22BFB61A754660
:102EB00040EA9C005B084FEA3202B6EB020E75EB6B
:102EC000030E22BFB61A754640EADC0055EA060E2C
:102ED00018D04FEA051545EA16754FEA06164FEA6F
:102EE000C30343EA52734FEAC2025FEA1C1CC0D11B
:102EF00011F4801F0BD141EA00014FF000004FF0A8
:102F0000004CB6E711F4801F04BF01430020B4F168
:102F1000FD0C88BFBCF5E06F3FF6AFAEB5EB030C20
:102F200004BFB6EB020C5FEA500C50F1000041EB1D
:102F3000045170BD0EF0004E4EEA113114EB5C04EA
:102F4000C2BFD4EB0C0541EA045170BD41F48011BD
:102F50004FF0000E013C90E645EA060E8DE60CEAC5
:102F6000135594EA0C0F08BF95EA0C0F3FF43BAFE2
:102F700094EA0C0F0AD150EA01347FF434AF95EA99
:102F80000C0F7FF425AF104619462CE795EA0C0F7D
:102F900006D152EA03353FF4FDAE1046194622E74A
:102FA00050EA410618BF52EA43067FF4C5AE50EA24
:102FB00041047FF40DAF52EA43057FF4EBAE12E714
:102FC0004FF0FF3C06E000BF4FF0010C02E000BFF5
:102FD0004FF0010C4DF804CD4FEA410C7FEA6C5CD8
:102FE0004FEA430C18BF7FEA6C5C1BD001B050EA7B
:102FF000410C0CBF52EA430C91EA030F02BF90EA66
:10300000020F0020704710F1000F91EA030F58BF24
:10301000994208BF90422CBFD8176FEAE37040F086
:10302000010070474FEA410C7FEA6C5C02D150EA24
:10303000013C07D14FEA430C7FEA6C5CD6D152EADF
:10304000033CD3D05DF8040B704700BF84461046A4
:1030500062468C461946634600E000BF01B5FFF7A3
:10306000B7FF002848BF10F1000F01BD4DF808ED73
:10307000FFF7F4FF0CBF012000205DF808FB00BF44
:103080004DF808EDFFF7EAFF34BF012000205DF89E
:1030900008FB00BF4DF808EDFFF7E0FF94BF0120EB
:1030A00000205DF808FB00BF4DF808EDFFF7CEFFEC
:1030B00094BF012000205DF808FB00BF4DF808ED2B
:1030C000FFF7C4FF34BF012000205DF808FB00BFFC
:1030D0004FEA410C7FEA6C5C02D150EA013C0AD114
:1030E0004FEA430C7FEA6C5C02D152EA033C02D106
:1030F0004FF0000070474FF0010070474FEA410267
:10310000B2F1E04324BFB3F5001CDCF1FE5C0DD945
:1031100001F0004C4FEAC0024CEA5070B2F1004F8F
:1031200040EB830008BF20F00100704711F0804F92
:1031300021D113F13872BCBF01F00040704741F457
:1031400080114FEA5252C2F11802C2F1200C10FA5B
:103150000CF320FA02F018BF40F001004FEAC1233F
:103160004FEAD32303FA0CFC40EA0C0023FA02F3E3
:103170004FEA4303CCE77FEA625307D150EA0133B9
:103180001EBF4FF0FE4040F44000704701F0004089
:1031900040F0FE4040F40000704700BF4FEA40029C
:1031A000B2F1FE4F0FD34FF09E03B3EB12620DD975
:1031B0004FEA002343F0004310F0004F23FA02F0DF
:1031C00018BF404270474FF00000704712F1610F86
:1031D00001D1420205D110F0004008BF6FF000405D
:1031E00070474FF000007047014B1868704700BFF0
:1031F000300000202DE9F04788B0002B149F129971
:10320000109DDDF84CA01E4627F02007BBBF03F140
:1032100000431E4600232D23462F14460B7004D076
:10322000452F00D10135022300E0032307AA0492B1
:1032300006AA03928DE828042246334600F008FDD2
:10324000472F804602D1119BDB0726D5462F08EB7E
:10325000050911D198F80030302B0AD10022002343
:1032600020463146FFF702FF18B9C5F10105CAF83B
:103270000050DAF8003099440022002320463146FD
:10328000FFF7F4FE38B93022079B994505D9591C40
:1032900007911A70F8E7CDF81C90079B159AA3EBDD
:1032A00008034046136008B0BDE8F087F7B5034651
:1032B0000029B8BF494203F8022BB4BF2D222B22AC
:1032C0000929427020DD0DF1070217460A2691FBFD
:1032D000F6F506FB15113031092D02F8011C02F13B
:1032E000FF34294609DC3031023A04F8011CBA42A5
:1032F0001C4604D3201A03B0F0BD2246E7E712F8BB
:10330000011B03F8011BF2E730221C46114404F8AC
:10331000022B5970EEE700002DE9F04F91B00C46FA
:103320001A9F93461E46054601F064FA0368099306
:10333000184600F0BFFB00230E933B680A9007334A
:1033400023F0070303F1080294F81880D4F800A0D2
:103350003A60D3E90023C4E91223D4F84C90A76C57
:1033600029F000430B934FF0FF32A64B0B993846E0
:10337000FFF7AEFE002840F0F7814FF0FF32A14B7F
:103380000B993846FFF786FE002840F0ED810022B9
:10339000002338464946FFF773FE10B12D2384F809
:1033A0004330994B994FB8F1470F98BF1F460323FD
:1033B00023612AF0040323604FF0000900965B4666
:1033C0000FAA2146284600F0DFF9013040F09A802C
:1033D0004FF0FF3011B0BDE8F08F6268531C0EA8AB
:1033E0004AF480630DF1340E41D1062262602360FD
:1033F00000210DF13302019363680590029200935E
:103400003A464B460691CDF81080CDF80CE02846A0
:10341000FFF7F0FE08F0DF03472B074609D10D9BAD
:10342000D81C02DB6268934259DDA8F102085FFAFA
:1034300088F8B8F1650F0D9936D80139424604F184
:1034400050000D91FFF732FF0E9A8318012A814632
:10345000236102DC2268D10701D5013323619DF885
:103460003330002BAAD02D2384F84330A6E7B8F1DF
:10347000670F02D0B8F1470FB9D19AB10021069178
:103480000DF133018DE80C00236005903A46CDF82C
:103490001080CDF80CE002914B462846FFF7AAFEBB
:1034A0000746BCE70122A1E7B8F1660F19D1002950
:1034B00063680CDD216113B92268D20702D501339C
:1034C0000B4423610D9BA3654FF00009C7E713B9B7
:1034D0002268D00701D50233F3E70123F1E74FF06B
:1034E00067080D9B0E9A934205DB22682361D10782
:1034F000E8D50133E5E7002BD4BFC3F10203012374
:103500001344DEE723685A0507D423693A4659462F
:103510002846B04701302AD15AE7B8F1650F40F28A
:10352000DC8000220023D4E91201FFF79FFD002870
:1035300039D00123364A59462846B04701303FF476
:1035400047AF0E9B0D9A9A4202DB2368D8070ED52F
:103550000A9B099A59462846B04701303FF438AFD4
:10356000002704F11A080E9B013B9F4211DB2368E0
:103570009F0708D5002704F11908E3680F9A9B1AE2
:103580009F42C0F2E780E0680F9B9842B8BF1846A0
:1035900020E70123424659462846B04701303FF410
:1035A00017AF0137DFE70D9B002B33DC0123184AEF
:1035B00059462846B04701303FF40AAF0D9B23B966
:1035C0000E9B13B92368D907D1D50A9B099A59468E
:1035D0002846B04701303FF4FBAE4FF0000804F13D
:1035E0001A090D9B5B42984501DB0E9B8EE7012378
:1035F0004A4659462846B04701303FF4E9AE08F143
:103600000108EEE7FFFFEF7F1C550008205500087A
:103610002C5500080E9AA36D9A42A8BF1A46002A9C
:10362000904636DC04F11A034FF0000A28EAE878E5
:103630000B93D4F85890A9EB08039A4531DB0E9B05
:103640000D9A9A4238DB2368DA0735D40E9B0D9920
:10365000A3EB0902A3EB01089045A8BF9046B8F17F
:10366000000F31DC002728EAE87804F11A090D9AE6
:103670000E9B9B1AA3EB08039F42BFF678AF012372
:103680004A4659462846B04701303FF4A1AE0137BB
:10369000EDE7134659463A462846B0470130C1D1B6
:1036A00096E601230B9A59462846B04701303FF46D
:1036B0008FAE0AF1010ABCE70A9B099A59462846CF
:1036C000B0470130C2D183E6434607EB09025946B1
:1036D0002846B0470130C5D17AE60E9A012A01DCAE
:1036E000DB0734D501233A4659462846B047013016
:1036F0003FF46EAE0A9B099A59462846B0470130FE
:103700003FF466AE00220023D4E91201FFF7AEFCBD
:1037100050B1002704F11A080E9B013B9F420CDBBD
:103720004B4604F15002F2E60E9B7A1C013B5946CF
:103730002846B0470130F3D14AE6012342465946B4
:103740002846B04701303FF443AE0137E4E7012398
:103750003A46ECE70123424659462846B047013035
:103760003FF436AE013708E73A464B4638464946FD
:10377000FFF7AEFC00283FF430AE014B014F12E6DC
:1037800024550008285500082DE9F04791461F46AA
:103790008A680B69DDF820809342B8BF1346C9F8E8
:1037A000003091F8432006460C4612B10133C9F8A7
:1037B00000302368990642BFD9F800300233C9F8B7
:1037C0000030256815F0060507D104F1190AE368F1
:1037D000D9F800209B1A9D4229DB94F843302268D7
:1037E000003318BF012392062ED404F14302394658
:1037F0003046C047013021D02368E568D9F8002061
:1038000003F00603042B08BFAD1AA36822690CBF9E
:1038100025EAE57500259342C4BF9B1AED184FF0C9
:1038200000091A344D451BD10020BDE8F087012363
:10383000524639463046C047013003D14FF0FF3081
:10384000BDE8F0870135C2E7E1185A1C302081F845
:103850004300224494F8451082F843100233C4E731
:103860000123224639463046C0470130E6D009F1EF
:103870000109D7E72DE9F04317460A7E85B06E2A85
:10388000984606460C460C9B01F1430E00F0BC80A6
:103890001AD8632A2ED00AD8002A00F0C880582AE5
:1038A00000F08A8004F1420584F842202AE0642A6C
:1038B00001D0692AF6D121681A6811F0800F23D04F
:1038C000111D1960136827E0732A00F0B48008D82E
:1038D0006F2A2AD0702AE5D10A6842F020020A60D5
:1038E00003E0752A21D0782ADCD1782284F845209B
:1038F0006E4964E01A6801F14205111D19601368F0
:1039000084F842300123A3E011F0400F02F10401DA
:103910001960D7D0B2F90030002B03DA2D225B42B8
:1039200084F8432062490A2217E02068196810F0E1
:10393000800F03D0081D18600B6806E010F0400FE0
:1039400001F104001860F7D00B8859496F2A14BFA1
:103950000A220822002084F843006568A560002D33
:10396000C0F29C80206820F004002060002B3FD132
:10397000002D40F095807546082A0BD12368DA07A0
:1039800008D5236962689A42DEBF302305F8013CFE
:1039900005F1FF35AEEB05032361CDF800803B4612
:1039A00003AA21463046FFF7EFFE013055D14FF014
:1039B000FF3005B0BDE8F08381F845203C4922681E
:1039C000186812F0800F00F104051D6001D0036833
:1039D00002E05506FBD50388D00744BF42F0200221
:1039E00022601BB9226822F0200222601022B1E777
:1039F0007546B3FBF2F002FB1033CB5C05F8013DDA
:103A000003460028F5D1B7E708681A68496910F03D
:103A1000800F04D0101D18601368196007E010F0C3
:103A2000400F02F1040018601368F6D019800023DB
:103A300023617546B1E71A68111D1960156862683F
:103A40000021284600F0ECFE08B1401B606063686E
:103A50002361002384F843309FE723692A463946CF
:103A60003046C0470130A2D023689B0707D5002508
:103A700004F11909E368039A9B1A9D4205DBE0688B
:103A8000039B9842B8BF184693E701234A4639463C
:103A90003046C04701308AD00135EBE7002BA7D173
:103AA0000B7884F8423004F1420565E73F55000881
:103AB0002E550008034613F8012B002AFBD1181AD3
:103AC0000138704730B5141E05469BB0184605DA1C
:103AD0008B232B604FF0FF301BB030BD4FF40273CF
:103AE000ADF80C3014BF04F1FF3323460293059365
:103AF0004FF6FF7300910491ADF80E3002461E9B05
:103B00006946284601F0CEFA431CBCBF8B232B60CC
:103B1000002CE1D0009B00221A70DDE707B500936E
:103B200013460A46014603480068FFF7CBFF03B07F
:103B30005DF804FB300000202DE9F74F03690C69A4
:103B40009C42804600F38280013C01F114074FEA59
:103B5000840E00F1140657F8245056F8240006EBA2
:103B60000E03013507EB0E090193B0FBF5F595B394
:103B70004FF0000A3846B446D34650F8042B93B2AF
:103B800005FB03A34FEA134A9BB2ABEB0303120CF2
:103B9000BCF800B005FB02A213FA8BF34FEA124AFD
:103BA0001FFA82FBDCF80020CBEB124202EB23422F
:103BB0009BB243EA024381454FEA224B4CF8043B57
:103BC000DBD256F80E3033B9019B043B9E421A46B5
:103BD00030D3C8F81040404601F087F8002825DBB4
:103BE000013530464FF0000E57F8042BD0F800C0D6
:103BF00093B2AEEB0303120C13FA8CF3C2EB1C422C
:103C000002EB23429BB243EA0243B9454FEA224EFC
:103C100040F8043BE8D256F8242006EB84032AB986
:103C2000043B9E421A460BD3C8F81040284603B006
:103C3000BDE8F08F1268043B002ACAD1013CC5E7F9
:103C40001268043B002AEFD1013CEAE70020EEE7CE
:103C50002DE9F04F466A95B00446219DCDE9022337
:103C60003EB9102000F0D4FD6062466086600660B8
:103C7000C660636A196851B15A684A60012393406B
:103C80008B60204600F05BFE636A00221A60039B93
:103C9000002BBFBF01232B60039B23F00043B2BF67
:103CA000039300232B60DDF80C90A94B33EA090342
:103CB0001BD1209A42F20F731360029B23B9C9F300
:103CC0001300002800F08185229B53B9A14B21E00D
:103CD000A14B06930833229A1360069815B0BDE8ED
:103CE000F08F9C4B06930333F5E7DDE90267002272
:103CF000002330463946FFF7B9F9804660B1209A73
:103D000001231360229B002B00F05C85934B229AC9
:103D10001360013B0693E0E712AB019313AB0093F2
:103D200032463B46204601F058F8C9F30A55824610
:103D3000002D7CD0C7F3130343F07F51304641F48C
:103D40004011A5F2FF35CDF840800022844BFEF7EC
:103D500071FD79A3D3E90023FEF720FF78A3D3E90F
:103D60000023FEF769FD064628460F46FEF7B0FE23
:103D700075A3D3E90023FEF711FF02460B46304638
:103D80003946FEF759FD06460F4601F001FB0022B9
:103D90008346002330463946FFF772F958B158463A
:103DA000FEF796FE02460B4630463946FFF75EF9AF
:103DB00008B90BF1FF3BBBF1160F57D8694901EB6E
:103DC000CB01DDE90223D1E90001FFF777F90028F3
:103DD0004ED00BF1FF3B00230D93129B5D1B6B1E1E
:103DE000079343BF0023C5F1010807934FF0000874
:103DF000BBF1000F3EDB079BCDF830B05B4407936F
:103E0000002308931E9B092B00F2B080052BC4BF32
:103E1000043B1E931E9BA3F10203CCBF0026012688
:103E2000032B00F2AF80DFE803F083852D77139B2F
:103E3000129D1D4405F23243202B11DD029A05F23A
:103E40001240C3F1400322FA00F009FA03F31843C9
:103E5000FEF72EFE0123A1F1F871013D109374E7E6
:103E6000C3F12000029B03FA00F0F1E70123B3E75E
:103E70000D90B2E7CBF1000308930023A8EB0B08E9
:103E80000C93BFE7012309931F9B002B7DDD049357
:103E90009946656A00226A60042101F114029A427F
:103EA00078D96968204600F016FD636A28601B68AF
:103EB0000693B9F10E0F00F2EE80002E00F0EB80B9
:103EC000DDE90223BBF1000FCDE90E2377DD254AA2
:103ED0000BF00F0302EBC303D3E900234FEA2B16C9
:103EE000F006CDE90A235AD51F4BDDE90E01D3E9CF
:103EF0000823FEF77DFFCDE9020106F00F0603253A
:103F0000194F002E4DD1DDE90A23DDE90201FEF74C
:103F10006FFFCDE902016CE0012309931F9B5B4415
:103F200003F1010904934B46012BB8BF0123B0E70D
:103F30000023A8E70023F0E761436F63A787D23F20
:103F4000B3C8608B288AC63FFB799F501344D33F88
:103F50000000F07F59550008505500082D55000805
:103F60000000F83F8855000860550008012600232E
:103F70001E9309964FF0FF330493994600221223B3
:103F80001F9286E701230993F4E7012304939946DE
:103F90001A46F5E76A6801326A6049007DE7022542
:103FA000AEE7F10708D5DDE90A01D7E90023FEF7FE
:103FB000F5FDCDE90A01013576100837A1E700F0DB
:103FC000A580CBF10006A34BA34F06F00F0203EB35
:103FD000C203D3E90023DDE90E01FEF7DFFDCDE9E1
:103FE0000201361100230225002E40F08480002BB0
:103FF0008FD10D9B002B00F08B80DDE90223CDE9F2
:104000000A23DDE90A010022944BFFF739F8002862
:104010007ED0B9F1000F7BD0049B002B37DD00224E
:104020008F4BDDE90A01FEF7B9FDCDE90201049EDF
:104030000BF1FF3701352846FEF74AFDDDE9022383
:10404000FEF7ACFD874B0022FEF7F6FBCDE90A0137
:104050000B9BA3F150750B95002E5CD10022824B77
:10406000DDE90201FEF7E6FB0A9A2B46CDE90201E3
:10407000FFF724F8002840F0F7820A9A05F1004380
:10408000DDE90201FEF7FCFF002840F0EB82DDE9EC
:104090000E23CDE90223139B002BC0F25181BBF10B
:1040A0000E0F00F34D816B4B03EBCB03D3E90023E1
:1040B000CDE904231F9B002B80F2DA80B9F1000FB9
:1040C00000F3D68040F0CD820022674BDDE9040189
:1040D000FEF764FDDDE90223FEF7E6FF4E464F469C
:1040E000002840F0A482069B069A5D1C31231370C1
:1040F0000BF1010B9FE2F20705D5D7E90023FEF78C
:104100004DFD01350123761008376DE7022570E774
:104110005F464E468FE7069A4E4B32441192099AFB
:10412000711E002A48D003EBC103D3E9002300200D
:104130004E49FEF75DFEDDE90A23FEF77BFBCDE984
:104140000A01069DDDE9020101F022F90646FEF7AB
:10415000BFFC02460B46DDE90201FEF76BFB303681
:1041600005F8016BDDE90A23CDE90201FEF788FFBE
:10417000002865D1DDE9022300203849FEF75AFB0B
:10418000DDE90A23FEF77CFF002840F0B980119B8F
:104190009D423FF47CAF0022314BDDE90A01FEF77E
:1041A000FDFC0022CDE90A012D4BDDE90201FEF7FD
:1041B000F5FCCDE90201C5E703EBC101D1E900013E
:1041C000DDE90A23FEF7EAFCCDE90A01069DDDE9F7
:1041D000020101F0DDF80646FEF77AFC30360246B1
:1041E0000B46DDE90201FEF725FB05F8016B119B8B
:1041F000AB42CDE902014FF0000225D11B4BDDE9B6
:104200000A01FEF719FB02460B46DDE90201FEF743
:1042100055FF002874D1DDE90A2300201349FEF779
:1042200009FB02460B46DDE90201FEF729FF0028E3
:104230003FF42DAF15F8013C302B05F1FF3201D0D2
:10424000BB464CE01546F5E7054BFEF7A7FCCDE96C
:104250000201BCE788550008605500080000F03FE7
:104260000000244000001C40000014400000E03F1B
:10427000DDE90267069DDDE9042330463946FEF795
:10428000B7FD01F085F88046FEF722FCDDE9042346
:10429000FEF784FC02460B463046394608F13006EC
:1042A000FEF7C8FA05F8016B069EAE1BB145024643
:1042B0000B4638D1FEF7C0FA06460F4602460B46BB
:1042C000DDE90401FEF7DCFEC8B932463B46DDE914
:1042D0000401FEF7CBFE10B118F0010F0FD15146CB
:1042E000204600F02CFB0023209A2B700BF10103D9
:1042F0001360229B002B3FF4F0AC1D60EDE45F46A1
:1043000015F8012C392A05F1FF3306D1069A9A4295
:1043100007D130231370013713461A7801321A700F
:104320008EE71D46ECE70022B44BFEF737FC002277
:10433000002306460F46FEF799FE00289BD0CEE7E5
:10434000099A002A00F029811E9A012A00F30E81A1
:10435000109A002A00F0068103F23343089E454676
:10436000079A01211A4420469844079200F087FBDF
:104370000746002D0BDD079B002B08DDAB42079A9B
:10438000A8BF2B46A8EB0308ED1AD31A0793089B86
:10439000FBB1099B002B00F00481002E11DD394692
:1043A0003246204600F002FC5246014607462046AF
:1043B00000F06EFB51460A90204600F0C0FA0A9BBE
:1043C0009A46089B9A1B04D05146204600F0EEFB0B
:1043D00082460121204600F052FB0C9B002B064632
:1043E00040F3E1801A460146204600F0DFFB1E9BA9
:1043F000012B064640F3DA8000230893336906EB6D
:104400008303186900F0EDFAC0F12000079B1844FF
:1044100010F01F0000F0F080C0F12003042B40F3E7
:10442000E280079BC0F11C008044054403440793CD
:10443000B8F1000F05DD51464246204600F004FC6D
:104440008246079B002B05DD31461A46204600F0C8
:10445000FBFB06460D9B002B00F0D28031465046F8
:1044600000F043FC002880F2CB80002351460A2252
:10447000204600F07BFA099B0BF1FF3B8246002BA4
:1044800000F0AA81002339460A22204600F06EFA85
:10449000049B002B074603DC1E9B022B00F3B88015
:1044A000002D05DD39462A46204600F0CDFB0746A3
:1044B000089B002B00F010817968204600F00BFA71
:1044C0003A6902320546920007F10C010C3000F007
:1044D000F7F901222946204600F0B6FB029BDDF8E1
:1044E0001880079703F001030746089331465046AA
:1044F000FFF722FB0799054600F13009504600F00E
:10450000F4FB3A4602903146204600F008FCC368AE
:104510000246002B40F0E28001460990504600F030
:10452000E4FB099A034611462046099300F007FA76
:10453000099B002B40F0D4801E9A002A40F0D080C6
:10454000089A002A40F0CC80B9F1390F00F0E880D9
:10455000029B002B01DD05F1310908F1010588F806
:1045600000906AE0129BC3F13603F7E6089B09F15D
:10457000FF36B342BFBF089B0896F21A0C9BB7BF29
:104580009B189E1B0C930026B9F1000FB9BFA8EB36
:104590000905002345464B46E2E6089E099F45462D
:1045A000E7E6089A10E71E9B012B18DC029BB3B9C3
:1045B000039BC3F31303A3B9039B23F000431B0D19
:1045C0001B052BB1079B0133079308F10108012359
:1045D00008930C9B002B7FF411AF012016E70023FA
:1045E000F6E7029BF4E73FF423AF079A1C331A4423
:1045F00098441D4413461AE70346F6E7000024409A
:10460000B9F1000F33DC1E9B022B30DDCDF810908A
:10461000049B63B931460522204600F0A7F9014604
:104620000646504600F061FB00283FF75CAD1F9B3B
:10463000069D6FEA030B002307933146204600F0E6
:104640007EF9002F3FF44BAE079B2BB1BB4203D04A
:104650001946204600F073F93946204600F06FF9FC
:104660003DE600263746E2E7BB4637463BE5099B79
:10467000CDF81090002B7FF413AF069D31465046C5
:10468000FFF75AFA00F1300905F8019B069B049ADE
:10469000EB1A9A4200F38380069B012AACBF9B1859
:1046A000013398460023079351460122204600F02B
:1046B000CBFA3146824600F018FB002835DC02D1E7
:1046C00019F0010F31D1454615F8013C302B05F1A9
:1046D000FF32B2D11546F7E73846FFE6012322E75D
:1046E000029A002A04DB29D11E9A3ABB089A2ABBF7
:1046F000002B7FF732AF51460122204600F0A4FA8A
:104700003146824600F0F1FA002805DC7FF425AF3F
:1047100019F0010F3FF421AFB9F1390F7FF41BAF4E
:10472000392388F8003008F10108454615F8013CA6
:10473000392B05F1FF323AD001333FE0002B08F16D
:10474000010505DDB9F1390FEAD009F1010906E7E4
:10475000069B049A05F8019CEB1A9342A846A3D045
:10476000514600230A22204600F000F9079B0799D2
:10477000BB4282464FF000034FF00A02204604D1AC
:1047800000F0F4F807900746B0E600F0EFF80023D9
:1047900007900A223946204600F0E8F8F3E7514630
:1047A00000230A22204600F0E1F8824666E7069BD5
:1047B000934205D1069A0BF1010B312313703CE7AC
:1047C0001546B3E7094BFFF7A5BA229B002B7FF4F0
:1047D0007FAA074BFFF79EBA049B002B3FF74DAF14
:1047E0001E9B022B7FF749AF12E700BF2C55000834
:1047F00050550008044B1B68186A044B002808BF7A
:104800001846F030704700BF3000002094000020B0
:10481000024B0146186800F08BBB00BF300000203F
:1048200001F0FF01102A2BDB10F0070F08D010F861
:10483000013B013A8B422DD010F0070F42B3F6D165
:10484000F0B441EA012141EA014122F007047FF07E
:1048500000070023F0E80256083C85EA010586EAD5
:10486000010685FA47F5A3FA87F586FA47F6A5FA11
:1048700087F68EB9EED1F0BC01F0FF0102F007021D
:1048800032B110F8013B013A83EA010313B1F8D1C8
:104890000020704701387047002D06BF35460338A9
:1048A000073815F0010F07D1013015F4807F02BFE2
:1048B000013015F4C03F0130F0BC0138704700BF33
:1048C00010B5431E0A44914200D110BD11F8014BAE
:1048D00003F8014FF7E770B5456A04460E463DB947
:1048E0001020FFF795FF6062456085600560C56038
:1048F000656AEB6883B1636ADB6853F82600B8B970
:10490000012101FA06F56A1D9200204600F0B4FA72
:1049100060B1466085600EE021220421204600F04F
:10492000ABFA636AE860DB68002BE4D1002070BD5D
:10493000026843F8262000230361C36070BD70B590
:10494000446A06460D463CB91020FFF761FF7062CD
:10495000446084600460C4603DB1736A6A68DB6867
:1049600053F82210296043F8225070BD2DE9F04120
:104970000D691F4606460C4601F1140E0023DEF8B1
:10498000000081B202FB01710F0C000C02FB0070F1
:1049900089B2013301EB00419D424FEA10474EF8C6
:1049A000041BECDCD7B1A3689D4212DB6168304682
:1049B0000131FFF790FF2269023204F10C018046B9
:1049C00092000C30FFF77CFF21463046FFF7B7FF1F
:1049D000444604EB850301355F6125612046BDE84F
:1049E000F081020C12040346B2B90304102013F044
:1049F0007F4F04BF1B02083013F0704F04BF1B0130
:104A0000043013F0404F04BF9B000230002B06DB44
:104A10005B0003D5013070470020E8E72020704795
:104A2000036813F0070201460BD0DA0723D4980776
:104A300049BF5B089B0801200B605CBF0B60022034
:104A4000704798B2A8B91B0C102013F0FF0F04BFD9
:104A50001B0A08301A0704BF1B0904309A0704BF59
:104A60009B080230DA0702D45B0806D001300B60E5
:104A700070471046E9E7002070472020704710B5C6
:104A80000C460121FFF727FF01224461026110BD9E
:104A90002DE9F74F14460A6923699A42B8BF0B46BD
:104AA0008946BCBFA1461C46D9F81070D4F810A0A6
:104AB000D9F80830D9F8041007EB0A069E42C8BF9F
:104AC0000131FFF708FF00F1140505EB86082B46BE
:104AD0000022434516D304F1140209F1140102EB3C
:104AE0008A0301EB87070193019C944213460CD87B
:104AF000002E03DD58F8043D002B54D0066103B0AE
:104B0000BDE8F08F43F8042BE3E7B3F800A00432CC
:104B1000BAF1000F20D0AE4689464FF0000C59F88C
:104B2000044BBEF800B0A3B20AFB03B34FEA144B28
:104B3000DEF8004063444FEA144C0AFB0BC404EB5C
:104B400013449BB243EA04434F454FEA144C4EF8DA
:104B5000043BE4D8CEF800C032F8029CB9F1000F53
:104B60001FD02B68AE468C464FF0000ABCF80040C0
:104B7000BEF802B009FB04B4A2449BB243EA0A4364
:104B80004EF8043B5CF8043BBEF800401B0C09FBEC
:104B9000034303EB1A4367454FEA134AE6D8CEF8BE
:104BA00000300435A0E7013EA2E700002DE9F843FC
:104BB000154612F0030206460F4607D0013A214C73
:104BC000002354F82220FFF7D1FE0746AD1035D060
:104BD000746A3CB91020FFF71BFE70624460846069
:104BE0000460C460D6F82480D8F808404CB940F27C
:104BF00071213046FFF743FF0023C8F80800044640
:104C000003604FF00008EB070AD5394622463046CC
:104C1000FFF73EFF394681463046FFF790FE4F468C
:104C20006D100BD0206838B9224621463046FFF778
:104C30002FFF2060C0F800800446E4E73846BDE856
:104C4000F88300BF505600082DE9F0470C464FEAA4
:104C5000621A236949680AEB0309A36807461646E6
:104C600009F10105AB4231DB3846FFF734FE002283
:104C7000804600F11403114652452ADB20692AEAD6
:104C8000EA7A04F1140116F01F0203EB8A0301EB28
:104C9000800E22D0C2F1200C00200E6896403043D6
:104CA00043F8040B51F8040B8E4520FA0CF0F4D8AD
:104CB000186008B109F10205013D3846C8F81050E6
:104CC0002146FFF73CFE4046BDE8F08701315B001E
:104CD000C8E743F822100132CEE7043B51F8042B19
:104CE00043F8042F8E45F9D8E6E703690A699B1A51
:104CF00030B50CD19200143014318418114454F89A
:104D0000045D51F8042D954203D005D301231846C4
:104D100030BDA042F3D3FAE74FF0FF33F7E72DE9B8
:104D2000F0470D460746114628461446FFF7DDFFBB
:104D3000061E08D131463846FFF7CDFD0123036139
:104D40004661BDE8F087A4BF23462C46384661681B
:104D5000A6BF1D4600260126FFF7BDFD2B69C660D4
:104D6000266905F1140904F1140202EB860709EB28
:104D7000830800F114054FF0000C52F804AB59F809
:104D8000044B1CFA8AF1A3B2C91A230CC3EB1A43D1
:104D900003EB214389B24FEA234CC84541EA034360
:104DA000964645F8043BE8D8BE4505D355F8043D82
:104DB0008BB10661BDE8F0875EF8041B1CFA81F335
:104DC0001A1402EB11429BB243EA02434FEA224C0F
:104DD00045F8043BE8E7013EE8E72DE9F34101210E
:104DE0001C469046089E099DFFF775FDC4F313020B
:104DF000C4F30A54074634BB0192B8F1000F27D020
:104E000002A840F8088DFFF70BFE0099F0B1019A57
:104E1000C0F1200302FA03F30B43C2407B6101920D
:104E2000019BBB61002B14BF022101213961C4B178
:104E3000A4F2334404443460C0F13500286038469D
:104E400002B0BDE8F08142F48012D5E77961E7E76E
:104E500001A8FFF7E5FD019B7B610121396120304D
:104E6000E5E707EB8103A0F2324030601869FFF7F5
:104E7000B8FDC0EB4110E1E738B502FB01F4214673
:104E800000F056F8054618B12246002100F03AFA23
:104E9000284638BD38B50546002945D051F8043CB0
:104EA0000C1F002BB8BFE41800F034FA1F4A136837
:104EB000104633B9636014602846BDE8384000F0FE
:104EC0002ABAA3420CD921686218934204BF1A6817
:104ED0005B68636004BF521822600460ECE713460D
:104EE0005A680AB1A242FAD919685818A0420BD1DF
:104EF00020680144581882421960DDD11068526858
:104F00005A6001441960D7E702D90C232B60D3E71C
:104F1000206821188A4204BF11685268626004BF89
:104F2000091821605C60C7E738BD00BF140200208B
:104F300070B5CD1C25F0030508350C2D38BF0C25A8
:104F4000002D064601DBA94203D90C233360002063
:104F500070BD00F0DFF9234A1468214691B9224C54
:104F600023681BB9304600F091F92060294630468D
:104F700000F08CF9431C26D10C233360304600F03E
:104F8000CAF9E4E70B685B1B1AD40B2B0FD90B6033
:104F9000CD50CC18304600F0BEF904F10B00231DB3
:104FA00020F00700C31A1BD05A42E25070BD8C4259
:104FB0000DBF63684B686360136018BF0C46E9E778
:104FC0000C464968CAE7C41C24F00304A04205D07B
:104FD000211A304600F05AF90130CDD02560D9E7CA
:104FE00070BD00BF14020020180200202DE9F04718
:104FF0008E689E4282460C469146984635D88A89EC
:1050000012F4906F31D0256809696F1A656902231F
:1050100005EB450595FBF3F508F101033B449D4283
:1050200038BF1D46530531D52946FFF781FF064697
:1050300050B90C23CAF80030A38943F04003A38180
:105040004FF0FF30BDE8F0873A462169FFF738FCA2
:10505000A38923F4906343F08003A38126616561F3
:105060003E44ED1B2660A5604646464528BF4646A1
:1050700032464946206800F02BF9A3689B1BA360C9
:1050800023681E4426600020BDE8F0872A4600F011
:1050900043F906460028E1D121695046FFF7FAFEA0
:1050A000C7E700002DE9F04F9DB0804603938B8940
:1050B0001C060D4616460FD50B696BB94021FFF74C
:1050C00037FF2860286128B90C23C8F800304FF05A
:1050D000FF30C5E040236B610023099320238DF846
:1050E000293030238DF82A304FF0010B37463C46EB
:1050F00014F8013B002B3CD1B7EB060A0BD053460A
:10510000324629464046FFF771FF013000F0A38088
:10511000099B534409933B78002B00F09C800023AB
:105120004FF0FF3204930793059206938DF85330A6
:105130001A93052221785048FFF772FB671C049BE5
:10514000D8B9D90644BF20228DF853201A0744BF8E
:105150002B228DF8532022782A2A16D0079A002174
:105160000A20274601343B78303B092B51D9C9B17D
:1051700011E0252BC0D02746B9E73F4A801A0BFA29
:1051800000F0184304903C46D3E7039A111D1268BF
:105190000391002A01DB079204E0524243F002032C
:1051A000079204933B782E2B0ED17B782A2B07F1A4
:1051B000010132D1039B1A1D1B680392002BB8BF5B
:1051C0004FF0FF33023705932C4C397803222046E9
:1051D000FFF726FB38B14023001B03FA00F0049BC5
:1051E000034304930137397825488DF828100622A7
:1051F0007E1CFFF715FB002835D0224BFBB9039B23
:10520000073323F0070308330393099B4B440993A7
:105210006CE700FB02320121A3E700230593184647
:105220000A240F4601313A78303A092A03D9002B73
:10523000CAD00590C8E704FB00200123F1E703ABC7
:1052400000932A46104B04A94046FEF765F8B0F1DA
:10525000FF3F8146D9D1AB895B063FF538AF09984E
:105260001DB0BDE8F08F03AB00932A46064B04A99E
:105270004046FEF7FFFAEAE75C560008625600086F
:105280006656000819330008ED4F000838B5064C83
:105290000023054608462360FCF7EEFE431C02D1BE
:1052A000236803B12B6038BD2002002082B001B911
:1052B00001A942B14BB113780B601278101C18BFD2
:1052C000012002B070471046FBE76FF00100F8E7DD
:1052D000884210B501EB020303D8421E99420CD15B
:1052E00010BD9842F9D28118D21AD34200D110BD14
:1052F00013F8014D01F8014DF7E711F8014B02F8E1
:10530000014FEBE702440346934200D1704703F894
:10531000011BF9E770477047F8B5074614460E467B
:1053200021B91146BDE8F840FFF702BE22B9FFF7E8
:10533000B1FD25462846F8BD00F021F884420FD97A
:1053400021463846FFF7F4FD05460028F2D03146E5
:105350002246FFF7B5FA31463846FFF79BFDE9E7ED
:105360003546E7E749B1FF2A85BF8A2303600A7003
:105370004FF0FF3098BF012070470846704751F842
:10538000040C0028A0F10400BCBF0B58C0187047E3
:105390004FEA410212F5001215D211D56FF478735D
:1053A000B3EB625212D94FEAC12343F0004343EA00
:1053B000505311F0004F23FA02F018BF40427047DB
:1053C0004FF00000704750EA013005D111F0004065
:1053D00008BF6FF0004070474FF00000704700BFFB
:1053E0002E2E2F73797374656D2F5372632F737420
:1053F0006D333266342D68616C2F73746D33326691
:105400003478785F68616C5F636F727465782E635F
:10541000000000002E2E2F73797374656D2F537268
:10542000632F73746D333266342D68616C2F73741F
:105430006D3332663478785F68616C5F6770696F6E
:105440002E6300002E2E2F73797374656D2F5372A7
:10545000632F73746D333266342D68616C2F7374EF
:105460006D3332663478785F68616C5F6932632EC1
:1054700063000000000000000102030401020304B5
:10548000060708092E2E2F73797374656D2F5372DA
:10549000632F73746D333266342D68616C2F7374AF
:1054A0006D3332663478785F68616C5F7263632E47
:1054B000630000002E2E2F73797374656D2F537265
:1054C000632F73746D333266342D68616C2F73747F
:1054D0006D3332663478785F68616C5F75617274C1
:1054E0002E63000000000000000000000102030421
:1054F00006070809582049733A20256864200000EF
:10550000592049733A202568642000005A204973C5
:105510003A202568642000000A000000494E460039
:10552000696E66004E414E006E616E003000303193
:1055300032333435363738394142434445460030FA
:105540003132333435363738396162636465660029
:10555000496E66696E697479004E614E0000000004
:105560000080E03779C34143176E05B5B5B893465F
:10557000F5F93FE9034F384D321D30F94877825A2B
:105580003CBF737FDD4F1575000000000000F03F49
:10559000000000000000244000000000000059400E
:1055A0000000000000408F40000000000088C34061
:1055B00000000000006AF8400000000080842E41D6
:1055C00000000000D01263410000000084D7974122
:1055D0000000000065CDCD41000000205FA0024228
:1055E000000000E876483742000000A2941A6D429D
:1055F000000040E59C30A2420000901EC4BCD64290
:1056000000003426F56B0C430080E03779C341433A
:1056100000A0D8855734764300C84E676DC1AB43B0
:10562000003D9160E458E143408CB5781DAF1544CE
:1056300050EFE2D6E41A4B4492D54D06CFF08044A9
:10564000F64AE1C7022DB544B49DD9794378EA44BE
:1056500005000000190000007D000000232D302B04
:105660002000686C4C006566674546470043005063
:105670004F534958002E00002020202020202020B9
:1056800020282828282820202020202020202020F2
:105690002020202020202020881010101010101012
:1056A000101010101010101004040404040404045A
:1056B00004041010101010101041414141414101EB
:1056C00001010101010101010101010101010101CA
:1056D00001010110101010101042424242424202D9
:1056E000020202020202020202020202020202029A
:1056F0000202021010101020000000000000000044
:105700000000000000000000000000000000000099
:105710000000000000000000000000000000000089
:105720000000000000000000000000000000000079
:105730000000000000000000000000000000000069
:105740000000000000000000000000000000000059
:105750000000000000000000000000000000000049
:105760000000000000000000000000000000000039
:08577000000000000000000031
:105778007856341210020020000000000024F400C3
:105788004000000010000000200000000800000099
:1057980000180240000C0240000C024000280240A1
:1057A800340000200000000000000000000000009D
:1057B80000000000000000000000000000000000E1
:1057C80000000000000000000000000000000000D1
:1057D80000000000000000000000000000000000C1
:1057E80000000000000000000000000000000000B1
:1057F80000000000000000000000000000000000A1
:10580800000000004300000000000000000000004D
:105818000000000000000000000000000000000080
:10582800000000004300000000000000000000002D
:105838000000000000000000000000000000000060
:10584800000000004300000000000000000000000D
:105858000000000000000000000000000000000040
:1058680000000000430000000000000000000000ED
:105878000000000000000000000000000000000020
:1058880000000000430000000000000000000000CD
:105898000000000000000000000000000000000000
:1058A80000000000430000000000000000000000AD
:1058B80000000000000000000000000000000000E0
:1058C800000000004300000000000000000000008D
:1058D80000000000000000000000000000000000C0
:1058E8000000000065530008AD52000800000000E9
:1058F800775600087556000861560008615600087A
:105908006156000861560008615600086156000893
:10591800615600086156000861560008FFFFFFFF46
:10592800FFFFFFFFFFFFFFFFFFFF000001004153E4
:10593800434949000000000000000000000000008A
:1059480000000000000000000000000000004153BB
:10595800434949000000000000000000000000006A
:10596800000000000000000000000000000000002F
:045978003254769897
:04000005080001B539
:00000001FF
