:020000040800F2
:1000000000000120E5020008E1270008E3270008BE
:10001000E5270008E7270008E9270008000000009E
:10002000000000000000000000000000EB270008B6
:10003000ED27000800000000EF270008F127000866
:100040005503000855030008550300085503000830
:100050005503000855030008550300085503000820
:100060005503000855030008550300085503000810
:100070005503000855030008550300085503000800
:10008000F9270008FB27000855030008550300085E
:1000900055030008550300085503000855030008E0
:1000A00055030008550300085503000855030008D0
:1000B00055030008550300085503000855030008C0
:1000C00055030008550300085503000855030008B0
:1000D00055030008550300085503000855030008A0
:1000E0005503000855030008550300085503000890
:1000F0005503000855030008550300085503000880
:10010000550300085503000855030008550300086F
:10011000550300085503000855030008550300085F
:10012000550300085503000855030008550300084F
:10013000550300085503000855030008550300083F
:10014000550300085503000855030008550300082F
:10015000550300085503000855030008550300081F
:10016000550300085503000855030008550300080F
:10017000550300085503000855030008000000005F
:1001800055030008550300085503000855030008EF
:1001900055030008550300085503000855030008DF
:1001A00055030008550300085503000855030008CF
:1001B0005503000800B583B001F08CFF384B394A75
:1001C0001360394A1360394906E011681960043335
:1001D00004329842F9D82146354B994205D20A6833
:1001E0004B6801F10C048868F3E72E4B1A68314B19
:1001F0009A4200D0FEE72C4B1A682F4B9A42F9D155
:10020000274B2E4A13602E4A13602E4B05E0002028
:10021000106004329342FAD80B462B4A934204D220
:10022000194651F8082B5B68F4E7244B1B6813B997
:10023000234B1B6803B1FEE702F038F8694601A8BA
:1002400001F03CFF214B224CE41AA4100025AC42E3
:1002500014DC204B204CE41AA4100025AC4213DC23
:100260000099019802F018FA05461C4B1C4CE41A40
:10027000A410002C0EDC284601F0F9FE134B53F8B5
:10028000253098470135E2E7124B53F8253098475F
:100290000135E3E7013C114B53F824309847E8E778
:1002A000BABADECA00000020040200205803000889
:1002B00070030008785634123254769808020020F1
:1002C0000803002070030008800300088003000872
:1002D00080030008800300088003000880030008F2
:1002E0008003000808B5FFF765FF00BEFEE71EF0BB
:1002F000040F0CBFEFF30880EFF309807146124A38
:10030000104700BEFEE700BEFEE71EF0040F0CBF64
:10031000EFF30880EFF3098071460C4A104700BEE6
:10032000FEE71EF0040F0CBFEFF30880EFF3098027
:100330007146074A104700BEFEE700BEFEE700BE5A
:10034000FEE700BEFEE77047030300081F03000836
:080350003703000800BEFEE7C0
:10035800A86700080000002008020020A86700081D
:100368000000001000000010080200200C0300200C
:0803780000000010000000105D
:100380007047000010B50446074B1868074BA3FBE5
:100390000030800900F0A4F8002221464FF0FF3021
:1003A00000F05AF8002010BD0C000020D34D621060
:1003B00008B50B4B1A6842F400721A601A6842F4CE
:1003C00080621A601A6842F480721A60032000F09A
:1003D00025F80F20FFF7D6FFFFF7D2FF002008BD5A
:1003E000003C0240024A136801331360704700BFAB
:1003F0001C020020014B1868704700BF1C0200203F
:1004000010B582B00190FFF7F5FF0446FFF7F2FF49
:10041000001B019B9842F9D302B010BD10B50446F1
:10042000C31E042B0FD80A4AD36823F4E0631B04CD
:100430001B0C240204F4E064234343F0BF6343F441
:100440000033D36010BDA421024801F03FFEEAE76B
:1004500000ED00E01064000870B505460C46164635
:100460000F2A24D80F2C27D81A4BDB68C3F302239A
:10047000C3F10702042A28BF0422191D062920D926
:10048000033B012101FA02F2013A14409C4001FAB7
:1004900003F3013B33401C43002D14DB2401E4B281
:1004A00005F1604505F5614585F8004370BDBC2147
:1004B000094801F00BFED5E7BD21074801F006FE13
:1004C000D2E70023DDE705F00F052401E4B2034B7A
:1004D0005C5570BD00ED00E01064000814ED00E014
:1004E0000138B0F1807F0AD2064B5860F021064AED
:1004F00082F823100020986007221A6070470120BC
:10050000704700BF10E000E000ED00E02DE9F0478B
:1005100082B080460F46BE4B98422BD003F58063D5
:10052000984227D003F58063984223D003F5806377
:1005300098421FD003F5806398421BD003F5806377
:10054000984217D003F58063984213D003F5806377
:1005500098420FD003F5806398420BD003F5806377
:10056000984207D003F58063984203D0C521A9487B
:1005700001F0ACFD3B8853B37B68012B22D9112BD2
:1005800020D0022B1ED0122B1CD0A34A934219D08C
:1005900002F58012934215D002F58012934211D0D9
:1005A000A2F5F81293420DD002F58012934209D0C1
:1005B00002F58012934205D0032B03D0C721954842
:1005C00001F084FDBB68022B06D800257CE0C62123
:1005D000904801F07BFDCFE7C8218E4801F076FD01
:1005E000F3E73B690BB3092B1FD0012B1DD0022B66
:1005F0001BD0032B19D0042B17D0052B15D0062B9D
:1006000013D0072B11D0082B0FD00A2B0DD00B2B9A
:100610000BD00C2B09D00D2B07D00F2B05D00E2B98
:1006200003D0D9217B4801F051FDE908083158F881
:10063000213005F0070292000F20904023EA0003CA
:10064000386900FA02F2134348F821304DE0EC21FA
:10065000704801F03BFD64E0092100E00021A14069
:100660000A4302336D4941F823206D4B1A686FEA43
:10067000090302EA0301786810F4803F01D049EAD7
:100680000201674A1160526803EA0201786810F4B7
:10069000003F01D049EA0201614A5160926803EAD1
:1006A0000201786810F4801F01D049EA02015C4A17
:1006B0009160D2681340796811F4001F01D049EAB3
:1006C0000203574AD36001350F2D00F29D800124AB
:1006D000AC403B6804EA03094C45F4D17B68022B2B
:1006E0003FF47FAF122B3FF47CAFD8F800304FEAD5
:1006F000450A032606FA0AF6F64333407A6802F002
:10070000030202FA0AF21343C8F800307B685A1E4B
:10071000012A03D9112B01D0122B16D1FB68032B10
:1007200095D8D8F808303340FA6802FA0AF2134331
:10073000C8F80830D8F8043023EA04047B68C3F30F
:100740000013AB401C43C8F80440D8F80C301E40DE
:10075000BB6803FA0AF31E43C8F80C607B6813F009
:10076000805FB0D0002301932E4B5A6C42F480423C
:100770005A645B6C03F480430193019BAB08991CA2
:10078000264A52F8212005F003018C000F21A140D8
:1007900022EA01021E4880453FF460AF22498845A5
:1007A00022D001F58061884520D001F5806188451F
:1007B0001ED001F5806188451CD001F58061884517
:1007C0001AD001F58061884518D001F5806188450F
:1007D00016D001F58061884514D001F58061884507
:1007E0003FF43AAF0A213AE7012138E7022136E720
:1007F000032134E7042132E7052130E706212EE703
:1008000007212CE708212AE702B0BDE8F08700BFE6
:10081000000002404464000800001110003801404C
:10082000003C0140003802400004024070B506461A
:1008300015460C4651B1012D04D94FF4D971074822
:1008400001F044FC45B92404B46170BD40F2B1111B
:10085000024801F03BFCEEE7B46170BD446400085F
:1008600003685A6912F4806F0DD06FF480625A6188
:100870000423036400230363202280F83D2080F8D2
:100880003C300120704700207047F8B506460C4602
:1008900017461D461CE02DB1FFF7ACFD069BC01AA4
:1008A000854215D200233363202286F83D2086F846
:1008B0003C300320F8BD33685B6924EA03039BB234
:1008C000B3FA83F35B09BB420FD1B5F1FF3FE2D12D
:1008D000C4F30743012BEED033689B6924EA03037A
:1008E0009BB2B3FA83F35B09EDE70020F8BDF8B5DE
:1008F00004460D4616461F4632E01A6842F400725E
:100900001A6023686FF480625A6104232364002311
:100910002363202284F83D2084F83C300120F8BD78
:1009200026B1FFF767FDC01B864219D2002323635F
:10093000202284F83D2084F83C300320F8BD236851
:100940005B6925EA03039BB2003318BF0123A3B1FF
:1009500023685A6912F4806FCFD1B6F1FF3FDFD11F
:10096000C5F30743012BEAD023689B6925EA0303FB
:100970009BB2003318BF0123E9E70020F8BD70B532
:1009800004460D46164623685B6913F0800F19D1A3
:100990002046FFF765FFB8B9B5F1FF3FF3D025B1A9
:1009A000FFF728FD801B8542EDD2236C43F0200326
:1009B000236400232363202284F83D2084F83C3004
:1009C000032070BD002070BD012070BD2DE9F041F5
:1009D00084B00546884616461F460B9C026813687D
:1009E00043F48073136000940A9B00224FF00111BE
:1009F000FFF74BFF20B10323184604B0BDE8F08198
:100A00002A6808F0FE03136123460A9A2349284600
:100A1000FFF76DFF30B12B6C042B01D00323EBE704
:100A20000123E9E7002303932B685A6903929B692A
:100A30000393039B22460A992846FFF7A0FF03462B
:100A400058B12B6C042B01D00323D5E72A68136817
:100A500043F4007313600123CEE7012F0ED02B68FF
:100A6000320A1A6122460A992846FFF788FF034690
:100A700078B12B6C042B05D00323BDE72A68F6B2AE
:100A80001661B9E72A68136843F400731360012301
:100A9000B2E72A68F6B21661AEE700BF02000100B5
:100AA0002DE9F04184B005460E46174698460B9C4A
:100AB0000268136843F4806313600268136843F4A8
:100AC0008073136000940A9B00224FF00111FFF71E
:100AD000DCFE20B10323184604B0BDE8F0812B688A
:100AE000F6B206F0FE021A6123460A9A3D492846EC
:100AF000FFF7FDFE30B12B6C042B01D00323EAE796
:100B00000123E8E7002303932B685A6903929B694A
:100B10000393039B22460A992846FFF730FF58B1FA
:100B20002B6C042B01D00323D5E72A68136843F408
:100B3000007313600123CEE7B8F1010F0DD02B68CD
:100B40003A0A1A6122460A992846FFF718FFC8B1E7
:100B50002B6C042B0FD00323BDE72B68FFB21F6162
:100B600022460A992846FFF70AFFB0B12B6C042BE6
:100B70000CD00323AFE72A68136843F400731360B3
:100B80000123A8E72B68FFB21F61E9E72A68136811
:100B900043F40073136001239DE72A68136843F44C
:100BA0008073136000940A9B00224FF001112846C5
:100BB000FFF76BFE08B103238DE72B6846F00106B3
:100BC0001E6123460A9A07492846FFF790FE03460E
:100BD000002880D02B6C042B01D003237BE701235A
:100BE00079E700BF0200010070B504460D461646C5
:100BF00023685B6913F0040F19D12046FFF730FE1C
:100C0000B8B9B5F1FF3FF3D025B1FFF7F3FB801B77
:100C10008542EDD2236C43F0200323640023236339
:100C2000202284F83D2084F83C30032070BD002051
:100C300070BD012070BD70B505460C4616462B6888
:100C40005A6912F0400F22D15A6912F0100F11D1D7
:100C500024B1FFF7CFFB801B8442F0D22B6C43F012
:100C600020032B64202385F83D30002385F83C3099
:100C7000032070BD6FF010025A6100232B642B63B8
:100C8000202285F83D2085F83C30012070BD0020F1
:100C900070BD0000002800F0E78038B50446036806
:100CA000724A93420CD002F58062934208D002F55A
:100CB0008062934204D040F265116D4801F006FA5B
:100CC0006368013B6B4A934200F28180A3683BB1A9
:100CD000B3F5804F04D040F26711654801F0F6F992
:100CE000E36823F47F7323F00303002B75D123699A
:100CF000B3F5804F07D0B3F5404F04D040F26911EF
:100D00005B4801F0E3F96369012B04D94FF4B57135
:100D1000574801F0DBF9A36933F0FE0363D1E369BF
:100D200033B1402B04D04FF4B671514801F0CEF9E5
:100D3000236A33B1802B04D040F26D114C4801F08E
:100D4000C5F994F83D30002B53D0242384F83D306E
:100D50002268136823F00103136000F055FE464B30
:100D6000A3FB00239B0C2268536021686568434AFB
:100D7000954244D801330B62216863683F4A93422D
:100D800047D85B00B0FBF3F0C0F30B03032B00D894
:100D90000420C8612268E369216A0B43136022685A
:100DA0002369E1680B43936022686369A1690B437F
:100DB000D3602268136843F00103136000202064AD
:100DC000202384F83D30206384F83E0038BD4FF482
:100DD000B371274801F07AF978E74FF4B4712448E9
:100DE00001F074F983E740F26B11214801F06EF9CC
:100DF00095E784F83C30204601F0B2FCA5E74FF4BB
:100E0000967202FB03F31E4AA2FB03239B090133E4
:100E1000B1E7A5688DB903EB4302B0FBF2F2C2F370
:100E20000B02B2FA82F25209E2B995B903EB43031D
:100E3000B0FBF3F040F40040ABE703EB830202EBBE
:100E40008202B0FBF2F2C2F30B02B2FA82F2520952
:100E5000EAE703EB830303EB8303B0FBF3F040F417
:100E6000404096E7012094E701207047005400407D
:100E7000746400087F1A060083DE1B43A08601000D
:100E8000D34D62102DE9F04383B005468846914664
:100E90001C46BDF82C60FFF7ADFA0746012C06D0C2
:100EA000102C04D040F65511494801F00FF995F87F
:100EB0003D30DBB2202B04D00223184603B0BDE83E
:100EC000F08300971923012242492846FFF7DDFCF1
:100ED00008B10223F1E795F83C30012B01D1022340
:100EE000EBE7012385F83C302A68136823F400639C
:100EF0001360212385F83D30402385F83E300023E0
:100F00002B64A3F58033EB6201970C9B009323467F
:100F10004A4641462846FFF759FDD0B12B6C042BB9
:100F200004D0002385F83C300323C6E7002385F86E
:100F30003C300123C1E72B6C042B01D00323BCE719
:100F40002A68136843F4007313600123B5E71E4653
:100F50000A92E6B13A460C992846FFF710FD0028A0
:100F6000E9D12B680A9A01320A9909781961731E2E
:100F70009BB22968486910F0040FE8D0002BE6D036
:100F800013780B61B31E9BB20A9A0232DFE73A462E
:100F90000C992846FFF728FE034658B12B6C042B0A
:100FA00001D0032389E72A68136843F400731360B0
:100FB000012382E729680A6842F400720A6020224D
:100FC00085F83D20002285F83E2085F83C2074E716
:100FD00074640008020010002DE9F04387B0054654
:100FE000884691461C46BDF83C60FFF703FA074669
:100FF000012C06D0102C04D040F6CC11904801F002
:1010000065F895F83D30DBB2202B04D00224204651
:1010100007B0BDE8F08300971923012289492846CB
:10102000FFF733FC08B10224F1E795F83C30012BBF
:1010300001D10224EBE7012385F83C302A681368CC
:1010400023F400631360222385F83D30402385F8A4
:101050003E3000232B64A3F58033EB620197109B95
:10106000009323464A4641462846FFF719FD0446A9
:1010700060B12B6C042B04D0002385F83C30032492
:10108000C5E7002385F83C300124C0E766B900239A
:1010900002932B685A6902929A690292029A1A681C
:1010A00042F400721A6060E0012E0AD0022E1AD0BB
:1010B000002305932B685A6905929B690593059B4C
:1010C00053E02A68136823F48063136000230393BA
:1010D0002B685A6903929A690392039A1A6842F438
:1010E00000721A6041E02A68136823F48063136079
:1010F0002A68136843F400631360002304932B6889
:101100005A6904929B690493049B2EE03A46109915
:101110002846FFF790FD48B92B681B690E9A13709B
:10112000013EB6B2134601330E931EE02B6C202B0A
:101130007ED103246BE70097109B0022424928468A
:10114000FFF7A3FB002875D12A68136843F40073E6
:1011500013602B681A690E9B03F8022B2A68126928
:101160000E994A70023EB6B20E93002E57D0032E4F
:1011700030D8012ECAD0022EDDD00097109B00225D
:1011800031492846FFF781FB002855D12A681368AA
:1011900023F4806313602B681B690E9A1370009709
:1011A000109B002228492846FFF76FFB002845D1F5
:1011B0002A68136843F4007313602B681B690E9A46
:1011C00053702B681B699370033EB6B2134603330A
:1011D0000E93CAE73A4610992846FFF72CFDA0B9AE
:1011E0000E9B581C2B681B690E9A1370731E9BB2C2
:1011F0002A68516911F0040F0ED00E9B02330E9332
:1012000013690370023EB6B2AFE72B6C202B01D0FE
:101210000124FCE60324FAE61E460E90A5E72023EF
:1012200085F83D30002385F83E3085F83C30EEE609
:101230000124ECE60324EAE60324E8E60324E6E6D8
:1012400074640008020010000400010010B582B0B0
:1012500000230193234B1A6C42F080521A641B6CDA
:1012600003F080530193019B4FF4803393FAA3F36F
:10127000B3FA83F303F1845303F560339B00012237
:101280001A60FFF7B7F80446174B5B6813F4803F0A
:1012900008D1FFF7AFF8001BB0F57A7FF4D903202F
:1012A00002B010BD4FF4003393FAA3F3B3FA83F303
:1012B00003F1845303F560339B0001221A60FFF7AA
:1012C00099F80446084B5B6813F4003F07D1FFF719
:1012D00091F8001BB0F57A7FF4D90320E0E70020F5
:1012E000DEE700BF003802400070004030B583B038
:1012F000044603680F2B2DD8236813F0010F3CD050
:101300006368012B05D9052B03D0FA219F4800F013
:10131000DDFE9F4B9B6803F00C03042B24D09C4BF9
:101320009B6803F00C03082B19D02279994B1A7093
:101330006368002B50D0FFF75DF80546944B1B689F
:1013400013F4003F19D1FFF755F8401B6428F5D975
:101350000320D7E1F5218D4800F0B8FECCE78C4B97
:101360005B6813F4800FE0D0894B1B6813F4003FD7
:1013700003D06368002B00F0C281236813F0020FD2
:101380005CD0E368012B04D94FF496717F4800F0DC
:101390009DFE23691F2B2ED87D4B9B6813F00C0FED
:1013A00034D07B4B9B6803F00C03082B29D0E368F7
:1013B000002B72D00122784B1A60FFF71BF805460C
:1013C000734B1B6813F0020F58D1FFF713F8401B43
:1013D0000228F5D9032095E1FFF70CF805466C4B80
:1013E0001B6813F4003FC8D0FFF704F8401B6428C3
:1013F000F5D9032086E140F22D11644800F066FE25
:10140000CAE7634B5B6813F4800FD0D1604B1B6855
:1014100013F0020F04D0E368012B01D0012071E129
:101420005B48036823F0F8032169F82292FAA2F2DC
:10143000B2FA82F201FA02F213430360236813F056
:10144000080F4ED06369012B04D940F26D114F484B
:1014500000F03CFE636993B30122504B1A60FEF723
:10146000C9FF05464A4B5B6F13F0020F39D1FEF7F7
:10147000C1FF401B0228F5D9032043E1444803681B
:1014800023F0F8032169F82292FAA2F2B2FA82F26A
:1014900001FA02F213430360D0E700223E4B1A60C8
:1014A000FEF7A8FF05463A4B1B6813F0020FC5D0A4
:1014B000FEF7A0FF401B0228F5D9032022E10022FD
:1014C000364B1A60FEF796FF0546314B5B6F13F003
:1014D000020F06D0FEF78EFF401B0228F5D903202D
:1014E00010E1236813F0040F5ED0A368012B06D926
:1014F000052B04D040F29711244800F0E7FD0023AB
:101500000193234B1A6C42F080521A641B6C03F057
:1015100080530193019B224A136843F48073136044
:10152000FEF768FF05461E4B1B6813F4807F06D14B
:10153000FEF760FF401B0228F5D90320E2E0227A83
:10154000184B1A70A36883B1FEF754FF0546104B81
:101550001B6F13F0020F27D1FEF74CFF401B41F227
:1015600088339842F3D90320CCE0FEF743FF0546C9
:10157000074B1B6F13F0020F16D0FEF73BFF401B0B
:1015800041F288339842F3D90320BBE0B4640008E9
:10159000003802400238024000004742800E4742B5
:1015A0000070004070380240A369022B1FD8A36965
:1015B000002B00F0A680554A926802F00C02082A1F
:1015C00000F0A280022B18D00022514B1A60FEF7C7
:1015D00011FF04464D4B1B6813F0007F00F08D8017
:1015E000FEF708FF001B0228F4D903208AE04FF41D
:1015F000E671484800F06AFDD9E7E3693BB1B3F50D
:10160000800F04D040F2D511424800F05FFD236AFC
:101610003F2B28D8636A323BB3F5BF7F29D8A36A32
:10162000022B0AD0042B08D0062B06D0082B04D09E
:101630004FF4EC71374800F049FDE36A043B0B2B93
:101640001DD80022324B1A60FEF7D4FE05462F4B00
:101650001B6813F0007F18D0FEF7CCFE401B022859
:10166000F5D903204EE04FF4EB712A4800F02EFD2F
:10167000D0E740F2D711274800F028FDCFE740F22D
:10168000D911244800F022FDDBE7E369226A134305
:10169000616A47F6C07292FAA2F2B2FA82F201FAD5
:1016A00002F21343A26A5208013A4FF4403191FA10
:1016B000A1F1B1FA81F18A401343E16A4FF07062FF
:1016C00092FAA2F2B2FA82F201FA02F213430F4A3C
:1016D000536001220E4B1A60FEF78CFE04460B4B42
:1016E0001B6813F0007F06D1FEF784FE001B022862
:1016F000F5D9032006E0002004E0002002E00120EC
:1017000000E0002003B030BD0120FBE700380240BC
:1017100060004742B4640008214B9B6803F00C034F
:10172000042B3AD0082B01D01E4870471C4B586838
:1017300000F03F005B6813F4800F1ED01A4AB2FB22
:10174000F0F2174B586847F6C073184093FAA3F3AA
:10175000B3FA83F3D84000FB02F0114B5B6803F44B
:1017600040334FF4403292FAA2F2B2FA82F2D340FE
:1017700001335B00B0FBF3F070470A4AB2FBF0F2B2
:10178000074B586847F6C073184093FAA3F3B3FAAF
:1017900083F3D84000FB02F0DFE70348704700BF47
:1017A000003802400024F40000127A0070B50446AC
:1017B0000D460368013B0E2B11D80F2D15D88A4B0F
:1017C0001B6803F00F039D4215D9EBB2864A1370D4
:1017D000136803F00F039D420DD0012070BD40F24D
:1017E0003721824800F072FCE7E74FF40E717F4822
:1017F00000F06CFCE3E7236813F0020F1DD0A36830
:10180000A3B1802B12D0902B10D0A02B0ED0B02BD8
:101810000CD0C02B0AD0D02B08D0E02B06D0F02B58
:1018200004D040F24F21714800F050FC704A936898
:1018300023F0F003A1680B439360236813F0010FBA
:101840006DD06368032B29D86368012B2CD09A1EB6
:10185000012A30D9664A126812F0020F00F0C280E5
:1018600063498A6822F0030213438B60FEF7C2FDCE
:1018700006466368012B25D0022B32D0032B3FD0C4
:101880005B4B9B6813F00C0F49D0FEF7B3FD801B38
:1018900041F288339842F3D9032070BD40F25621BB
:1018A000524800F013FCCFE7514A126812F4003F8F
:1018B000D6D1012070BD4E4A126812F0007FCFD100
:1018C000012070BD4A4B9B6803F00C03042B26D00B
:1018D000FEF790FD801B41F288339842F2D9032035
:1018E00070BD434B9B6803F00C03082B17D0FEF729
:1018F00081FD801B41F288339842F2D9032070BDEC
:101900003B4B9B6803F00C030C2B08D0FEF772FDD9
:10191000801B41F288339842F2D9032070BD324BCC
:101920001B6803F00F039D4209D2EAB22E4B1A70D6
:101930001B6803F00F039D4201D0012070BD236896
:1019400013F0040F19D0E36883B1B3F5805F0DD0B5
:10195000B3F5A05F0AD0B3F5C05F07D0B3F5E05F81
:1019600004D04FF42D71214800F0B0FB204A936859
:1019700023F4E053E1680B439360236813F0080FEE
:101980001AD0236983B1B3F5805F0DD0B3F5A05FA2
:101990000AD0B3F5C05F07D0B3F5E05F04D040F2E2
:1019A000BB21124800F092FB114A936823F4604374
:1019B000216943EAC1039360FFF7AEFE0C4B9B68BD
:1019C00003F0F003F02292FAA2F2B2FA82F2D340CC
:1019D000084AD35CD840084B18600F20FEF7D2FCB1
:1019E000002070BD012070BD003C0240B4640008BE
:1019F00000380240A46400080C000020014B186865
:101A0000704700BF0C00002008B5FFF7F7FF074B39
:101A10009B6803F4E0534FF4E05292FAA2F2B2FA58
:101A200082F2D340024AD35CD84008BD003802405D
:101A3000A464000808B5FFF7E1FF074B9B6803F4B7
:101A400060434FF4604292FAA2F2B2FA82F2D340BB
:101A5000024AD35CD84008BD00380240A4640008A4
:101A60002DE9F04704464268B64B9A4200F2A68040
:101A7000E3683BB1B3F5005F04D04FF4EA61B248CC
:101A800000F024FB236953B1B3F5806F07D0B3F5A1
:101A9000C06F04D040F25171AB4800F017FB63698E
:101AA0004FF6F372134200D123B940F25271A648A7
:101AB00000F00CFB2268136923F44053E1680B43E8
:101AC00013612168CB6823F4164323F00C03A2684A
:101AD0002069024360690243E06902431343CB601B
:101AE0002268536923F44073A1690B435361E3698E
:101AF000B3F5004F68D0D4F80080944B984500F0BF
:101B0000298103F58063984500F02481FFF77CFF6D
:101B100000EB800000EB80006568AD00B0FBF5F5E0
:101B20008B4FA7FB05356D092E01FFF76DFF00EB0D
:101B3000800000EB80006568AD00B0FBF5FAFFF7B0
:101B400063FF00EB800000EB80006568AD00B0FB38
:101B5000F5F5A7FB05356D094FF0640909FB15A5DF
:101B60002D013235A7FB05356D0905F0F00535442B
:101B7000FFF74AFF00EB800000EB80006668B600CC
:101B8000B0FBF6F6FFF740FF00EB800000EB8000B3
:101B900063689B00B0FBF3F0A7FB0030400909FB32
:101BA00010694FEA091909F13209A7FB0937C7F390
:101BB00043172F44C8F80870BDE8F08740F24F7112
:101BC000614800F083FA53E7D4F8008003F18043C2
:101BD00003F5104398455CD003F58063984558D0D1
:101BE000FFF712FF00EB800000EB800065686D00DE
:101BF000B0FBF5F5564FA7FB05356D092E01FFF734
:101C000003FF00EB800000EB800065686D00B0FB17
:101C1000F5FAFFF7F9FE00EB800000EB8000656845
:101C20006D00B0FBF5F5A7FB05356D094FF06409B4
:101C300009FB15A5ED003235A7FB05356D096D00D3
:101C400005F4F8753544FFF7DFFE00EB800000EB8C
:101C5000800066687600B0FBF6F6FFF7D5FE00EB75
:101C6000800000EB800063685B00B0FBF3F3A7FB30
:101C700003235B0909FB13694FEAC90909F132091A
:101C8000A7FB0937C7F342172F44C8F80870BDE80F
:101C9000F087FFF7CFFE00EB800000EB8000656867
:101CA0006D00B0FBF5F52A4FA7FB05356D092E0138
:101CB000FFF7C0FE00EB800000EB800065686D0060
:101CC000B0FBF5FAFFF7B6FE00EB800000EB8000FA
:101CD00065686D00B0FBF5F5A7FB05356D094FF0A4
:101CE000640909FB15A5ED003235A7FB05356D0923
:101CF0006D0005F4F8753544FFF79CFE00EB80009D
:101D000000EB800066687600B0FBF6F6FFF792FE07
:101D100000EB800000EB800063685B00B0FBF3F336
:101D2000A7FB03235B0909FB13694FEAC90909F102
:101D30003209A7FB0937C7F342172F44C8F80870C8
:101D4000BDE8F087A037A000E4640008001001405F
:101D50001F85EB51FFF76EFE00EB800000EB80006B
:101D60006568AD00B0FBF5F5264FA7FB05356D099D
:101D70002E01FFF75FFE00EB800000EB800065683E
:101D8000AD00B0FBF5FAFFF755FE00EB800000EB6D
:101D900080006568AD00B0FBF5F5A7FB05356D0962
:101DA0004FF0640909FB15A52D013235A7FB053558
:101DB0006D0905F0F0053544FFF73CFE00EB8000AF
:101DC00000EB80006668B600B0FBF6F6FFF732FE67
:101DD00000EB800000EB800063689B00B0FBF3F336
:101DE000A7FB03235B0909FB13694FEA091909F1F2
:101DF0003209A7FB0937C7F343172F44C8F8087007
:101E0000BDE8F0871F85EB512DE9F04105460F46EF
:101E100016469846069C2B681B6837EA03030CBFDE
:101E200001230023B3421ED1B4F1FF3FF3D02CB104
:101E3000FEF7E0FAA0EB08008442ECD22A68D368EF
:101E400023F4D073D3602A68536923F001035361EC
:101E5000202385F8393085F83A30002385F838306A
:101E60000320BDE8F0810020BDE8F081002800F0EB
:101E70008C8010B5044683691BB30368444A9342BF
:101E80000FD0A2F54C4293420BD002F580629342F0
:101E900007D002F54C42934203D0FE213D4800F0AA
:101EA00015F9A36993B3B3F5807F2FD0B3F5007F05
:101EB0002CD0B3F5407F29D0FF21364800F006F939
:101EC00024E00368324A934220D0A2F54C42934268
:101ED0001CD002F58062934218D002F580629342D2
:101EE00014D002F58062934210D002F5444293422E
:101EF0000CD0A2F51C42934208D002F580629342B6
:101F000004D040F20311234800F0E0F8A3683BB18D
:101F1000B3F5805F04D040F205111E4800F0D6F8FA
:101F2000E3693BB1B3F5004F04D04FF48371194816
:101F300000F0CCF894F839300BB3242384F839300E
:101F40002268D36823F40053D3602046FFF788FD4E
:101F50002268136923F4904313612268536923F0C4
:101F60002A0353612268D36843F40053D3600020EE
:101F7000E063202384F8393084F83A3010BD84F8C7
:101F80003830204600F0ACFBD7E70120704700BF97
:101F900000100140E46400082DE9F04182B01E46C3
:101FA00090F83930DBB2202B04D00223184602B05F
:101FB000BDE8F08104460D46174600294FD0002A9F
:101FC0004FD090F83830012B01D10223EEE70123E6
:101FD00080F838300023C363212380F83930FEF7BE
:101FE00009FA8046A784E78410E000964346002261
:101FF00080212046FFF708FF002834D122682B8873
:10200000C3F3080353602369ABB90235E38CA3B172
:10201000013BE384A368B3F5805FE6D000964346B6
:10202000002280212046FFF7EFFEF0B923682A78CE
:102030005A600135EAE70135E8E700964346002299
:1020400040212046FFF7E0FE034608B10323ADE739
:10205000202284F83920002284F83820A6E70123C2
:10206000A4E70123A2E70323A0E703239EE7FEE7FB
:1020700008B50120FFF7FBFF08B503460C4A1268BC
:102080005AB10B4A1068033323F003030344094A8F
:10209000934206D8064A136008BD0749044A1160F6
:1020A000EFE702F0B7F80C2303604FF0FF3008BDF4
:1020B0000C02002000FC00200C0300200123036020
:1020C000014B0B60704700BF0400002008B5FFF70C
:1020D000CFFF000008B500F009F8024B024A9A60F1
:1020E00008BD00BF00ED00E0000000080C4B1A68BE
:1020F00042F001021A60002199601A6822F084728D
:1021000022F480321A60074A5A601A6822F4802248
:102110001A60D9604FF00062034B9A60704700BFAD
:10212000003802401030002400ED00E0224B9B6894
:1021300003F00C03042B14D0082B16D01BB11F4A3C
:102140001F4B1A6002E01D4A1D4B1A601A4B9B6818
:10215000C3F303131B4AD15C194A1368CB401360C5
:102160007047194A164B1A60F0E7134B5A685B68C0
:1021700003F03F0312F4800F13D0134AB2FBF3F2C3
:102180000D4B5B68C3F3881303FB02F30A4A5268E2
:10219000C2F3014201325200B3FBF2F3084A13606A
:1021A000D4E7064AB2FBF3F2034B5B68C3F3881330
:1021B00003FB02F3EAE700BF003802400024F4000A
:1021C0000C0000201465000800127A00032854D87F
:1021D00030B58BB0294B53F820300593012306937B
:1021E00007930323089303280FD8DFE800F0021FAA
:1021F0002C3900230193224B1A6B42F040021A63E0
:102200001B6B03F040030193019B04461D4D05A980
:1022100055F82000FEF77AF90122184B33F8241004
:1022200055F82400FEF702FB0BB030BD00230293EB
:10223000134B1A6B42F008021A631B6B03F008037E
:102240000293029BE1E7002303930D4B1A6B42F0CC
:1022500008021A631B6B03F008030393039BD4E784
:1022600000230493064B1A6B42F480621A631B6BC3
:1022700003F480630493049BC7E7704710000020B9
:102280000038024020000020032800D9704708B51C
:102290000022044B33F82010034B53F82000FEF7C4
:1022A000C5FA08BD100000202000002008B5FEF788
:1022B0007FF800F003F8FFF739FF08BD30B595B09F
:1022C000002400941D4B1A6C42F080521A641B6C5F
:1022D00003F080530093009B0194194B1A6842F459
:1022E00040421A601B6803F440430193019B0123A1
:1022F00002930393022508954FF480030993082362
:102300000A934FF4B4730B930C9507230D93062394
:102310000E9302A8FEF7EAFFFEF798FF0F230F9334
:10232000109511944FF4A05312934FF480531393CC
:1023300005210FA8FFF73AFA15B030BD003802406A
:102340000070004008B50120FFF79EFFFBE708B5CD
:102350000020FFF73BFF0120FFF738FF0220FFF7C7
:1023600035FF0320FFF732FF08BD000008B50A481B
:102370000A4B03604FF41653436000238360C3602D
:10238000036183610C224261C361FFF76FFD00B9F5
:1023900008BDFFF7D7FF00BFB00200200048004093
:1023A00010B5C0B00B460246FF21684602F0CCFBD8
:1023B000044600230DF800304FF0FF3382B2694627
:1023C0000248FFF7E9FD204640B010BDB0020020F2
:1023D0000FB400B583B004A951F8040B0191FFF7C5
:1023E000DFFF03B05DF804EB04B0704708B50A489E
:1023F0000A4B03604FF480430361094B43600023A1
:1024000083604361C36083610362C361FEF742FC82
:1024100000B908BDFFF796FF5C02002000540040A1
:10242000A08601002DE9F04F8BB04FF47A73029330
:102430001623019304AB00930123AA22EE215948ED
:10244000FEF7CAFD002840F0AA809DF810209DF8F4
:10245000113043EA0223544A13809DF812209DF85C
:10246000133043EA0223514A13809DF814209DF84B
:10247000153043EA02234E4A13809DF816209DF83A
:10248000173043EA02234B4A13809DF818209DF829
:10249000193043EA0223DFF84881A8F800309DF89C
:1024A0001A209DF81B3043EA0223434A13809DF80B
:1024B0001C209DF81D3043EA0223404A13809DF8FA
:1024C0001E209DF81F3043EA02233D4A13809DF8E9
:1024D00020209DF8213043EA02233A4A13809DF8D8
:1024E00022209DF8233043EA0223DFF8F8B0ABF84E
:1024F00000309DF824209DF8253043EA0223DFF8C0
:10250000E8A0AAF8003000244FF0804500222E4BAE
:102510002046294600F072F900222C4B01F0F4FC11
:1025200006460F46B8F8000001F05EFB32463B4617
:1025300001F0C0FB264BC3E900010022254B2046D9
:10254000294600F05BF98046894600261F4F224647
:102550002B463046394600F051F902460B464046BC
:10256000494601F0D1FC04460D46BBF9000001F0DC
:102570003BFB22462B4601F09DFB174BC3E90001B4
:10258000BAF9000001F030FB32463B4601F0BCFCDA
:10259000124BC3E9000100200BB0BDE8F08FFFF73C
:1025A000D1FE00BF5C0200202A0200204C02002065
:1025B0004E020020480200202C020020F0020020E1
:1025C000500200204A02002000002EC0000064409B
:1025D0003802002000002640F802002040020020BF
:1025E00030020020F20200202802002030B587B01F
:1025F00006AA2E2302F8013D6423029301230193CE
:102600000092F422EE211F48FEF73CFC002835D151
:102610000520FDF7F5FE642302930223019305AB29
:1026200000930123F622EE211648FEF7D5FC38BBB5
:102630009DF814009DF8153003EB0023124A108812
:10264000181A01F0D1FA114BD3E9002301F032FB43
:1026500004460D460E4BD3E9002301F079F90246FA
:102660000B460C49D1E9000101F04EFC02460B4635
:102670002046294601F06CF907B030BDFFF762FE35
:10268000FFF760FE5C0200202C02002038020020D0
:1026900040020020F802002008B5FDF789FEFFF790
:1026A0000DFEFFF754FEFFF761FEFFF79FFEFFF7F9
:1026B000B9FE70B9FFF79AFF02460B460649C1E919
:1026C00000230648FFF784FE4FF47A70FDF798FE6A
:1026D000F0E7FFF737FEEDE7000300202465000870
:1026E00030B589B0002200921B4B196B41F00201FA
:1026F0001963196B01F00201009100990192196BA5
:1027000041F002011963196B01F002010191019975
:1027100002921A6C42F480221A641B6C03F4802328
:102720000293029B4FF4006303930223049301235B
:1027300005930323069307250795084C03A9204614
:10274000FDF7E4FE4FF480630393079503A9204649
:10275000FDF7DCFE09B030BD003802400004024045
:1027600030B589B0002200921B4B196B41F0020179
:102770001963196B01F00201009100990192196B24
:1027800041F002011963196B01F0020101910199F5
:102790000292196C41F4001119641B6C03F40013CC
:1027A0000293029B4FF480730393122304930592C8
:1027B0000223069304250795084C03A92046FDF73C
:1027C000A5FE4FF400730393079503A92046FDF778
:1027D0009DFE09B030BD00BF003802400004024039
:1027E0007047FEE7FEE7FEE7FEE770477047704779
:1027F00008B5FDF7F7FD08BD704770472DE9F04FAC
:10280000DFF8F0928DB006460F4614461D4600F0E4
:1028100073F999F90080B8F1FF3FCDE9000136D096
:1028200022462B462046294601F0DEFC834670BB3B
:1028300032463B463046394601F0D6FC00228246FD
:102840000023002840F0A0803046394601F09AFC71
:1028500010B3002200232046294601F093FC834652
:1028600000286AD001229C4B029200210022CDF860
:1028700028A0CDE90467CDE90645CDE90812039308
:10288000B8F1000F45D0954C0023CDE90034DDE9C7
:1028900000010DB0BDE8F08FDDE9000100F032FF6E
:1028A0008046002800F08B804FF0000A4FF0000BAC
:1028B00052465B46DDE9000101F064FC0028E6D0E9
:1028C0003046394600F01EFF0028E0D02046294659
:1028D00000F018FF0028DAD099F900307E4A039200
:1028E00004210022022BCDE90467CDE90645CDE99C
:1028F00008AB02910A9203D002A800F009FF68B960
:1029000001F088FC2223036008E000230024CDE9C5
:10291000083402A800F0FCFE002830D00A9B1BB14E
:1029200001F078FC0A9B0360DDE90834CDE900344E
:10293000DDE900010DB0BDE8F08F2046294600F02A
:10294000E1FE0028A3D0002200232046294601F002
:1029500023FC00289BD099F900305F4ACDF828B0BD
:102960000121CDE90467CDE9064502910392002BD0
:10297000CBD05B490020022BCDE90801C9D101F081
:1029800049FC21230360C9E72046294601F0FAFBF0
:1029900000283FF47CAF514B4F49CDF828B00120BF
:1029A0000022B8F1020FCDE90467CDE90645029097
:1029B0000391CDE90823ACD1CDE9002367E7304688
:1029C000394600F09FFE00283FF46EAF20462946AE
:1029D00000F098FE00283FF467AFDDE900231046C1
:1029E000194601F001FC002858D1032399F9008011
:1029F0000293394B0A900393CDE90467CDE906456C
:102A00000022002330463946B8F1000F26D1354F59
:102A10004FF06046CDE9086701F0BEFB00283FF4A7
:102A20006BAF0022304B2046294601F043F90446A3
:102A30000D4600F075FE02460B462046294601F081
:102A4000A1FB40BB294B99F900804FF06042CDE9D2
:102A50000823B8F1020F7FF44FAF51E7244F00264F
:102A6000CDE9086701F098FB0028F2D000221E4B48
:102A70002046294601F01EF904460D4600F050FE9E
:102A800002460B462046294601F07CFB18B9144B40
:102A90000022CDE9082399F90080DAE799F900903E
:102AA0000D4BCDF828800122CDE90467CDE906451C
:102AB00002920393B9F1000F3FF427AF00220023E5
:102AC0001046194601F020FAB9F1020FCDE90801CC
:102AD0003FF455AF1DE700BF346500080000F03F2C
:102AE0000000F0FFFFFFEF470000E03FFFFFEFC7F0
:102AF0000000F07F300000202DE9F04F23F0004768
:102B000057EA020493B037D0674C21F00046A64242
:102B100083460D4629DC9A46964625D0A74224DCFA
:102B2000614CA74279D0002D89468046CDE900232B
:102B300077DB0024BEF1000F2CD15B4B9F4200F0ED
:102B40008B805A4B9F4261D0BAF1804F00F0BA831C
:102B5000574B9A451ED1002D1CDB4046494613B009
:102B6000BDE8F04F00F00EBD58B106F1404606F545
:102B7000801656EA0B0306D14C49002013B0BDE87D
:102B8000F08FB742CCDD4B4813B0BDE8F04F00F0FA
:102B9000C1BD00244046494600F0B0FDBBF1000F26
:102BA00019D126B1414B25F040429A4213D1BAF1D6
:102BB000000FC0F2BC83002DE0DA06F1404606F5B6
:102BC000801656EA040300F08F84012CD6D101F15F
:102BD00000431946D2E7ED0F013D54EA05034ED0FC
:102BE000354B9F426EDD03F104739F4240F3E8834F
:102BF000324B9E424EDDBAF1000F4EDD28A3D3E9E1
:102C000000231046194601F055F8B7E7BAF1000F56
:102C1000C0F23C8440464946B0E7BEF1000F82D086
:102C2000A3E7274B9F4228DCA3F154739F4280DD2A
:102C30003B15A3F2FF33142B40F33E84C3F134035E
:102C40002EFA03F202FA03F39E457FF472AF02F00C
:102C50000102C2F102046DE706F1404303F580135F
:102C600053EA0B0388D0154B9E4240F33283BAF1EE
:102C7000000F12DBDDE9000180E702245AE742463B
:102C80004B464046494600F061FE02460B4601F0C5
:102C90003BF973E7BAF1000FB0DB002000216DE7CC
:102CA0009C7500883CE4377E0000F07F0000F03F18
:102CB0000000E03F406400080000E041FFFFEF3FFC
:102CC000FFFF3F43B6F5801F4FF0000205DAD44BFB
:102CD00000F0F0FF6FF034020E463315D14FC6F30B
:102CE0001306A3F2FF33134446F07F5ABE421A463E
:102CF0000D934AF4401A40F32183CB4B9E4240F39C
:102D0000FD83134601330D93C84B0022CDE9062302
:102D100000270026CDE90867CDE90E67AAF5801ADD
:102D20000027024653465146CDE90A23DDE9062332
:102D300000F00CFEDDE9062380468946DDE90A0144
:102D400000F006FE02460B460020B84901F0DCF810
:102D50000A460146CDE9101213464946024640464E
:102D600000F0A8FF4FEA6A0343F000538C46834605
:102D700003F50023CDE904BCDA468B46D9190023BC
:102D8000CDE902AB0293DDE902AB002006460F4617
:102D900002460B465046594600F08CFF02460B4651
:102DA0004046494600F0D2FDDDE9062380468946CB
:102DB0003046394600F0CAFD02460B46DDE90A01FD
:102DC00000F0C4FD52465B4600F074FF02460B461D
:102DD0004046494600F0BAFDDDE9102300F06AFFE5
:102DE000DDE90467CDE9060132463B463046394607
:102DF00000F060FF78A3D3E9002306460F4600F0F9
:102E000059FF77A3D3E9002300F0A2FD32463B46E9
:102E100000F050FF74A3D3E9002300F099FD32467F
:102E20003B4600F047FF72A3D3E9002300F090FD7A
:102E300032463B4600F03EFF6FA3D3E9002300F08B
:102E400087FD32463B4600F035FF6DA3D3E90023F2
:102E500000F07EFD3246804689463B463046394684
:102E600000F028FF02460B464046494600F022FF8C
:102E7000524606460F465B46DDE9040100F068FD58
:102E8000DDE9062300F016FF32463B4600F060FD08
:102E90005246804689465B465046594600F00AFF36
:102EA0000022634BCDE90A0100F052FD42464B4639
:102EB00000F04EFD02980F46064632463B4650460D
:102EC000594600F0F7FE002282468B46584B3046AA
:102ED000394600F03BFDDDE90A2300F037FD0246EC
:102EE0000B464046494600F031FDDDE9042300F081
:102EF000E1FE3246804689463B46DDE9060100F0A8
:102F0000D9FE02460B464046494600F021FD804668
:102F1000894602460B4650465946CDE904AB00F0BF
:102F200017FDDDE902AB38A3D3E9002350460F4675
:102F300000F0C0FEDDE90423CDE902013946504628
:102F400000F004FD02460B464046494600F0FEFCF8
:102F50002FA3D3E9002300F0ADFE2FA3D3E9002374
:102F6000804689465046394600F0A4FE02460B468C
:102F70004046494600F0ECFCDDE90E2300F0E8FC99
:102F800080460D98894600F02FFE424606460F46C1
:102F90004B46DDE9020100F0DBFCDDE9082300F02F
:102FA000D7FC32463B4600F0D3FC32463B46504607
:102FB0008B4600F0CBFCDDE9082300F0C7FCDDE91F
:102FC000022300F0C3FC02460B464046494600F08F
:102FD000BDFC80462EE000BFEF4E454A287ECA3F2A
:102FE00065DBC9934A86CD3F01411DA96074D13F7D
:102FF0004D268F515555D53FFFAB6FDBB66DDB3F8F
:10300000033333333333E33F000000E009C7EE3FBF
:10301000FD033ADC09C7EE3FF5015B14E02F3EBE2D
:10302000000040438E98030079B60B000000F03F8B
:10303000000008408946013C54EA0503DDE900012F
:1030400014BFD94CD94C0023CDE9043403460C46B7
:10305000CDE9023400230293DDE9024522462B46E6
:1030600000F074FC52465B4600F024FEDDE90023CC
:1030700006460F464046494600F01CFE02460B46F7
:103080003046394600F064FC2246804689462B468D
:1030900050465946CDE9008900F00CFE0B46024629
:1030A00006460F464046494600F052FCC04B994246
:1030B00004460D468A4640F3168101F13F4303F56D
:1030C000E003034340F0EA81A3A3D3E90023DDE951
:1030D000000100F03DFC3246804689463B462046D2
:1030E000294600F033FC02460B464046494601F0B3
:1030F00071F8002840F0D281A8464FEA28534FF4D7
:103100008012A3F2FE3342FA03F35344C3F30A528C
:10311000A84DA2F2FF321541C3F3130423EA0501BF
:103120000020C2F1140B44F48014BAF1000F0246DF
:103130000B4644FA0BFB30463946B8BFCBF1000BC7
:1031400000F004FC02460B4606460F46DDE900018E
:1031500000F0FEFB4FEA0B5A0D46002480A3D3E992
:1031600000232046294600F0A5FD324680468946C8
:103170003B462046294600F0E9FB02460B46DDE9C6
:10318000000100F0E3FB78A3D3E9002300F092FDF7
:1031900077A3D3E9002306460F462046294600F0D0
:1031A00089FD02460B463046394600F0D1FB064603
:1031B0000F4602460B464046494600F0C9FB4246D0
:1031C0004B4604460D4600F0C1FB02460B46304616
:1031D000394600F0BBFB2246804689462B462046F6
:1031E000294600F067FD64A3D3E9002306460F4695
:1031F00000F060FD62A3D3E9002300F0A7FB324694
:103200003B4600F057FD60A3D3E9002300F0A0FB8C
:1032100032463B4600F04EFD5DA3D3E9002300F0AB
:1032200095FB32463B4600F045FD5BA3D3E9002306
:1032300000F08EFB32463B4600F03CFD02460B465A
:103240002046294600F082FB06460F4602460B4602
:103250002046294600F02EFD0022CDE900014FF066
:1032600080433046394600F071FB02460B46DDE9EB
:10327000000100F049FE424606460F464B462046F6
:10328000294600F017FD42464B4600F061FB02461E
:103290000B463046394600F059FB22462B4600F0DB
:1032A00055FB02460B4600203F4900F04FFB8A4485
:1032B000BAF5801FC0F233815146DDE9042300F0E6
:1032C000F9FC5BE4424640464B46494600F0F2FCBE
:1032D00054E4BAF1000FBFF6E0ACDDE90034184663
:1032E00004F100414AE4344B21F00048984540F392
:1032F000F280324B0B4403430CD132463B4600F084
:1033000025FB02460B46DDE9000100F04FFF0028D7
:103310003FF4F3AEDDE9040121A3D3E9002300F07B
:10332000C9FC1FA3D3E9002300F0C4FC26E4024635
:103330000B4600201C4900F0E7FD3CE4002200237E
:10334000CDE90823CDE90E23174B00220027CDE954
:103350000623E6E4AFF30080FE822B654715973C19
:1033600000000000432EE63FEF39FAFE422EE63F12
:10337000396CA80C615C20BED0A4BE726937663E71
:10338000F16BD2C541BDBB3E2CDE25AF6A56113F65
:1033900093BDBE166CC1663F3E5555555555C53F4C
:1033A00059F3F8C21F6EA5010000F03F0000F0BF06
:1033B000FFFF8F40FFFF0F00FFCB904000346F3FB7
:1033C0006B4B9E427FF766AC6A4B9E423FF713AC55
:1033D0000022684B00F0BAFA57A3D3E9002306464F
:1033E0000F4600F067FC56A3D3E9002380468946C8
:1033F0003046394600F05EFC002282468B465E4B2A
:103400003046394600F056FC02460B464EA1D1E943
:10341000000100F09BFA32463B4600F04BFC0246AE
:103420000B460020554900F091FA3246CDE90201E1
:103430003B463046394600F03DFC02460B46DDE98E
:10344000020100F037FC42A3D3E9002300F032FC74
:1034500002460B465046594600F078FA02460B46A3
:1034600006460F464046494600F072FA42464B4631
:10347000002082468B4600F069FA02460B46304631
:10348000394600F063FA80468946D4E542464B4609
:103490000020384900F038FDFFF770BBDDE904017A
:1034A0002DA3D3E9002300F005FC2BA3D3E90023CF
:1034B00000F000FCFFF762BBBEF1000F7FF469ABC8
:1034C000C3F1140347FA03F202FA03F39F422AD02E
:1034D0007446FFF736BB294B98453FF70EAEDDE942
:1034E00002239246934638E602460B4600F02EFA37
:1034F00002460B4600F008FDFFF740BB18A3D3E9D6
:103500000023CDE9082318A3D3E90023CDE90E2336
:103510001B4B00224FF48027CDE9062301E45A46D5
:1035200000F08AF9C9E602F00102C2F10204FFF7D5
:1035300008BB00BFAFF30080000000604715F73FF5
:1035400044DF5DF80BAE543E555555555555D53FA6
:10355000FE822B654715F73F9C7500883CE4377E5B
:103560000000004003B8E23F06D0CF43EBFD4C3EE5
:10357000FEFFEF3F0000F03F0000D03F0000E03FC3
:103580000000F83F2DE9F8435B4F8F4305460C469A
:1035900000F0928000290B4602466FDD0F157BD0AC
:1035A000A7F2FF37C3F31303F80743F480135CD487
:1035B00003EBD27100260B447F105200B646162052
:1035C0004FF400110EEB01049C424FEAD2754FEA12
:1035D000420203DC1B1B04EB010E0E44013805EB19
:1035E00043034FEA5101EDD1844620244FF00041BE
:1035F00009E020D003EBD275013C4FEA51012B4486
:103600004FEA420220D0734501EB0C05F1DD002D9D
:1036100005EB010C09DBF0469542A3EB0E0300D944
:10362000013B521B0844C646E4E7BCF1000FF2DB45
:103630000EF10108F0E79542DCD8002D05EB010CF6
:1036400044DB98460023ECE7134313D14008731082
:1036500003F17F5303F50013F20703EB075948BF4B
:1036600040F000404946BDE8F8835B0003EBD273AD
:1036700052009DE7411C2DD00130E7E7064621F0BE
:1036800000473E43EFD069BB0F46D30A153F5205B2
:10369000002BFAD0DE0220D4002400E004465B00B8
:1036A000DD0204F10100F9D5C0F1200122FA01F197
:1036B0000B433F1B824073E702460B4600F0FAFAC9
:1036C0002A46234600F044F9BDE8F883BCF1000F18
:1036D000AEDAB6E701362046B9E7002020214FF0E8
:1036E000FF34E3E702460B4600F030F902460B4692
:1036F00000F00AFCB7E700BF0000F07F21F00041B6
:10370000704700BF41F0004101F58010C00F7047C5
:103710000020704700200149704700BF0000F87F7B
:10372000F0B5C1F30A5EAEF2FF36132E83B0024647
:103730000B460C464FEAD17507462EDC002E49DBBE
:103740003A49314103EA010010432BD049080B40AC
:1037500053EA02070CD04FF48023132E24EA010110
:1037600043FA06F444EA01040CBF4FF00047002777
:103770002F4B03EBC5052146D5E9004538462246C7
:103780002B4600F0E5F8CDE9000122462B46DDE9A5
:10379000000100F0DBF803B0F0BD332E06DDB6F516
:1037A000806F40D01046194603B0F0BDAEF2134E04
:1037B0004FF0FF3121FA0EF10842F3D049080842D8
:1037C000D6D04FF0804320EA010143FA0EFE4EEAC4
:1037D0000107CDE721F000410143E3D0C3F313011A
:1037E000134E0143C1F1000C06EBC506D6E9006794
:1037F0004CEA010C4FEA1C3C5C0C64040CF4002302
:1038000043EA040132463B4600F0A2F8CDE900014C
:1038100032463B46DDE9000100F098F821F0004413
:1038200044EAC571C0E700F093F8BDE7FFFF0F0061
:103830003865000800000000F8B5C1F30A560446D8
:103840000D460B4617460EBB21F000430343864648
:1038500025D00022344B00F02DFA344A974204461A
:103860000D460B462ADBC1F30A56363E3E4440F273
:10387000FE72964228DC002E12DD23F0FF4323F473
:10388000E00343EA065520462946F8BD40F2FF72A0
:103890009642EBD102460B4600F05AF8F8BDF8BD4F
:1038A00016F1350F1DDA4CF250339F4222462B465B
:1038B00025DC19A1D1E9000100F03CF816A3D3E9F9
:1038C000002300F0F7F9F8BD22462B4614A1D1E9F8
:1038D000000100F02FF812A3D3E9002300F0EAF969
:1038E000F8BD23F0FF4323F4E003363643EA0655E0
:1038F0002046294600220E4B00F0DCF9F8BD08A155
:10390000D1E9000100F016F805A3D3E9002300F087
:10391000D1F9F8BDAFF3008059F3F8C21F6EA501CD
:103920009C7500883CE4377E00005043B03CFFFFAC
:103930000000903C03F0004321F0004242EA030102
:10394000704700BF81F0004102E000BF83F00043F8
:1039500030B54FEA41044FEA430594EA050F08BF2A
:1039600090EA020F1FBF54EA000C55EA020C7FEAEE
:10397000645C7FEA655C00F0E2804FEA5454D4EB6B
:103980005555B8BF6D420CDD2C4480EA020281EA35
:10399000030382EA000083EA010180EA020281EA6D
:1039A0000303362D88BF30BD11F0004F4FEA0131BF
:1039B0004FF4801C4CEA113102D0404261EB4101CE
:1039C00013F0004F4FEA03334CEA133302D0524254
:1039D00063EB430394EA050F00F0A780A4F1010410
:1039E000D5F1200E0DDB02FA0EFC22FA05F280184A
:1039F00041F1000103FA0EF2801843FA05F3594130
:103A00000EE0A5F120050EF1200E012A03FA0EFCAE
:103A100028BF4CF0020C43FA05F3C01851EBE371D8
:103A200001F0004507D54FF0000EDCF1000C7EEBF5
:103A300000006EEB0101B1F5801F1BD3B1F5001F33
:103A40000CD349085FEA30004FEA3C0C04F1010452
:103A50004FEA445212F5800F80F09A80BCF1004F7B
:103A600008BF5FEA500C50F1000041EB045141EAFD
:103A7000050130BD5FEA4C0C404141EB010111F4FE
:103A8000801FA4F10104E9D191F0000F04BF0146A9
:103A90000020B1FA81F308BF2033A3F10B03B3F187
:103AA00020020CDA0C3208DD02F1140CC2F10C0217
:103AB00001FA0CF021FA02F10CE002F11402D8BF75
:103AC000C2F1200C01FA02F120FA0CFCDCBF41EA41
:103AD0000C019040E41AA2BF01EB0451294330BD10
:103AE0006FEA04041F3C1CDA0C340EDC04F11404ED
:103AF000C4F1200220FA04F001FA02F340EA0300C4
:103B000021FA04F345EA030130BDC4F10C04C4F109
:103B1000200220FA02F001FA04F340EA03002946E9
:103B200030BD21FA04F0294630BD94F0000F83F433
:103B3000801306BF81F480110134013D4EE77FEA16
:103B4000645C18BF7FEA655C29D094EA050F08BF62
:103B500090EA020F05D054EA000C04BF1946104643
:103B600030BD91EA030F1EBF0021002030BD5FEA87
:103B7000545C05D14000494128BF41F0004130BDAF
:103B800014F580043CBF01F5801130BD01F0004503
:103B900045F0FE4141F470014FF0000030BD7FEA76
:103BA000645C1ABF194610467FEA655C1CBF0B4671
:103BB000024650EA013406BF52EA033591EA030F88
:103BC00041F4002130BD00BF90F0000F04BF002180
:103BD000704730B54FF4806404F132044FF00005B3
:103BE0004FF0000150E700BF90F0000F04BF00212C
:103BF000704730B54FF4806404F1320410F0004592
:103C000048BF40424FF000013EE700BF42004FEA8C
:103C1000E2014FEA31014FEA02701FBF12F07F4309
:103C200093F07F4F81F06051704792F0000F14BF06
:103C300093F07F4F704730B54FF4607401F000454A
:103C400021F0004120E700BF50EA010208BF7047A1
:103C500030B54FF000050AE050EA010208BF704796
:103C600030B511F0004502D5404261EB41014FF4FF
:103C7000806404F132045FEA915C3FF4DCAE4FF003
:103C800003025FEADC0C18BF03325FEADC0C18BFEA
:103C9000033202EBDC02C2F1200300FA03FC20FA3B
:103CA00002F001FA03FE40EA0E0021FA02F1144488
:103CB000C1E600BF70B54FF0FF0C4CF4E06C1CEA9D
:103CC00011541DBF1CEA135594EA0C0F95EA0C0F12
:103CD00000F0DEF82C4481EA030621EA4C5123EA85
:103CE0004C5350EA013518BF52EA033541F48011B4
:103CF00043F4801338D0A0FB02CE4FF00005E1FB67
:103D000002E506F00042E0FB03E54FF00006E1FBB0
:103D100003569CF0000F18BF4EF0010EA4F1FF04F3
:103D2000B6F5007F64F5407404D25FEA4E0E6D4133
:103D300046EB060642EAC62141EA55514FEAC52044
:103D400040EA5E504FEACE2EB4F1FD0C88BFBCF5C0
:103D5000E06F1ED8BEF1004F08BF5FEA500E50F171
:103D6000000041EB045170BD06F0004646EA010137
:103D700040EA020081EA0301B4EB5C04C2BFD4EB69
:103D80000C0541EA045170BD41F480114FF0000E62
:103D9000013C00F3AB8014F1360FDEBF002001F0D0
:103DA000004170BDC4F10004203C35DA0C341BDC4A
:103DB00004F11404C4F1200500FA05F320FA04F01C
:103DC00001FA05F240EA020001F0004221F0004150
:103DD00010EBD37021FA04F642EB06015EEA430EC3
:103DE00008BF20EAD37070BDC4F10C04C4F12005F3
:103DF00000FA04F320FA05F001FA04F240EA0200A6
:103E000001F0004110EBD37041F100015EEA430E76
:103E100008BF20EAD37070BDC4F1200500FA05F296
:103E20004EEA020E20FA04F301FA05F243EA020315
:103E300021FA04F001F0004121FA04F220EA020024
:103E400000EBD3705EEA430E08BF20EAD37070BD6A
:103E500094F0000F0FD101F00046400041EB01014A
:103E600011F4801F08BF013CF7D041EA060195F02C
:103E7000000F18BF704703F00046520043EB0303E6
:103E800013F4801F08BF013DF7D043EA06037047D3
:103E900094EA0C0F0CEA135518BF95EA0C0F0CD0DE
:103EA00050EA410618BF52EA4306D1D181EA030124
:103EB00001F000414FF0000070BD50EA410606BF1E
:103EC0001046194652EA430619D094EA0C0F02D163
:103ED00050EA013613D195EA0C0F05D152EA0336A8
:103EE0001CBF104619460AD181EA030101F00041C6
:103EF00041F0FE4141F470014FF0000070BD41F00F
:103F0000FE4141F4780170BD70B54FF0FF0C4CF4E8
:103F1000E06C1CEA11541DBF1CEA135594EA0C0F07
:103F200095EA0C0F00F0A7F8A4EB050481EA030E54
:103F300052EA03354FEA013100F088804FEA03333B
:103F40004FF0805545EA131343EA12634FEA022209
:103F500045EA111545EA10654FEA00260EF00041CA
:103F60009D4208BF964244F1FD0404F5407402D21C
:103F70005B084FEA3202B61A65EB03055B084FEAAD
:103F800032024FF480104FF4002CB6EB020E75EBAA
:103F9000030E22BFB61A754640EA0C005B084FEAD2
:103FA0003202B6EB020E75EB030E22BFB61A75464F
:103FB00040EA5C005B084FEA3202B6EB020E75EB9A
:103FC000030E22BFB61A754640EA9C005B084FEA12
:103FD0003202B6EB020E75EB030E22BFB61A75461F
:103FE00040EADC0055EA060E18D04FEA051545EA0E
:103FF00016754FEA06164FEAC30343EA52734FEAB7
:10400000C2025FEA1C1CC0D111F4801F0BD141EA2F
:1040100000014FF000004FF0004CB6E711F4801F94
:1040200004BF01430020B4F1FD0C88BFBCF5E06F74
:104030003FF6AFAEB5EB030C04BFB6EB020C5FEA84
:10404000500C50F1000041EB045170BD0EF0004ED9
:104050004EEA113114EB5C04C2BFD4EB0C0541EA0B
:10406000045170BD41F480114FF0000E013C90E608
:1040700045EA060E8DE60CEA135594EA0C0F08BFCC
:1040800095EA0C0F3FF43BAF94EA0C0F0AD150EACB
:1040900001347FF434AF95EA0C0F7FF425AF10465E
:1040A00019462CE795EA0C0F06D152EA03353FF486
:1040B000FDAE1046194622E750EA410618BF52EA03
:1040C00043067FF4C5AE50EA41047FF40DAF52EAD7
:1040D00043057FF4EBAE12E74FF0FF3C06E000BF74
:1040E0004FF0010C02E000BF4FF0010C4DF804CD81
:1040F0004FEA410C7FEA6C5C4FEA430C18BF7FEA41
:104100006C5C1BD001B050EA410C0CBF52EA430C6E
:1041100091EA030F02BF90EA020F0020704710F1EE
:10412000000F91EA030F58BF994208BF90422CBF7D
:10413000D8176FEAE37040F0010070474FEA410C76
:104140007FEA6C5C02D150EA013C07D14FEA430C94
:104150007FEA6C5CD6D152EA033CD3D05DF8040B05
:10416000704700BF8446104662468C461946634637
:1041700000E000BF01B5FFF7B7FF002848BF10F10E
:10418000000F01BD4DF808EDFFF7F4FF0CBF012053
:1041900000205DF808FB00BF4DF808EDFFF7EAFFCF
:1041A00034BF012000205DF808FB00BF4DF808ED8A
:1041B000FFF7E0FF94BF012000205DF808FB00BF7F
:1041C0004DF808EDFFF7CEFF94BF012000205DF809
:1041D00008FB00BF4DF808EDFFF7C4FF34BF012016
:1041E00000205DF808FB00BF4FEA410C7FEA6C5CE1
:1041F00002D150EA013C0AD14FEA430C7FEA6C5CE1
:1042000002D152EA033C02D14FF0000070474FF058
:1042100001007047014B1868704700BF3400002050
:104220002DE9F04788B0002B149F1299109DDDF8FE
:104230004CA01E4627F02007BBBF03F100431E46DB
:1042400000232D23462F14460B7004D0452F00D198
:104250000135022300E0032307AA049206AA039271
:104260008DE828042246334600F00AFD472F804699
:1042700002D1119BDB0726D5462F08EB050911D18A
:1042800098F80030302B0AD1002200232046314616
:10429000FFF778FF18B9C5F10105CAF80050DAF840
:1042A000003099440022002320463146FFF76AFF80
:1042B00038B93022079B994505D9591C07911A70C6
:1042C000F8E7CDF81C90079B159AA3EB080340462E
:1042D000136008B0BDE8F087F7B503460029B8BF02
:1042E000494203F8022BB4BF2D222B220929427028
:1042F00020DD0DF1070217460A2691FBF6F506FBB5
:1043000015113031092D02F8011C02F1FF34294644
:1043100009DC3031023A04F8011CBA421C4604D3CD
:10432000201A03B0F0BD2246E7E712F8011B03F89C
:10433000011BF2E730221C46114404F8022B59708D
:10434000EEE700002DE9F04F91B00C461A9F93461E
:104350001E46054601F066FA03680993184600F008
:10436000BFFB00230E933B680A90073323F007033B
:1043700003F1080294F81880D4F800A03A60D3E959
:104380000023C4E91223D4F84C90A76C29F0004311
:104390000B934FF0FF32A64B0B993846FFF724FFE3
:1043A000002840F0F7814FF0FF32A14B0B993846BF
:1043B000FFF7FCFE002840F0ED8100220023384684
:1043C0004946FFF7E9FE10B12D2384F84330994B9D
:1043D000994FB8F1470F98BF1F46032323612AF076
:1043E000040323604FF0000900965B460FAA2146A4
:1043F000284600F0DFF9013040F09A804FF0FF309E
:1044000011B0BDE8F08F6268531C0EA84AF48063B7
:104410000DF1340E41D106226260236000210DF1BE
:104420003302019363680590029200933A464B462B
:104430000691CDF81080CDF80CE02846FFF7F0FE8D
:1044400008F0DF03472B074609D10D9BD81C02DB80
:104450006268934259DDA8F102085FFA88F8B8F162
:10446000650F0D9936D80139424604F150000D917F
:10447000FFF732FF0E9A8318012A8146236102DC7E
:104480002268D10701D5013323619DF83330002B19
:10449000AAD02D2384F84330A6E7B8F1670F02D0E5
:1044A000B8F1470FB9D19AB1002106910DF133014E
:1044B0008DE80C00236005903A46CDF81080CDF8C9
:1044C0000CE002914B462846FFF7AAFE0746BCE7E0
:1044D0000122A1E7B8F1660F19D1002963680CDD4C
:1044E000216113B92268D20702D501330B4423613D
:1044F0000D9BA3654FF00009C7E713B92268D007E9
:1045000001D50233F3E70123F1E74FF067080D9B74
:104510000E9A934205DB22682361D107E8D5013367
:10452000E5E7002BD4BFC3F1020301231344DEE708
:1045300023685A0507D423693A4659462846B047A6
:1045400001302AD15AE7B8F1650F40F2DC80002231
:104550000023D4E91201FFF715FE002839D001230A
:10456000364A59462846B04701303FF447AF0E9BC4
:104570000D9A9A4202DB2368D8070ED50A9B099A46
:1045800059462846B04701303FF438AF002704F1C0
:104590001A080E9B013B9F4211DB23689F0708D539
:1045A000002704F11908E3680F9A9B1A9F42C0F292
:1045B000E780E0680F9B9842B8BF184620E70123C8
:1045C000424659462846B04701303FF417AF0137FD
:1045D000DFE70D9B002B33DC0123184A59462846A0
:1045E000B04701303FF40AAF0D9B23B90E9B13B9BE
:1045F0002368D907D1D50A9B099A59462846B0475E
:1046000001303FF4FBAE4FF0000804F11A090D9B96
:104610005B42984501DB0E9B8EE701234A465946D3
:104620002846B04701303FF4E9AE08F10108EEE753
:10463000FFFFEF7F486500084C65000858650008DB
:104640000E9AA36D9A42A8BF1A46002A904636DCFD
:1046500004F11A034FF0000A28EAE8780B93D4F823
:104660005890A9EB08039A4531DB0E9B0D9A9A42AC
:1046700038DB2368DA0735D40E9B0D99A3EB0902CA
:10468000A3EB01089045A8BF9046B8F1000F31DCBC
:10469000002728EAE87804F11A090D9A0E9B9B1A64
:1046A000A3EB08039F42BFF678AF01234A46594661
:1046B0002846B04701303FF4A1AE0137EDE713467D
:1046C00059463A462846B0470130C1D196E6012303
:1046D0000B9A59462846B04701303FF48FAE0AF195
:1046E000010ABCE70A9B099A59462846B04701309F
:1046F000C2D183E6434607EB090259462846B04734
:104700000130C5D17AE60E9A012A01DCDB0734D5E7
:1047100001233A4659462846B04701303FF46EAE71
:104720000A9B099A59462846B04701303FF466AEC5
:1047300000220023D4E91201FFF724FD50B1002725
:1047400004F11A080E9B013B9F420CDB4B4604F11F
:104750005002F2E60E9B7A1C013B59462846B047B0
:104760000130F3D14AE60123424659462846B04774
:1047700001303FF443AE0137E4E701233A46ECE76A
:104780000123424659462846B04701303FF436AE31
:10479000013708E73A464B4638464946FFF724FDBD
:1047A00000283FF430AE014B014F12E6506500087F
:1047B000546500082DE9F04791461F468A680B6949
:1047C000DDF820809342B8BF1346C9F8003091F855
:1047D000432006460C4612B10133C9F80030236865
:1047E000990642BFD9F800300233C9F80030256875
:1047F00015F0060507D104F1190AE368D9F800207D
:104800009B1A9D4229DB94F843302268003318BF7D
:10481000012392062ED404F1430239463046C047A4
:10482000013021D02368E568D9F8002003F00603A1
:10483000042B08BFAD1AA36822690CBF25EAE575F1
:1048400000259342C4BF9B1AED184FF000091A349B
:104850004D451BD10020BDE8F08701235246394663
:104860003046C047013003D14FF0FF30BDE8F0873C
:104870000135C2E7E1185A1C302081F84300224478
:1048800094F8451082F843100233C4E7012322460E
:1048900039463046C0470130E6D009F10109D7E773
:1048A0002DE9F04317460A7E85B06E2A98460646E3
:1048B0000C460C9B01F1430E00F0BC801AD8632A11
:1048C0002ED00AD8002A00F0C880582A00F08A802A
:1048D00004F1420584F842202AE0642A01D0692AC2
:1048E000F6D121681A6811F0800F23D0111D1960CC
:1048F000136827E0732A00F0B48008D86F2A2AD002
:10490000702AE5D10A6842F020020A6003E0752AA5
:1049100021D0782ADCD1782284F845206E4964E0E1
:104920001A6801F14205111D1960136884F84230BC
:104930000123A3E011F0400F02F104011960D7D068
:10494000B2F90030002B03DA2D225B4284F84320B9
:1049500062490A2217E02068196810F0800F03D01E
:10496000081D18600B6806E010F0400F01F104000C
:104970001860F7D00B8859496F2A14BF0A22082201
:10498000002084F843006568A560002DC0F29C807B
:10499000206820F004002060002B3FD1002D40F063
:1049A00095807546082A0BD12368DA0708D5236954
:1049B00062689A42DEBF302305F8013C05F1FF35FD
:1049C000AEEB05032361CDF800803B4603AA2146E8
:1049D0003046FFF7EFFE013055D14FF0FF3005B004
:1049E000BDE8F08381F845203C492268186812F040
:1049F000800F00F104051D6001D0036802E0550638
:104A0000FBD50388D00744BF42F0200222601BB9C7
:104A1000226822F0200222601022B1E77546B3FB23
:104A2000F2F002FB1033CB5C05F8013D0346002891
:104A3000F5D1B7E708681A68496910F0800F04D00B
:104A4000101D18601368196007E010F0400F02F1A4
:104A5000040018601368F6D019800023236175469E
:104A6000B1E71A68111D19601568626800212846AF
:104A700000F0EEFE08B1401B606063682361002314
:104A800084F843309FE723692A4639463046C047B9
:104A90000130A2D023689B0707D5002504F119092E
:104AA000E368039A9B1A9D4205DBE068039B9842EA
:104AB000B8BF184693E701234A4639463046C047F7
:104AC00001308AD00135EBE7002BA7D10B7884F8B1
:104AD000423004F1420565E76B6500085A6500083D
:104AE000034613F8012B002AFBD1181A013870472E
:104AF00030B5141E05469BB0184605DA8B232B6093
:104B00004FF0FF301BB030BD4FF40273ADF80C30E6
:104B100014BF04F1FF332346029305934FF6FF734E
:104B200000910491ADF80E3002461E9B694628465E
:104B300001F0D0FA431CBCBF8B232B60002CE1D0CA
:104B4000009B00221A70DDE707B5009313460A4662
:104B5000014603480068FFF7CBFF03B05DF804FB94
:104B6000340000202DE9F74F03690C699C42804610
:104B700000F38280013C01F114074FEA840E00F13A
:104B8000140657F8245056F8240006EB0E0301359E
:104B900007EB0E090193B0FBF5F595B34FF0000A52
:104BA0003846B446D34650F8042B93B205FB03A312
:104BB0004FEA134A9BB2ABEB0303120CBCF800B0F4
:104BC00005FB02A213FA8BF34FEA124A1FFA82FB8B
:104BD000DCF80020CBEB124202EB23429BB243EA0B
:104BE000024381454FEA224B4CF8043BDBD256F896
:104BF0000E3033B9019B043B9E421A4630D3C8F8AD
:104C00001040404601F089F8002825DB0135304688
:104C10004FF0000E57F8042BD0F800C093B2AEEB63
:104C20000303120C13FA8CF3C2EB1C4202EB234277
:104C30009BB243EA0243B9454FEA224E40F8043B97
:104C4000E8D256F8242006EB84032AB9043B9E429E
:104C50001A460BD3C8F81040284603B0BDE8F08FC1
:104C60001268043B002ACAD1013CC5E71268043B24
:104C7000002AEFD1013CEAE70020EEE70000000047
:104C80002DE9F04F466A95B00446219DCDE90223F7
:104C90003EB9102000F0D4FD606246608660066078
:104CA000C660636A196851B15A684A60012393402B
:104CB0008B60204600F05BFE636A00221A60039B53
:104CC000002BBFBF01232B60039B23F00043B2BF27
:104CD000039300232B60DDF80C90A94B33EA090302
:104CE0001BD1209A42F20F731360029B23B9C9F3C0
:104CF0001300002800F08185229B53B9A14B21E0CD
:104D0000A14B06930833229A1360069815B0BDE8AC
:104D1000F08F9C4B06930333F5E7DDE90267002231
:104D2000002330463946FFF72DFA804660B1209ABD
:104D300001231360229B002B00F05C85934B229A89
:104D40001360013B0693E0E712AB019313AB0093B2
:104D500032463B46204601F058F8C9F30A558246D0
:104D6000002D7CD0C7F3130343F07F51304641F44C
:104D70004011A5F2FF35CDF840800022844BFEF7AC
:104D8000E5FD79A3D3E90023FEF794FF78A3D3E9E7
:104D90000023FEF7DDFD064628460F46FEF724FFFA
:104DA00075A3D3E90023FEF785FF02460B46304684
:104DB0003946FEF7CDFD06460F4601F001FB002205
:104DC0008346002330463946FFF7E6F958B1584686
:104DD000FEF70AFF02460B4630463946FFF7D2F986
:104DE00008B90BF1FF3BBBF1160F57D8694901EB2E
:104DF000CB01DDE90223D1E90001FFF7EBF900283F
:104E00004ED00BF1FF3B00230D93129B5D1B6B1EDD
:104E1000079343BF0023C5F1010807934FF0000833
:104E2000BBF1000F3EDB079BCDF830B05B4407932E
:104E3000002308931E9B092B00F2B080052BC4BFF2
:104E4000043B1E931E9BA3F10203CCBF0026012648
:104E5000032B00F2AF80DFE803F083852D77139BEF
:104E6000129D1D4405F23243202B11DD029A05F2FA
:104E70001240C3F1400322FA00F009FA03F3184389
:104E8000FEF7A2FE0123A1F1F871013D109374E732
:104E9000C3F12000029B03FA00F0F1E70123B3E71E
:104EA0000D90B2E7CBF1000308930023A8EB0B08A9
:104EB0000C93BFE7012309931F9B002B7DDD049317
:104EC0009946656A00226A60042101F114029A423F
:104ED00078D96968204600F016FD636A28601B686F
:104EE0000693B9F10E0F00F2EE80002E00F0EB8079
:104EF000DDE90223BBF1000FCDE90E2377DD254A62
:104F00000BF00F0302EBC303D3E900234FEA2B1688
:104F1000F006CDE90A235AD51F4BDDE90E01D3E98E
:104F20000823FEF7F1FFCDE9020106F00F06032585
:104F3000194F002E4DD1DDE90A23DDE90201FEF70C
:104F4000E3FFCDE902016CE0012309931F9B5B4461
:104F500003F1010904934B46012BB8BF0123B0E7CD
:104F60000023A8E70023F0E761436F63A787D23FE0
:104F7000B3C8608B288AC63FFB799F501344D33F48
:104F80000000F07F856500087C6500085965000811
:104F90000000F83FB865000890650008012600236E
:104FA0001E9309964FF0FF33049399460022122373
:104FB0001F9286E701230993F4E70123049399469E
:104FC0001A46F5E76A6801326A6049007DE7022502
:104FD000AEE7F10708D5DDE90A01D7E90023FEF7BE
:104FE00069FECDE90A01013576100837A1E700F026
:104FF000A580CBF10006A34BA34F06F00F0203EBF5
:10500000C203D3E90023DDE90E01FEF753FECDE92B
:105010000201361100230225002E40F08480002B6F
:105020008FD10D9B002B00F08B80DDE90223CDE9B1
:105030000A23DDE90A010022944BFFF7ADF80028AE
:105040007ED0B9F1000F7BD0049B002B37DD00220E
:105050008F4BDDE90A01FEF72DFECDE90201049E2A
:105060000BF1FF3701352846FEF7BEFDDDE90223CF
:10507000FEF720FE874B0022FEF76AFCCDE90A010D
:105080000B9BA3F150750B95002E5CD10022824B37
:10509000DDE90201FEF75AFC0A9A2B46CDE902012E
:1050A000FFF798F8002840F0F7820A9A05F10043CC
:1050B000DDE90201FFF770F8002840F0EB82DDE93E
:1050C0000E23CDE90223139B002BC0F25181BBF1CB
:1050D0000E0F00F34D816B4B03EBCB03D3E90023A1
:1050E000CDE904231F9B002B80F2DA80B9F1000F79
:1050F00000F3D68040F0CD820022674BDDE9040149
:10510000FEF7D8FDDDE90223FFF75AF84E464F4679
:10511000002840F0A482069B069A5D1C3123137080
:105120000BF1010B9FE2F20705D5D7E90023FEF74B
:10513000C1FD01350123761008376DE7022570E7C0
:105140005F464E468FE7069A4E4B32441192099ABB
:10515000711E002A48D003EBC103D3E900230020CD
:105160004E49FEF7D1FEDDE90A23FEF7EFFBCDE95C
:105170000A01069DDDE9020101F022F90646FEF76B
:1051800033FD02460B46DDE90201FEF7DFFB303658
:1051900005F8016BDDE90A23CDE90201FEF7FCFF0A
:1051A000002865D1DDE9022300203849FEF7CEFB57
:1051B000DDE90A23FEF7F0FF002840F0B980119BDB
:1051C0009D423FF47CAF0022314BDDE90A01FEF73E
:1051D00071FD0022CDE90A012D4BDDE90201FEF748
:1051E00069FDCDE90201C5E703EBC101D1E9000189
:1051F000DDE90A23FEF75EFDCDE90A01069DDDE942
:10520000020101F0DDF80646FEF7EEFC30360246FC
:105210000B46DDE90201FEF799FB05F8016B119BD6
:10522000AB42CDE902014FF0000225D11B4BDDE975
:105230000A01FEF78DFB02460B46DDE90201FEF78F
:10524000C9FF002874D1DDE90A2300201349FEF7C5
:105250007DFB02460B46DDE90201FEF79DFF0028BB
:105260003FF42DAF15F8013C302B05F1FF3201D092
:10527000BB464CE01546F5E7054BFEF71BFDCDE9B7
:105280000201BCE7B8650008906500080000F03F27
:105290000000244000001C40000014400000E03FDB
:1052A000DDE90267069DDDE9042330463946FEF755
:1052B0002BFE01F085F88046FEF796FCDDE904231D
:1052C000FEF7F8FC02460B463046394608F1300638
:1052D000FEF73CFB05F8016B069EAE1BB14502468E
:1052E0000B4638D1FEF734FB06460F4602460B4606
:1052F000DDE90401FEF750FFC8B932463B46DDE95F
:105300000401FEF73FFF10B118F0010F0FD1514615
:10531000204600F02CFB0023209A2B700BF1010398
:105320001360229B002B3FF4F0AC1D60EDE45F4660
:1053300015F8012C392A05F1FF3306D1069A9A4255
:1053400007D130231370013713461A7801321A70CF
:105350008EE71D46ECE70022B44BFEF7ABFC0022C3
:10536000002306460F46FEF70DFF00289BD0CEE730
:10537000099A002A00F029811E9A012A00F30E8161
:10538000109A002A00F0068103F23343089E454636
:10539000079A01211A4420469844079200F087FB9F
:1053A0000746002D0BDD079B002B08DDAB42079A5B
:1053B000A8BF2B46A8EB0308ED1AD31A0793089B46
:1053C000FBB1099B002B00F00481002E11DD394652
:1053D0003246204600F002FC52460146074620466F
:1053E00000F06EFB51460A90204600F0C0FA0A9B7E
:1053F0009A46089B9A1B04D05146204600F0EEFBCB
:1054000082460121204600F052FB0C9B002B0646F1
:1054100040F3E1801A460146204600F0DFFB1E9B68
:10542000012B064640F3DA8000230893336906EB2C
:105430008303186900F0EDFAC0F12000079B1844BF
:1054400010F01F0000F0F080C0F12003042B40F3A7
:10545000E280079BC0F11C0080440544034407938D
:10546000B8F1000F05DD51464246204600F004FC2D
:105470008246079B002B05DD31461A46204600F088
:10548000FBFB06460D9B002B00F0D28031465046B8
:1054900000F043FC002880F2CB80002351460A2212
:1054A000204600F07BFA099B0BF1FF3B8246002B64
:1054B00000F0AA81002339460A22204600F06EFA45
:1054C000049B002B074603DC1E9B022B00F3B880D5
:1054D000002D05DD39462A46204600F0CDFB074663
:1054E000089B002B00F010817968204600F00BFA31
:1054F0003A6902320546920007F10C010C3000F0C7
:10550000F7F901222946204600F0B6FB029BDDF8A0
:105510001880079703F00103074608933146504669
:10552000FFF720FB0799054600F13009504600F0CF
:10553000F4FB3A4602903146204600F008FCC3686E
:105540000246002B40F0E28001460990504600F0F0
:10555000E4FB099A034611462046099300F007FA36
:10556000099B002B40F0D4801E9A002A40F0D08086
:10557000089A002A40F0CC80B9F1390F00F0E88099
:10558000029B002B01DD05F1310908F1010588F8C6
:1055900000906AE0129BC3F13603F7E6089B09F11D
:1055A000FF36B342BFBF089B0896F21A0C9BB7BFE9
:1055B0009B189E1B0C930026B9F1000FB9BFA8EBF6
:1055C0000905002345464B46E2E6089E099F4546ED
:1055D000E7E6089A10E71E9B012B18DC029BB3B983
:1055E000039BC3F31303A3B9039B23F000431B0DD9
:1055F0001B052BB1079B0133079308F10108012319
:1056000008930C9B002B7FF411AF012016E70023B9
:10561000F6E7029BF4E73FF423AF079A1C331A44E2
:1056200098441D4413461AE70346F6E70000244059
:10563000B9F1000F33DC1E9B022B30DDCDF810904A
:10564000049B63B931460522204600F0A7F90146C4
:105650000646504600F061FB00283FF75CAD1F9BFB
:10566000069D6FEA030B002307933146204600F0A6
:105670007EF9002F3FF44BAE079B2BB1BB4203D00A
:105680001946204600F073F93946204600F06FF9BC
:105690003DE600263746E2E7BB4637463BE5099B39
:1056A000CDF81090002B7FF413AF069D3146504685
:1056B000FFF758FA00F1300905F8019B069B049AA0
:1056C000EB1A9A4200F38380069B012AACBF9B1819
:1056D000013398460023079351460122204600F0EB
:1056E000CBFA3146824600F018FB002835DC02D1A7
:1056F00019F0010F31D1454615F8013C302B05F169
:10570000FF32B2D11546F7E73846FFE6012322E71C
:10571000029A002A04DB29D11E9A3ABB089A2ABBB6
:10572000002B7FF732AF51460122204600F0A4FA49
:105730003146824600F0F1FA002805DC7FF425AFFF
:1057400019F0010F3FF421AFB9F1390F7FF41BAF0E
:10575000392388F8003008F10108454615F8013C66
:10576000392B05F1FF323AD001333FE0002B08F12D
:10577000010505DDB9F1390FEAD009F1010906E7A4
:10578000069B049A05F8019CEB1A9342A846A3D005
:10579000514600230A22204600F000F9079B079992
:1057A000BB4282464FF000034FF00A02204604D16C
:1057B00000F0F4F807900746B0E600F0EFF8002399
:1057C00007900A223946204600F0E8F8F3E75146F0
:1057D00000230A22204600F0E1F8824666E7069B95
:1057E000934205D1069A0BF1010B312313703CE76C
:1057F0001546B3E7094BFFF7A5BA229B002B7FF4B0
:105800007FAA074BFFF79EBA049B002B3FF74DAFD3
:105810001E9B022B7FF749AF12E700BF58650008B7
:105820007C650008044B1B68186A044B002808BFFD
:105830001846F030704700BF340000209800002068
:10584000024B0146186800F08BBB00BF34000020FB
:1058500001F0FF01102A2BDB10F0070F08D010F821
:10586000013B013A8B422DD010F0070F42B3F6D125
:10587000F0B441EA012141EA014122F007047FF03E
:1058800000070023F0E80256083C85EA010586EA95
:10589000010685FA47F5A3FA87F586FA47F6A5FAD1
:1058A00087F68EB9EED1F0BC01F0FF0102F00702DD
:1058B00032B110F8013B013A83EA010313B1F8D188
:1058C0000020704701387047002D06BF3546033869
:1058D000073815F0010F07D1013015F4807F02BFA2
:1058E000013015F4C03F0130F0BC0138704700BFF3
:1058F00010B5431E0A44914200D110BD11F8014B6E
:1059000003F8014FF7E770B5456A04460E463DB906
:105910001020FFF795FF6062456085600560C560F7
:10592000656AEB6883B1636ADB6853F82600B8B92F
:10593000012101FA06F56A1D9200204600F0B4FA32
:1059400060B1466085600EE021220421204600F00F
:10595000ABFA636AE860DB68002BE4D1002070BD1D
:10596000026843F8262000230361C36070BD70B550
:10597000446A06460D463CB91020FFF761FF70628D
:10598000446084600460C4603DB1736A6A68DB6827
:1059900053F82210296043F8225070BD2DE9F041E0
:1059A0000D691F4606460C4601F1140E0023DEF871
:1059B000000081B202FB01710F0C000C02FB0070B1
:1059C00089B2013301EB00419D424FEA10474EF886
:1059D000041BECDCD7B1A3689D4212DB6168304642
:1059E0000131FFF790FF2269023204F10C01804679
:1059F00092000C30FFF77CFF21463046FFF7B7FFDF
:105A0000444604EB850301355F6125612046BDE80E
:105A1000F081020C12040346B2B90304102013F003
:105A20007F4F04BF1B02083013F0704F04BF1B01EF
:105A3000043013F0404F04BF9B000230002B06DB04
:105A40005B0003D5013070470020E8E72020704755
:105A5000036813F0070201460BD0DA0723D4980736
:105A600049BF5B089B0801200B605CBF0B600220F4
:105A7000704798B2A8B91B0C102013F0FF0F04BF99
:105A80001B0A08301A0704BF1B0904309A0704BF19
:105A90009B080230DA0702D45B0806D001300B60A5
:105AA00070471046E9E7002070472020704710B586
:105AB0000C460121FFF727FF01224461026110BD5E
:105AC0002DE9F74F14460A6923699A42B8BF0B467D
